{
  "contractName": "Token",
  "abi": [
    {
      "constant": false,
      "inputs": [
        {
          "name": "_from",
          "type": "address"
        },
        {
          "name": "_to",
          "type": "address"
        },
        {
          "name": "_amount",
          "type": "uint256"
        },
        {
          "name": "_inputs",
          "type": "uint256[4]"
        },
        {
          "name": "_providers",
          "type": "address[2]"
        },
        {
          "name": "_v",
          "type": "uint8"
        },
        {
          "name": "_r",
          "type": "bytes32"
        },
        {
          "name": "_s",
          "type": "bytes32"
        }
      ],
      "name": "transferMetaTx",
      "outputs": [
        {
          "name": "",
          "type": "bool"
        }
      ],
      "payable": false,
      "stateMutability": "nonpayable",
      "type": "function",
      "signature": "0x06f82b5d"
    },
    {
      "constant": false,
      "inputs": [
        {
          "name": "spender",
          "type": "address"
        },
        {
          "name": "value",
          "type": "uint256"
        }
      ],
      "name": "approve",
      "outputs": [
        {
          "name": "",
          "type": "bool"
        }
      ],
      "payable": false,
      "stateMutability": "nonpayable",
      "type": "function",
      "signature": "0x095ea7b3"
    },
    {
      "constant": false,
      "inputs": [
        {
          "name": "_owner",
          "type": "address"
        }
      ],
      "name": "setOwner",
      "outputs": [
        {
          "name": "",
          "type": "bool"
        }
      ],
      "payable": false,
      "stateMutability": "nonpayable",
      "type": "function",
      "signature": "0x13af4035"
    },
    {
      "constant": false,
      "inputs": [
        {
          "name": "_paused",
          "type": "bool"
        }
      ],
      "name": "setPaused",
      "outputs": [
        {
          "name": "",
          "type": "bool"
        }
      ],
      "payable": false,
      "stateMutability": "nonpayable",
      "type": "function",
      "signature": "0x16c38b3c"
    },
    {
      "constant": true,
      "inputs": [],
      "name": "totalSupply",
      "outputs": [
        {
          "name": "",
          "type": "uint256"
        }
      ],
      "payable": false,
      "stateMutability": "view",
      "type": "function",
      "signature": "0x18160ddd"
    },
    {
      "constant": false,
      "inputs": [
        {
          "name": "from",
          "type": "address"
        },
        {
          "name": "to",
          "type": "address"
        },
        {
          "name": "value",
          "type": "uint256"
        }
      ],
      "name": "transferFrom",
      "outputs": [
        {
          "name": "",
          "type": "bool"
        }
      ],
      "payable": false,
      "stateMutability": "nonpayable",
      "type": "function",
      "signature": "0x23b872dd"
    },
    {
      "constant": true,
      "inputs": [
        {
          "name": "_from",
          "type": "address"
        }
      ],
      "name": "getNonce",
      "outputs": [
        {
          "name": "",
          "type": "uint256"
        }
      ],
      "payable": false,
      "stateMutability": "view",
      "type": "function",
      "signature": "0x2d0335ab"
    },
    {
      "constant": false,
      "inputs": [
        {
          "name": "spender",
          "type": "address"
        },
        {
          "name": "addedValue",
          "type": "uint256"
        }
      ],
      "name": "increaseAllowance",
      "outputs": [
        {
          "name": "success",
          "type": "bool"
        }
      ],
      "payable": false,
      "stateMutability": "nonpayable",
      "type": "function",
      "signature": "0x39509351"
    },
    {
      "constant": false,
      "inputs": [
        {
          "name": "_to",
          "type": "address"
        },
        {
          "name": "_amount",
          "type": "uint256"
        }
      ],
      "name": "mint",
      "outputs": [
        {
          "name": "",
          "type": "bool"
        }
      ],
      "payable": false,
      "stateMutability": "nonpayable",
      "type": "function",
      "signature": "0x40c10f19"
    },
    {
      "constant": true,
      "inputs": [
        {
          "name": "owner",
          "type": "address"
        }
      ],
      "name": "balanceOf",
      "outputs": [
        {
          "name": "",
          "type": "uint256"
        }
      ],
      "payable": false,
      "stateMutability": "view",
      "type": "function",
      "signature": "0x70a08231"
    },
    {
      "constant": true,
      "inputs": [],
      "name": "sendGasCost",
      "outputs": [
        {
          "name": "",
          "type": "uint256"
        }
      ],
      "payable": false,
      "stateMutability": "view",
      "type": "function",
      "signature": "0x7910cded"
    },
    {
      "constant": true,
      "inputs": [],
      "name": "SWINGBY_TX_TYPEHASH",
      "outputs": [
        {
          "name": "",
          "type": "bytes32"
        }
      ],
      "payable": false,
      "stateMutability": "view",
      "type": "function",
      "signature": "0x881967f9"
    },
    {
      "constant": true,
      "inputs": [],
      "name": "getOwner",
      "outputs": [
        {
          "name": "",
          "type": "address"
        }
      ],
      "payable": false,
      "stateMutability": "view",
      "type": "function",
      "signature": "0x893d20e8"
    },
    {
      "constant": true,
      "inputs": [
        {
          "name": "_relayer",
          "type": "address"
        }
      ],
      "name": "getEstimateTokenPrice",
      "outputs": [
        {
          "name": "",
          "type": "uint256"
        }
      ],
      "payable": false,
      "stateMutability": "view",
      "type": "function",
      "signature": "0xa3410d7d"
    },
    {
      "constant": false,
      "inputs": [
        {
          "name": "spender",
          "type": "address"
        },
        {
          "name": "subtractedValue",
          "type": "uint256"
        }
      ],
      "name": "decreaseAllowance",
      "outputs": [
        {
          "name": "success",
          "type": "bool"
        }
      ],
      "payable": false,
      "stateMutability": "nonpayable",
      "type": "function",
      "signature": "0xa457c2d7"
    },
    {
      "constant": false,
      "inputs": [
        {
          "name": "to",
          "type": "address"
        },
        {
          "name": "value",
          "type": "uint256"
        }
      ],
      "name": "transfer",
      "outputs": [
        {
          "name": "",
          "type": "bool"
        }
      ],
      "payable": false,
      "stateMutability": "nonpayable",
      "type": "function",
      "signature": "0xa9059cbb"
    },
    {
      "constant": true,
      "inputs": [
        {
          "name": "_from",
          "type": "address"
        },
        {
          "name": "_to",
          "type": "address"
        },
        {
          "name": "_amount",
          "type": "uint256"
        },
        {
          "name": "_inputs",
          "type": "uint256[4]"
        },
        {
          "name": "_providers",
          "type": "address[2]"
        }
      ],
      "name": "getTransactionHash",
      "outputs": [
        {
          "name": "",
          "type": "bytes32"
        }
      ],
      "payable": false,
      "stateMutability": "pure",
      "type": "function",
      "signature": "0xbe69f605"
    },
    {
      "constant": false,
      "inputs": [
        {
          "name": "_tokenPrice",
          "type": "uint256"
        }
      ],
      "name": "setEstimateTokenPrice",
      "outputs": [],
      "payable": false,
      "stateMutability": "nonpayable",
      "type": "function",
      "signature": "0xc7fc3914"
    },
    {
      "constant": true,
      "inputs": [
        {
          "name": "owner",
          "type": "address"
        },
        {
          "name": "spender",
          "type": "address"
        }
      ],
      "name": "allowance",
      "outputs": [
        {
          "name": "",
          "type": "uint256"
        }
      ],
      "payable": false,
      "stateMutability": "view",
      "type": "function",
      "signature": "0xdd62ed3e"
    },
    {
      "inputs": [
        {
          "name": "name",
          "type": "string"
        },
        {
          "name": "symbol",
          "type": "string"
        },
        {
          "name": "decimals",
          "type": "uint8"
        },
        {
          "name": "_value",
          "type": "uint256"
        }
      ],
      "payable": false,
      "stateMutability": "nonpayable",
      "type": "constructor",
      "signature": "constructor"
    },
    {
      "anonymous": false,
      "inputs": [
        {
          "indexed": true,
          "name": "from",
          "type": "address"
        },
        {
          "indexed": true,
          "name": "to",
          "type": "address"
        },
        {
          "indexed": false,
          "name": "value",
          "type": "uint256"
        }
      ],
      "name": "Transfer",
      "type": "event",
      "signature": "0xddf252ad1be2c89b69c2b068fc378daa952ba7f163c4a11628f55a4df523b3ef"
    },
    {
      "anonymous": false,
      "inputs": [
        {
          "indexed": true,
          "name": "owner",
          "type": "address"
        },
        {
          "indexed": true,
          "name": "spender",
          "type": "address"
        },
        {
          "indexed": false,
          "name": "value",
          "type": "uint256"
        }
      ],
      "name": "Approval",
      "type": "event",
      "signature": "0x8c5be1e5ebec7d5bd14f71427d1e84f3dd0314c0f7b2291e5b200ac8c7c3b925"
    },
    {
      "anonymous": false,
      "inputs": [
        {
          "indexed": false,
          "name": "txHash",
          "type": "bytes32"
        }
      ],
      "name": "ExecutionFailed",
      "type": "event",
      "signature": "0xabfd711ecdd15ae3a6b3ad16ff2e9d81aec026a39d16725ee164be4fbf857a7c"
    },
    {
      "constant": false,
      "inputs": [
        {
          "name": "_from",
          "type": "address"
        },
        {
          "name": "_to",
          "type": "address"
        },
        {
          "name": "_amount",
          "type": "uint256"
        },
        {
          "name": "_inputs",
          "type": "uint256[4]"
        },
        {
          "name": "_providers",
          "type": "address[2]"
        },
        {
          "name": "_v",
          "type": "uint8"
        },
        {
          "name": "_r",
          "type": "bytes32"
        },
        {
          "name": "_s",
          "type": "bytes32"
        }
      ],
      "name": "transferMetaTxs",
      "outputs": [
        {
          "name": "",
          "type": "bool"
        }
      ],
      "payable": false,
      "stateMutability": "nonpayable",
      "type": "function",
      "signature": "0xcc6d4938"
    },
    {
      "constant": true,
      "inputs": [],
      "name": "name",
      "outputs": [
        {
          "name": "",
          "type": "string"
        }
      ],
      "payable": false,
      "stateMutability": "view",
      "type": "function",
      "signature": "0x06fdde03"
    },
    {
      "constant": true,
      "inputs": [],
      "name": "symbol",
      "outputs": [
        {
          "name": "",
          "type": "string"
        }
      ],
      "payable": false,
      "stateMutability": "view",
      "type": "function",
      "signature": "0x95d89b41"
    },
    {
      "constant": true,
      "inputs": [],
      "name": "decimals",
      "outputs": [
        {
          "name": "",
          "type": "uint8"
        }
      ],
      "payable": false,
      "stateMutability": "view",
      "type": "function",
      "signature": "0x313ce567"
    }
  ],
  "bytecode": "0x6080604052619c406002553480156200001757600080fd5b506040516200287738038062002877833981018060405260808110156200003d57600080fd5b8101908080516401000000008111156200005657600080fd5b828101905060208101848111156200006d57600080fd5b81518560018202830111640100000000821117156200008b57600080fd5b50509291906020018051640100000000811115620000a857600080fd5b82810190506020810184811115620000bf57600080fd5b8151856001820283011164010000000082111715620000dd57600080fd5b5050929190602001805190602001909291908051906020019092919050505083600790805190602001906200011492919062000365565b5082600890805190602001906200012d92919062000365565b5081600960006101000a81548160ff021916908360ff160217905550620001633362000188640100000000026401000000009004565b6200017e3382620001cc640100000000026401000000009004565b5050505062000414565b80600660006101000a81548173ffffffffffffffffffffffffffffffffffffffff021916908373ffffffffffffffffffffffffffffffffffffffff16021790555050565b600073ffffffffffffffffffffffffffffffffffffffff168273ffffffffffffffffffffffffffffffffffffffff16141515156200020957600080fd5b6200022e81600554620003436401000000000262001bf8179091906401000000009004565b6005819055506200029681600360008573ffffffffffffffffffffffffffffffffffffffff1673ffffffffffffffffffffffffffffffffffffffff16815260200190815260200160002054620003436401000000000262001bf8179091906401000000009004565b600360008473ffffffffffffffffffffffffffffffffffffffff1673ffffffffffffffffffffffffffffffffffffffff168152602001908152602001600020819055508173ffffffffffffffffffffffffffffffffffffffff16600073ffffffffffffffffffffffffffffffffffffffff167fddf252ad1be2c89b69c2b068fc378daa952ba7f163c4a11628f55a4df523b3ef836040518082815260200191505060405180910390a35050565b60008082840190508381101515156200035b57600080fd5b8091505092915050565b828054600181600116156101000203166002900490600052602060002090601f016020900481019282601f10620003a857805160ff1916838001178555620003d9565b82800160010185558215620003d9579182015b82811115620003d8578251825591602001919060010190620003bb565b5b509050620003e89190620003ec565b5090565b6200041191905b808211156200040d576000816000905550600101620003f3565b5090565b90565b61245380620004246000396000f3fe608060405260043610610133576000357c0100000000000000000000000000000000000000000000000000000000900463ffffffff16806306f82b5d1461013857806306fdde031461026f578063095ea7b3146102ff57806313af40351461037257806316c38b3c146103db57806318160ddd1461043057806323b872dd1461045b5780632d0335ab146104ee578063313ce56714610553578063395093511461058457806340c10f19146105f757806370a082311461066a5780637910cded146106cf578063881967f9146106fa578063893d20e81461072557806395d89b411461077c578063a3410d7d1461080c578063a457c2d714610871578063a9059cbb146108e4578063be69f60514610957578063c7fc391414610a69578063cc6d493814610aa4578063dd62ed3e14610bdb575b600080fd5b34801561014457600080fd5b50610255600480360361018081101561015c57600080fd5b81019080803573ffffffffffffffffffffffffffffffffffffffff169060200190929190803573ffffffffffffffffffffffffffffffffffffffff1690602001909291908035906020019092919080608001906004806020026040519081016040528092919082600460200280828437600081840152601f19601f820116905080830192505050505050919291929080604001906002806020026040519081016040528092919082600260200280828437600081840152601f19601f8201169050808301925050505050509192919290803560ff1690602001909291908035906020019092919080359060200190929190505050610c60565b604051808215151515815260200191505060405180910390f35b34801561027b57600080fd5b506102846113df565b6040518080602001828103825283818151815260200191508051906020019080838360005b838110156102c45780820151818401526020810190506102a9565b50505050905090810190601f1680156102f15780820380516001836020036101000a031916815260200191505b509250505060405180910390f35b34801561030b57600080fd5b506103586004803603604081101561032257600080fd5b81019080803573ffffffffffffffffffffffffffffffffffffffff16906020019092919080359060200190929190505050611481565b604051808215151515815260200191505060405180910390f35b34801561037e57600080fd5b506103c16004803603602081101561039557600080fd5b81019080803573ffffffffffffffffffffffffffffffffffffffff1690602001909291905050506114b1565b604051808215151515815260200191505060405180910390f35b3480156103e757600080fd5b50610416600480360360208110156103fe57600080fd5b8101908080351515906020019092919050505061153d565b604051808215151515815260200191505060405180910390f35b34801561043c57600080fd5b506104456115ad565b6040518082815260200191505060405180910390f35b34801561046757600080fd5b506104d46004803603606081101561047e57600080fd5b81019080803573ffffffffffffffffffffffffffffffffffffffff169060200190929190803573ffffffffffffffffffffffffffffffffffffffff169060200190929190803590602001909291905050506115b7565b604051808215151515815260200191505060405180910390f35b3480156104fa57600080fd5b5061053d6004803603602081101561051157600080fd5b81019080803573ffffffffffffffffffffffffffffffffffffffff1690602001909291905050506115e9565b6040518082815260200191505060405180910390f35b34801561055f57600080fd5b50610568611631565b604051808260ff1660ff16815260200191505060405180910390f35b34801561059057600080fd5b506105dd600480360360408110156105a757600080fd5b81019080803573ffffffffffffffffffffffffffffffffffffffff16906020019092919080359060200190929190505050611648565b604051808215151515815260200191505060405180910390f35b34801561060357600080fd5b506106506004803603604081101561061a57600080fd5b81019080803573ffffffffffffffffffffffffffffffffffffffff16906020019092919080359060200190929190505050611678565b604051808215151515815260200191505060405180910390f35b34801561067657600080fd5b506106b96004803603602081101561068d57600080fd5b81019080803573ffffffffffffffffffffffffffffffffffffffff169060200190929190505050611706565b6040518082815260200191505060405180910390f35b3480156106db57600080fd5b506106e461174f565b6040518082815260200191505060405180910390f35b34801561070657600080fd5b5061070f611755565b6040518082815260200191505060405180910390f35b34801561073157600080fd5b5061073a61177c565b604051808273ffffffffffffffffffffffffffffffffffffffff1673ffffffffffffffffffffffffffffffffffffffff16815260200191505060405180910390f35b34801561078857600080fd5b506107916117a6565b6040518080602001828103825283818151815260200191508051906020019080838360005b838110156107d15780820151818401526020810190506107b6565b50505050905090810190601f1680156107fe5780820380516001836020036101000a031916815260200191505b509250505060405180910390f35b34801561081857600080fd5b5061085b6004803603602081101561082f57600080fd5b81019080803573ffffffffffffffffffffffffffffffffffffffff169060200190929190505050611848565b6040518082815260200191505060405180910390f35b34801561087d57600080fd5b506108ca6004803603604081101561089457600080fd5b81019080803573ffffffffffffffffffffffffffffffffffffffff16906020019092919080359060200190929190505050611891565b604051808215151515815260200191505060405180910390f35b3480156108f057600080fd5b5061093d6004803603604081101561090757600080fd5b81019080803573ffffffffffffffffffffffffffffffffffffffff169060200190929190803590602001909291905050506118c1565b604051808215151515815260200191505060405180910390f35b34801561096357600080fd5b50610a53600480360361012081101561097b57600080fd5b81019080803573ffffffffffffffffffffffffffffffffffffffff169060200190929190803573ffffffffffffffffffffffffffffffffffffffff1690602001909291908035906020019092919080608001906004806020026040519081016040528092919082600460200280828437600081840152601f19601f820116905080830192505050505050919291929080604001906002806020026040519081016040528092919082600260200280828437600081840152601f19601f82011690508083019250505050505091929192905050506118f1565b6040518082815260200191505060405180910390f35b348015610a7557600080fd5b50610aa260048036036020811015610a8c57600080fd5b8101908080359060200190929190505050611aee565b005b348015610ab057600080fd5b50610bc16004803603610180811015610ac857600080fd5b81019080803573ffffffffffffffffffffffffffffffffffffffff169060200190929190803573ffffffffffffffffffffffffffffffffffffffff1690602001909291908035906020019092919080608001906004806020026040519081016040528092919082600460200280828437600081840152601f19601f820116905080830192505050505050919291929080604001906002806020026040519081016040528092919082600260200280828437600081840152601f19601f8201169050808301925050505050509192919290803560ff1690602001909291908035906020019092919080359060200190929190505050611b35565b604051808215151515815260200191505060405180910390f35b348015610be757600080fd5b50610c4a60048036036040811015610bfe57600080fd5b81019080803573ffffffffffffffffffffffffffffffffffffffff169060200190929190803573ffffffffffffffffffffffffffffffffffffffff169060200190929190505050611b71565b6040518082815260200191505060405180910390f35b6000805a9050600073ffffffffffffffffffffffffffffffffffffffff16866000600281101515610c8d57fe5b602002015173ffffffffffffffffffffffffffffffffffffffff161480610cf257503373ffffffffffffffffffffffffffffffffffffffff16866000600281101515610cd557fe5b602002015173ffffffffffffffffffffffffffffffffffffffff16145b1515610d66576040517f08c379a000000000000000000000000000000000000000000000000000000000815260040180806020018281038252600d8152602001807f77726f6e672072656c617965720000000000000000000000000000000000000081525060200191505060405180910390fd5b600254876001600481101515610d7857fe5b60200201510181111515610df4576040517f08c379a00000000000000000000000000000000000000000000000000000000081526004018080602001828103825260158152602001807f6e6f7420656e6f756768742067617320676976656e000000000000000000000081525060200191505060405180910390fd5b866003600481101515610e0357fe5b6020020151610e5a60016000808e73ffffffffffffffffffffffffffffffffffffffff1673ffffffffffffffffffffffffffffffffffffffff16815260200190815260200160002054611bf890919063ffffffff16565b141515610ecf576040517f08c379a00000000000000000000000000000000000000000000000000000000081526004018080602001828103825260128152602001807f6e6f6e6365206f7574206f66206f72646572000000000000000000000000000081525060200191505060405180910390fd5b6000610f38886002600481101515610ee357fe5b6020020151610f2a670de0b6b3a7640000610f1c8c6001600481101515610f0657fe5b6020020151600254611bf890919063ffffffff16565b611c1990919063ffffffff16565b611c5790919063ffffffff16565b9050610f4d818a611bf890919063ffffffff16565b610f568c611706565b10151515610fcc576040517f08c379a00000000000000000000000000000000000000000000000000000000081526004018080602001828103825260188152602001807f5f66726f6d206e6f7420656e6f7567682062616c616e6365000000000000000081525060200191505060405180910390fd5b876000600481101515610fdb57fe5b60200201513a141515611056576040517f08c379a000000000000000000000000000000000000000000000000000000000815260040180806020018281038252601b8152602001807f676173507269636520213d207369676e6572206761735072696365000000000081525060200191505060405180910390fd5b600061106d6110688d8d8d8d8d6118f1565b611c81565b9050600060018289898960405160008152602001604052604051808581526020018460ff1660ff1681526020018381526020018281526020019450505050506020604051602081039080840390855afa1580156110ce573d6000803e3d6000fd5b5050506020604051035190508c73ffffffffffffffffffffffffffffffffffffffff168173ffffffffffffffffffffffffffffffffffffffff1614151561117d576040517f08c379a000000000000000000000000000000000000000000000000000000000815260040180806020018281038252600f8152602001807f7369676e657220213d205f66726f6d000000000000000000000000000000000081525060200191505060405180910390fd5b6111868c611cd9565b156112bb578b73ffffffffffffffffffffffffffffffffffffffff16631035fb5c8e8d6040518363ffffffff167c0100000000000000000000000000000000000000000000000000000000028152600401808373ffffffffffffffffffffffffffffffffffffffff1673ffffffffffffffffffffffffffffffffffffffff16815260200182815260200192505050602060405180830381600087803b15801561122e57600080fd5b505af1158015611242573d6000803e3d6000fd5b505050506040513d602081101561125857600080fd5b81019080805190602001909291905050501561127e576112798d8d8d611cf2565b6112b6565b7fabfd711ecdd15ae3a6b3ad16ff2e9d81aec026a39d16725ee164be4fbf857a7c826040518082815260200191505060405180910390a15b6112c7565b6112c68d8d8d611cf2565b5b8960036004811015156112d657fe5b60200201516000808f73ffffffffffffffffffffffffffffffffffffffff1673ffffffffffffffffffffffffffffffffffffffff1681526020019081526020016000208190555060006113aa8b600260048110151561133157fe5b602002015161139c670de0b6b3a764000061138e8f600060048110151561135457fe5b60200201516113805a6113726002548e611bf890919063ffffffff16565b611ec290919063ffffffff16565b611c1990919063ffffffff16565b611c1990919063ffffffff16565b611c5790919063ffffffff16565b90506113ca8e8b60016002811015156113bf57fe5b602002015183611cf2565b60019550505050505098975050505050505050565b606060078054600181600116156101000203166002900480601f0160208091040260200160405190810160405280929190818152602001828054600181600116156101000203166002900480156114775780601f1061144c57610100808354040283529160200191611477565b820191906000526020600020905b81548152906001019060200180831161145a57829003601f168201915b5050505050905090565b6000600660149054906101000a900460ff1615151561149f57600080fd5b6114a98383611ee4565b905092915050565b6000600660149054906101000a900460ff161515156114cf57600080fd5b3373ffffffffffffffffffffffffffffffffffffffff16600660009054906101000a900473ffffffffffffffffffffffffffffffffffffffff1673ffffffffffffffffffffffffffffffffffffffff1614151561152b57600080fd5b61153482611efb565b60019050919050565b60003373ffffffffffffffffffffffffffffffffffffffff16600660009054906101000a900473ffffffffffffffffffffffffffffffffffffffff1673ffffffffffffffffffffffffffffffffffffffff1614151561159b57600080fd5b6115a482611f3f565b60019050919050565b6000600554905090565b6000600660149054906101000a900460ff161515156115d557600080fd5b6115e0848484611f5c565b90509392505050565b60008060008373ffffffffffffffffffffffffffffffffffffffff1673ffffffffffffffffffffffffffffffffffffffff168152602001908152602001600020549050919050565b6000600960009054906101000a900460ff16905090565b6000600660149054906101000a900460ff1615151561166657600080fd5b611670838361200d565b905092915050565b6000600660149054906101000a900460ff1615151561169657600080fd5b3373ffffffffffffffffffffffffffffffffffffffff16600660009054906101000a900473ffffffffffffffffffffffffffffffffffffffff1673ffffffffffffffffffffffffffffffffffffffff161415156116f257600080fd5b6116fc83836120b2565b6001905092915050565b6000600360008373ffffffffffffffffffffffffffffffffffffffff1673ffffffffffffffffffffffffffffffffffffffff168152602001908152602001600020549050919050565b60025481565b7f199aa146523304760a88092ee1dd338a68f10185375827f1e838ab5e9bd1622b60010281565b6000600660009054906101000a900473ffffffffffffffffffffffffffffffffffffffff16905090565b606060088054600181600116156101000203166002900480601f01602080910402602001604051908101604052809291908181526020018280546001816001161561010002031660029004801561183e5780601f106118135761010080835404028352916020019161183e565b820191906000526020600020905b81548152906001019060200180831161182157829003601f168201915b5050505050905090565b6000600160008373ffffffffffffffffffffffffffffffffffffffff1673ffffffffffffffffffffffffffffffffffffffff168152602001908152602001600020549050919050565b6000600660149054906101000a900460ff161515156118af57600080fd5b6118b98383612208565b905092915050565b6000600660149054906101000a900460ff161515156118df57600080fd5b6118e983836122ad565b905092915050565b60007f199aa146523304760a88092ee1dd338a68f10185375827f1e838ab5e9bd1622b60010286868686600060048110151561192957fe5b602002015187600160048110151561193d57fe5b602002015188600260048110151561195157fe5b602002015189600360048110151561196557fe5b602002015189600060028110151561197957fe5b60200201518a600160028110151561198d57fe5b6020020151604051602001808b81526020018a73ffffffffffffffffffffffffffffffffffffffff1673ffffffffffffffffffffffffffffffffffffffff166c010000000000000000000000000281526014018973ffffffffffffffffffffffffffffffffffffffff1673ffffffffffffffffffffffffffffffffffffffff166c010000000000000000000000000281526014018881526020018781526020018681526020018581526020018481526020018373ffffffffffffffffffffffffffffffffffffffff1673ffffffffffffffffffffffffffffffffffffffff166c010000000000000000000000000281526014018273ffffffffffffffffffffffffffffffffffffffff1673ffffffffffffffffffffffffffffffffffffffff166c010000000000000000000000000281526014019a505050505050505050505060405160208183030381529060405280519060200120905095945050505050565b80600160003373ffffffffffffffffffffffffffffffffffffffff1673ffffffffffffffffffffffffffffffffffffffff1681526020019081526020016000208190555050565b6000600660149054906101000a900460ff16151515611b5357600080fd5b611b638989898989898989610c60565b905098975050505050505050565b6000600460008473ffffffffffffffffffffffffffffffffffffffff1673ffffffffffffffffffffffffffffffffffffffff16815260200190815260200160002060008373ffffffffffffffffffffffffffffffffffffffff1673ffffffffffffffffffffffffffffffffffffffff16815260200190815260200160002054905092915050565b6000808284019050838110151515611c0f57600080fd5b8091505092915050565b600080831415611c2c5760009050611c51565b60008284029050828482811515611c3f57fe5b04141515611c4c57600080fd5b809150505b92915050565b60008082111515611c6757600080fd5b60008284811515611c7457fe5b0490508091505092915050565b60008160405160200180807f19457468657265756d205369676e6564204d6573736167653a0a333200000000815250601c01828152602001915050604051602081830303815290604052805190602001209050919050565b600080823b905060008163ffffffff1611915050919050565b600073ffffffffffffffffffffffffffffffffffffffff168273ffffffffffffffffffffffffffffffffffffffff1614151515611d2e57600080fd5b611d8081600360008673ffffffffffffffffffffffffffffffffffffffff1673ffffffffffffffffffffffffffffffffffffffff16815260200190815260200160002054611ec290919063ffffffff16565b600360008573ffffffffffffffffffffffffffffffffffffffff1673ffffffffffffffffffffffffffffffffffffffff16815260200190815260200160002081905550611e1581600360008573ffffffffffffffffffffffffffffffffffffffff1673ffffffffffffffffffffffffffffffffffffffff16815260200190815260200160002054611bf890919063ffffffff16565b600360008473ffffffffffffffffffffffffffffffffffffffff1673ffffffffffffffffffffffffffffffffffffffff168152602001908152602001600020819055508173ffffffffffffffffffffffffffffffffffffffff168373ffffffffffffffffffffffffffffffffffffffff167fddf252ad1be2c89b69c2b068fc378daa952ba7f163c4a11628f55a4df523b3ef836040518082815260200191505060405180910390a3505050565b6000828211151515611ed357600080fd5b600082840390508091505092915050565b6000611ef13384846122c4565b6001905092915050565b80600660006101000a81548173ffffffffffffffffffffffffffffffffffffffff021916908373ffffffffffffffffffffffffffffffffffffffff16021790555050565b80600660146101000a81548160ff02191690831515021790555050565b6000611f69848484611cf2565b6120028433611ffd85600460008a73ffffffffffffffffffffffffffffffffffffffff1673ffffffffffffffffffffffffffffffffffffffff16815260200190815260200160002060003373ffffffffffffffffffffffffffffffffffffffff1673ffffffffffffffffffffffffffffffffffffffff16815260200190815260200160002054611ec290919063ffffffff16565b6122c4565b600190509392505050565b60006120a833846120a385600460003373ffffffffffffffffffffffffffffffffffffffff1673ffffffffffffffffffffffffffffffffffffffff16815260200190815260200160002060008973ffffffffffffffffffffffffffffffffffffffff1673ffffffffffffffffffffffffffffffffffffffff16815260200190815260200160002054611bf890919063ffffffff16565b6122c4565b6001905092915050565b600073ffffffffffffffffffffffffffffffffffffffff168273ffffffffffffffffffffffffffffffffffffffff16141515156120ee57600080fd5b61210381600554611bf890919063ffffffff16565b60058190555061215b81600360008573ffffffffffffffffffffffffffffffffffffffff1673ffffffffffffffffffffffffffffffffffffffff16815260200190815260200160002054611bf890919063ffffffff16565b600360008473ffffffffffffffffffffffffffffffffffffffff1673ffffffffffffffffffffffffffffffffffffffff168152602001908152602001600020819055508173ffffffffffffffffffffffffffffffffffffffff16600073ffffffffffffffffffffffffffffffffffffffff167fddf252ad1be2c89b69c2b068fc378daa952ba7f163c4a11628f55a4df523b3ef836040518082815260200191505060405180910390a35050565b60006122a3338461229e85600460003373ffffffffffffffffffffffffffffffffffffffff1673ffffffffffffffffffffffffffffffffffffffff16815260200190815260200160002060008973ffffffffffffffffffffffffffffffffffffffff1673ffffffffffffffffffffffffffffffffffffffff16815260200190815260200160002054611ec290919063ffffffff16565b6122c4565b6001905092915050565b60006122ba338484611cf2565b6001905092915050565b600073ffffffffffffffffffffffffffffffffffffffff168273ffffffffffffffffffffffffffffffffffffffff161415151561230057600080fd5b600073ffffffffffffffffffffffffffffffffffffffff168373ffffffffffffffffffffffffffffffffffffffff161415151561233c57600080fd5b80600460008573ffffffffffffffffffffffffffffffffffffffff1673ffffffffffffffffffffffffffffffffffffffff16815260200190815260200160002060008473ffffffffffffffffffffffffffffffffffffffff1673ffffffffffffffffffffffffffffffffffffffff168152602001908152602001600020819055508173ffffffffffffffffffffffffffffffffffffffff168373ffffffffffffffffffffffffffffffffffffffff167f8c5be1e5ebec7d5bd14f71427d1e84f3dd0314c0f7b2291e5b200ac8c7c3b925836040518082815260200191505060405180910390a350505056fea165627a7a72305820630aa651dd454e06f90c9ed8ebd6f12fae86a2e35462c1fe722331719a31f5700029",
  "source": "pragma solidity 0.5.0;\n\nimport \"./ERC20MetaTx.sol\";\nimport \"./ERC20Base.sol\";\n\n/**\n * @title Token token\n * @dev \n */\n\ncontract Token is ERC20MetaTx, ERC20Base { \n\n    string private _name;\n    string private _symbol;\n    uint8  private _decimals;\n\n    constructor(string memory name, string memory symbol, uint8 decimals, uint256 _value) public {\n        _name = name;\n        _symbol = symbol;\n        _decimals = decimals;\n        _setOwner(msg.sender);\n        _mint(msg.sender, _value);\n    }\n\n    // override\n    function transferMetaTxs(\n        address _from, \n        address _to,  \n        uint256 _amount, \n        uint256[4] memory _inputs, // 0 => _gasPrice, 1 => _gasLimit, 2 => _gasTokenPerWei, 3 => _nonce\n        address[2] memory _providers, // 0 => _relayer, 1 => _tokenReceiver\n        uint8   _v,\n        bytes32 _r,\n        bytes32 _s\n    ) public notPaused returns (bool) {\n        return super.transferMetaTx(\n            _from, \n            _to, \n            _amount, \n            _inputs, \n            _providers,\n            _v,\n            _r,\n            _s\n        );\n    }\n    \n    /**\n     * @return the name of the token.\n     */\n    function name() public view returns (string memory) {\n        return _name;\n    }\n\n    /**\n     * @return the symbol of the token.\n     */\n    function symbol() public view returns (string memory) {\n        return _symbol;\n    }\n\n    /**\n     * @return the number of decimals of the token.\n     */\n    function decimals() public view returns (uint8) {\n        return _decimals;\n    }\n}",
  "sourcePath": "/Users/sengayusaku/repo/btc2eth1/contracts/Token/Token.sol",
  "compiler": {
    "name": "solc",
    "version": "0.5.0+commit.1d4f565a.Emscripten.clang"
  },
  "schemaVersion": "3.0.2",
  "updatedAt": "2019-03-21T17:35:44.904Z",
  "devdoc": {
    "methods": {
      "allowance(address,address)": {
        "details": "Function to check the amount of tokens that an owner allowed to a spender.",
        "params": {
          "owner": "address The address which owns the funds.",
          "spender": "address The address which will spend the funds."
        },
        "return": "A uint256 specifying the amount of tokens still available for the spender."
      },
      "balanceOf(address)": {
        "details": "Gets the balance of the specified address.",
        "params": {
          "owner": "The address to query the balance of."
        },
        "return": "A uint256 representing the amount owned by the passed address."
      },
      "decimals()": {
        "return": "the number of decimals of the token."
      },
      "name()": {
        "return": "the name of the token."
      },
      "symbol()": {
        "return": "the symbol of the token."
      },
      "totalSupply()": {
        "details": "Total number of tokens in existence"
      }
    },
    "title": "Token token"
  },
  "userdoc": {
    "methods": {}
  }
}