{
  "contractName": "Abstractable",
  "abi": [
    {
      "constant": true,
      "inputs": [
        {
          "name": "_code",
          "type": "bytes"
        },
        {
          "name": "_signer",
          "type": "address"
        },
        {
          "name": "_salt",
          "type": "uint256"
        }
      ],
      "name": "getContractAddress",
      "outputs": [
        {
          "name": "",
          "type": "address"
        }
      ],
      "payable": false,
      "stateMutability": "view",
      "type": "function"
    },
    {
      "constant": true,
      "inputs": [
        {
          "name": "_signer",
          "type": "address"
        },
        {
          "name": "_salt",
          "type": "uint256"
        }
      ],
      "name": "getDeployedAddress",
      "outputs": [
        {
          "name": "",
          "type": "address"
        }
      ],
      "payable": false,
      "stateMutability": "view",
      "type": "function"
    }
  ],
  "bytecode": "0x608060405234801561001057600080fd5b50610471806100206000396000f3fe608060405260043610610046576000357c0100000000000000000000000000000000000000000000000000000000900480635c0b5a711461004b578063c1227ddb1461017d575b600080fd5b34801561005757600080fd5b5061013b6004803603606081101561006e57600080fd5b810190808035906020019064010000000081111561008b57600080fd5b82018360208201111561009d57600080fd5b803590602001918460018302840111640100000000831117156100bf57600080fd5b91908080601f016020809104026020016040519081016040528093929190818152602001838380828437600081840152601f19601f820116905080830192505050505050509192919290803573ffffffffffffffffffffffffffffffffffffffff16906020019092919080359060200190929190505050610218565b604051808273ffffffffffffffffffffffffffffffffffffffff1673ffffffffffffffffffffffffffffffffffffffff16815260200191505060405180910390f35b34801561018957600080fd5b506101d6600480360360408110156101a057600080fd5b81019080803573ffffffffffffffffffffffffffffffffffffffff1690602001909291908035906020019092919050505061039a565b604051808273ffffffffffffffffffffffffffffffffffffffff1673ffffffffffffffffffffffffffffffffffffffff16815260200191505060405180910390f35b60008060ff7f010000000000000000000000000000000000000000000000000000000000000002308585604051602001808373ffffffffffffffffffffffffffffffffffffffff1673ffffffffffffffffffffffffffffffffffffffff166c010000000000000000000000000281526014018281526020019250505060405160208183030381529060405280519060200120878051906020012060405160200180857effffffffffffffffffffffffffffffffffffffffffffffffffffffffffffff19167effffffffffffffffffffffffffffffffffffffffffffffffffffffffffffff191681526001018473ffffffffffffffffffffffffffffffffffffffff1673ffffffffffffffffffffffffffffffffffffffff166c0100000000000000000000000002815260140183815260200182815260200194505050505060405160208183030381529060405280519060200120905060008073ffffffffffffffffffffffffffffffffffffffff905080831691508193505050509392505050565b6000808383604051602001808373ffffffffffffffffffffffffffffffffffffffff1673ffffffffffffffffffffffffffffffffffffffff166c010000000000000000000000000281526014018281526020019250505060405160208183030381529060405280519060200120905060008082815260200190815260200160002060009054906101000a900473ffffffffffffffffffffffffffffffffffffffff169150509291505056fea165627a7a72305820144efb10c3765c9f692f8bd9685d04156ca11e365ef7b76fbd97ff25901dc8a10029",
  "source": "pragma solidity 0.5.1;\n\n/**\n * @title Abstractable\n * @dev Implementation of the Abstractable contract\n */\n\ncontract Abstractable {\n\n    mapping(bytes32 => address) private permissions;\n\n    function getContractAddress(bytes memory _code, address _signer, uint256 _salt) public view returns (address) {\n        bytes32 result = keccak256(\n            abi.encodePacked(bytes1(0xff),\n            address(this),\n            keccak256(abi.encodePacked(_signer, _salt)),\n            keccak256(_code)\n            )\n        );\n        address ret;\n        uint mask = 2 ** 160 - 1;\n        // solhint-disable-next-line no-inline-assembly\n        assembly {\n            ret := and(result, mask)\n        }\n        return ret;\n    }\n\n    function getDeployedAddress(address _signer, uint256 _salt) public view returns (address) {\n        bytes32 actualHash = keccak256(abi.encodePacked(_signer, _salt));\n        return permissions[actualHash];\n    }\n\n    function _deployContract(bytes memory _code, address _signer, uint256 _salt) internal returns (address addr) {\n        bytes32 actualHash = keccak256(abi.encodePacked(_signer, _salt));\n        bool failed;\n        if (permissions[actualHash] != address(0x0)) {\n            return addr = address(0x0);\n        }\n        // solhint-disable-next-line no-inline-assembly\n        assembly {\n            addr := create2(0, add(_code, 0x20), mload(_code), actualHash)\n            failed := iszero(extcodesize(addr))\n        }\n        if (failed)\n            return addr = address(0x0);\n\n        permissions[actualHash] = addr;\n    }\n}",
  "sourcePath": "/Users/sengayusaku/repo/btc2eth1/contracts/Account/Abstractable.sol",
  "compiler": {
    "name": "solc",
    "version": "0.5.1+commit.c8a2cb62.Emscripten.clang"
  },
  "schemaVersion": "3.0.6",
  "updatedAt": "2019-04-12T09:27:05.656Z",
  "devdoc": {
    "details": "Implementation of the Abstractable contract",
    "methods": {},
    "title": "Abstractable"
  },
  "userdoc": {
    "methods": {}
  }
}