{
  "contractName": "Account",
  "abi": [
    {
      "inputs": [],
      "payable": false,
      "stateMutability": "nonpayable",
      "type": "constructor"
    },
    {
      "payable": true,
      "stateMutability": "payable",
      "type": "fallback"
    },
    {
      "anonymous": false,
      "inputs": [
        {
          "indexed": false,
          "name": "_sender",
          "type": "address"
        },
        {
          "indexed": false,
          "name": "_amount",
          "type": "uint256"
        }
      ],
      "name": "DepositEvent",
      "type": "event"
    },
    {
      "constant": false,
      "inputs": [
        {
          "name": "_token",
          "type": "address"
        },
        {
          "name": "_to",
          "type": "address"
        },
        {
          "name": "_value",
          "type": "uint256"
        },
        {
          "name": "_data",
          "type": "bytes"
        },
        {
          "name": "_txGas",
          "type": "uint256"
        }
      ],
      "name": "executeCall",
      "outputs": [
        {
          "name": "success",
          "type": "bool"
        }
      ],
      "payable": false,
      "stateMutability": "nonpayable",
      "type": "function"
    },
    {
      "constant": false,
      "inputs": [
        {
          "name": "_data",
          "type": "bytes"
        },
        {
          "name": "_salt",
          "type": "uint256"
        }
      ],
      "name": "executeCreate2",
      "outputs": [
        {
          "name": "deployed",
          "type": "address"
        }
      ],
      "payable": false,
      "stateMutability": "nonpayable",
      "type": "function"
    }
  ],
  "bytecode": "0x608060405234801561001057600080fd5b50336000806101000a81548173ffffffffffffffffffffffffffffffffffffffff021916908373ffffffffffffffffffffffffffffffffffffffff160217905550610550806100606000396000f3fe608060405260043610610046576000357c01000000000000000000000000000000000000000000000000000000009004806316419cbc146100b3578063ee653ef6146101c5575b7f2d8a08b6430a894aea608bcaa6013d5d3e263bc49110605e4d4ba76930ae5c293334604051808373ffffffffffffffffffffffffffffffffffffffff1673ffffffffffffffffffffffffffffffffffffffff1681526020018281526020019250505060405180910390a1005b3480156100bf57600080fd5b50610183600480360360408110156100d657600080fd5b81019080803590602001906401000000008111156100f357600080fd5b82018360208201111561010557600080fd5b8035906020019184600183028401116401000000008311171561012757600080fd5b91908080601f016020809104026020016040519081016040528093929190818152602001838380828437600081840152601f19601f820116905080830192505050505050509192919290803590602001909291905050506102f9565b604051808273ffffffffffffffffffffffffffffffffffffffff1673ffffffffffffffffffffffffffffffffffffffff16815260200191505060405180910390f35b3480156101d157600080fd5b506102df600480360360a08110156101e857600080fd5b81019080803573ffffffffffffffffffffffffffffffffffffffff169060200190929190803573ffffffffffffffffffffffffffffffffffffffff169060200190929190803590602001909291908035906020019064010000000081111561024f57600080fd5b82018360208201111561026157600080fd5b8035906020019184600183028401116401000000008311171561028357600080fd5b91908080601f016020809104026020016040519081016040528093929190818152602001838380828437600081840152601f19601f82011690508083019250505050505050919291929080359060200190929190505050610394565b604051808215151515815260200191505060405180910390f35b60008060009054906101000a900473ffffffffffffffffffffffffffffffffffffffff1673ffffffffffffffffffffffffffffffffffffffff163373ffffffffffffffffffffffffffffffffffffffff1614151561035657600080fd5b60008260405160200180828152602001915050604051602081830303815290604052805190602001209050808451602086016000f591505092915050565b60008060009054906101000a900473ffffffffffffffffffffffffffffffffffffffff1673ffffffffffffffffffffffffffffffffffffffff163373ffffffffffffffffffffffffffffffffffffffff161415156103f157600080fd5b600073ffffffffffffffffffffffffffffffffffffffff168673ffffffffffffffffffffffffffffffffffffffff16141561043a57600080845160208601878987f1905061051b565b8573ffffffffffffffffffffffffffffffffffffffff1663a9059cbb86866040518363ffffffff167c0100000000000000000000000000000000000000000000000000000000028152600401808373ffffffffffffffffffffffffffffffffffffffff1673ffffffffffffffffffffffffffffffffffffffff16815260200182815260200192505050602060405180830381600087803b1580156104dd57600080fd5b505af11580156104f1573d6000803e3d6000fd5b505050506040513d602081101561050757600080fd5b810190808051906020019092919050505090505b9594505050505056fea165627a7a72305820d66cad1c2408182e99ebfb443a8b703ce50861c9bf78ba6c1a218cec20dc5a590029",
  "source": "pragma solidity 0.5.1;\n\nimport \"../Token/IERC20.sol\";\n\n/**\n * @title Account\n * @dev Implementation of the Account contract\n * estimate gas = 445016 / 2gwei 0.000890032 eth\n */\n\ncontract Account {\n\n    address private sender;\n\n    event DepositEvent(address _sender, uint256 _amount);\n\n    constructor() public {\n        sender = msg.sender;\n    }\n\n    function () external payable {\n        emit DepositEvent(msg.sender, msg.value);\n    }\n\n    function executeCall(\n        address _token,\n        address _to,\n        uint256 _value,\n        bytes memory _data,\n        uint256 _txGas\n    ) public returns (bool success) {\n        require(msg.sender == sender);\n        if (_token == address(0x0)) {\n            // solhint-disable-next-line no-inline-assembly\n            assembly {\n                success := call(_txGas, _to, _value, add(_data, 0x20), mload(_data), 0, 0)\n            }\n        } else {\n            success = IERC20(_token).transfer(_to, _value);\n        }\n    }\n\n    function executeCreate2(bytes memory _data, uint256 _salt) public returns (address deployed) {\n        require(msg.sender == sender);\n        bytes32 actualHash = keccak256(abi.encodePacked(_salt));\n        // solhint-disable-next-line no-inline-assembly\n        assembly {\n            deployed := create2(0, add(_data, 0x20), mload(_data), actualHash)\n        }\n    }\n}",
  "sourcePath": "/Users/sengayusaku/repo/btc2eth1/contracts/Account/Account.sol",
  "compiler": {
    "name": "solc",
    "version": "0.5.1+commit.c8a2cb62.Emscripten.clang"
  },
  "schemaVersion": "3.0.6",
  "updatedAt": "2019-04-12T09:27:05.648Z",
  "devdoc": {
    "details": "Implementation of the Account contract estimate gas = 445016 / 2gwei 0.000890032 eth",
    "methods": {},
    "title": "Account"
  },
  "userdoc": {
    "methods": {}
  }
}