{
  "contractName": "AccountCaller",
  "abi": [
    {
      "constant": true,
      "inputs": [
        {
          "name": "_code",
          "type": "bytes"
        },
        {
          "name": "_signer",
          "type": "address"
        },
        {
          "name": "_salt",
          "type": "uint256"
        }
      ],
      "name": "getContractAddress",
      "outputs": [
        {
          "name": "",
          "type": "address"
        }
      ],
      "payable": false,
      "stateMutability": "view",
      "type": "function",
      "signature": "0x5c0b5a71"
    },
    {
      "constant": true,
      "inputs": [],
      "name": "accountByteCode",
      "outputs": [
        {
          "name": "",
          "type": "bytes"
        }
      ],
      "payable": false,
      "stateMutability": "view",
      "type": "function",
      "signature": "0x75574bd2"
    },
    {
      "constant": true,
      "inputs": [],
      "name": "DOMAIN_SEPARATOR_THASH",
      "outputs": [
        {
          "name": "",
          "type": "bytes32"
        }
      ],
      "payable": false,
      "stateMutability": "view",
      "type": "function",
      "signature": "0xa17ca996"
    },
    {
      "constant": true,
      "inputs": [
        {
          "name": "_signer",
          "type": "address"
        },
        {
          "name": "_salt",
          "type": "uint256"
        }
      ],
      "name": "getDeployedAddress",
      "outputs": [
        {
          "name": "",
          "type": "address"
        }
      ],
      "payable": false,
      "stateMutability": "view",
      "type": "function",
      "signature": "0xc1227ddb"
    },
    {
      "constant": true,
      "inputs": [],
      "name": "domainSeparator",
      "outputs": [
        {
          "name": "",
          "type": "bytes32"
        }
      ],
      "payable": false,
      "stateMutability": "view",
      "type": "function",
      "signature": "0xf698da25"
    },
    {
      "inputs": [
        {
          "name": "_accountByteCode",
          "type": "bytes"
        }
      ],
      "payable": false,
      "stateMutability": "nonpayable",
      "type": "constructor",
      "signature": "constructor"
    },
    {
      "anonymous": false,
      "inputs": [
        {
          "indexed": false,
          "name": "txHash",
          "type": "bytes32"
        }
      ],
      "name": "ExecutionFailed",
      "type": "event",
      "signature": "0xabfd711ecdd15ae3a6b3ad16ff2e9d81aec026a39d16725ee164be4fbf857a7c"
    },
    {
      "anonymous": false,
      "inputs": [
        {
          "indexed": false,
          "name": "signer",
          "type": "address"
        },
        {
          "indexed": false,
          "name": "addr",
          "type": "address"
        }
      ],
      "name": "Deployed",
      "type": "event",
      "signature": "0x09e48df7857bd0c1e0d31bb8a85d42cf1874817895f171c917f6ee2cea73ec20"
    },
    {
      "constant": false,
      "inputs": [
        {
          "name": "_signer",
          "type": "address"
        },
        {
          "name": "_salt",
          "type": "uint256"
        },
        {
          "name": "_to",
          "type": "address"
        },
        {
          "name": "_value",
          "type": "uint256"
        },
        {
          "name": "_data",
          "type": "bytes"
        },
        {
          "name": "_nonce",
          "type": "uint256"
        },
        {
          "name": "_gasToken",
          "type": "address"
        },
        {
          "name": "_gasPrice",
          "type": "uint256"
        },
        {
          "name": "_safeTxGas",
          "type": "uint256"
        },
        {
          "name": "_sig",
          "type": "bytes"
        }
      ],
      "name": "callWithDeploy",
      "outputs": [
        {
          "name": "success",
          "type": "bool"
        }
      ],
      "payable": false,
      "stateMutability": "nonpayable",
      "type": "function",
      "signature": "0xcfdc5fb8"
    },
    {
      "constant": false,
      "inputs": [
        {
          "name": "_token",
          "type": "address"
        },
        {
          "name": "_gasPrice",
          "type": "uint256"
        }
      ],
      "name": "setEstimateGasPrice",
      "outputs": [
        {
          "name": "",
          "type": "bool"
        }
      ],
      "payable": false,
      "stateMutability": "nonpayable",
      "type": "function",
      "signature": "0xc8c0d5ec"
    },
    {
      "constant": true,
      "inputs": [
        {
          "name": "_signer",
          "type": "address"
        },
        {
          "name": "_salt",
          "type": "uint256"
        },
        {
          "name": "_to",
          "type": "address"
        },
        {
          "name": "_value",
          "type": "uint256"
        },
        {
          "name": "_data",
          "type": "bytes"
        },
        {
          "name": "_nonce",
          "type": "uint256"
        },
        {
          "name": "_gasToken",
          "type": "address"
        },
        {
          "name": "_gasPrice",
          "type": "uint256"
        },
        {
          "name": "_safeTxGas",
          "type": "uint256"
        }
      ],
      "name": "getTxHash",
      "outputs": [
        {
          "name": "txHash",
          "type": "bytes32"
        }
      ],
      "payable": false,
      "stateMutability": "view",
      "type": "function",
      "signature": "0x91807d5e"
    },
    {
      "constant": true,
      "inputs": [
        {
          "name": "_signer",
          "type": "address"
        },
        {
          "name": "_salt",
          "type": "uint256"
        }
      ],
      "name": "getAccountAddress",
      "outputs": [
        {
          "name": "",
          "type": "address"
        }
      ],
      "payable": false,
      "stateMutability": "view",
      "type": "function",
      "signature": "0x0d253d76"
    },
    {
      "constant": true,
      "inputs": [
        {
          "name": "_token",
          "type": "address"
        },
        {
          "name": "_relayer",
          "type": "address"
        }
      ],
      "name": "getEstimateGasPrice",
      "outputs": [
        {
          "name": "",
          "type": "uint256"
        }
      ],
      "payable": false,
      "stateMutability": "view",
      "type": "function",
      "signature": "0x52251bd3"
    },
    {
      "constant": true,
      "inputs": [
        {
          "name": "_signer",
          "type": "address"
        }
      ],
      "name": "getNonce",
      "outputs": [
        {
          "name": "",
          "type": "uint256"
        }
      ],
      "payable": false,
      "stateMutability": "view",
      "type": "function",
      "signature": "0x2d0335ab"
    }
  ],
  "bytecode": "0x60806040523480156200001157600080fd5b506040516200200938038062002009833981018060405260208110156200003757600080fd5b8101908080516401000000008111156200005057600080fd5b828101905060208101848111156200006757600080fd5b81518560018202830111640100000000821117156200008557600080fd5b505092919050505060006001026002541415156200010b576040517f08c379a000000000000000000000000000000000000000000000000000000000815260040180806020018281038252601d8152602001807f446f6d61696e20536570617261746f7220616c7265616479207365742100000081525060200191505060405180910390fd5b7f035aff83d86937d35b32e04f0ddc6ff469290eef2f1b692d8a815c89404d474960010230604051602001808381526020018273ffffffffffffffffffffffffffffffffffffffff1673ffffffffffffffffffffffffffffffffffffffff16815260200192505050604051602081830303815290604052805190602001206002819055508060019080519060200190620001a7929190620001af565b50506200025e565b828054600181600116156101000203166002900490600052602060002090601f016020900481019282601f10620001f257805160ff191683800117855562000223565b8280016001018555821562000223579182015b828111156200022257825182559160200191906001019062000205565b5b50905062000232919062000236565b5090565b6200025b91905b80821115620002575760008160009055506001016200023d565b5090565b90565b611d9b806200026e6000396000f3fe6080604052600436106100a9576000357c0100000000000000000000000000000000000000000000000000000000900480630d253d76146100ae5780632d0335ab1461014957806352251bd3146101ae5780635c0b5a711461023357806375574bd21461036557806391807d5e146103f5578063a17ca99614610564578063c1227ddb1461058f578063c8c0d5ec1461062a578063cfdc5fb81461069d578063f698da25146108a7575b600080fd5b3480156100ba57600080fd5b50610107600480360360408110156100d157600080fd5b81019080803573ffffffffffffffffffffffffffffffffffffffff169060200190929190803590602001909291905050506108d2565b604051808273ffffffffffffffffffffffffffffffffffffffff1673ffffffffffffffffffffffffffffffffffffffff16815260200191505060405180910390f35b34801561015557600080fd5b506101986004803603602081101561016c57600080fd5b81019080803573ffffffffffffffffffffffffffffffffffffffff169060200190929190505050610981565b6040518082815260200191505060405180910390f35b3480156101ba57600080fd5b5061021d600480360360408110156101d157600080fd5b81019080803573ffffffffffffffffffffffffffffffffffffffff169060200190929190803573ffffffffffffffffffffffffffffffffffffffff1690602001909291905050506109ca565b6040518082815260200191505060405180910390f35b34801561023f57600080fd5b506103236004803603606081101561025657600080fd5b810190808035906020019064010000000081111561027357600080fd5b82018360208201111561028557600080fd5b803590602001918460018302840111640100000000831117156102a757600080fd5b91908080601f016020809104026020016040519081016040528093929190818152602001838380828437600081840152601f19601f820116905080830192505050505050509192919290803573ffffffffffffffffffffffffffffffffffffffff16906020019092919080359060200190929190505050610a51565b604051808273ffffffffffffffffffffffffffffffffffffffff1673ffffffffffffffffffffffffffffffffffffffff16815260200191505060405180910390f35b34801561037157600080fd5b5061037a610bd3565b6040518080602001828103825283818151815260200191508051906020019080838360005b838110156103ba57808201518184015260208101905061039f565b50505050905090810190601f1680156103e75780820380516001836020036101000a031916815260200191505b509250505060405180910390f35b34801561040157600080fd5b5061054e600480360361012081101561041957600080fd5b81019080803573ffffffffffffffffffffffffffffffffffffffff16906020019092919080359060200190929190803573ffffffffffffffffffffffffffffffffffffffff169060200190929190803590602001909291908035906020019064010000000081111561048a57600080fd5b82018360208201111561049c57600080fd5b803590602001918460018302840111640100000000831117156104be57600080fd5b91908080601f016020809104026020016040519081016040528093929190818152602001838380828437600081840152601f19601f82011690508083019250505050505050919291929080359060200190929190803573ffffffffffffffffffffffffffffffffffffffff1690602001909291908035906020019092919080359060200190929190505050610c71565b6040518082815260200191505060405180910390f35b34801561057057600080fd5b50610579610dcc565b6040518082815260200191505060405180910390f35b34801561059b57600080fd5b506105e8600480360360408110156105b257600080fd5b81019080803573ffffffffffffffffffffffffffffffffffffffff16906020019092919080359060200190929190505050610df3565b604051808273ffffffffffffffffffffffffffffffffffffffff1673ffffffffffffffffffffffffffffffffffffffff16815260200191505060405180910390f35b34801561063657600080fd5b506106836004803603604081101561064d57600080fd5b81019080803573ffffffffffffffffffffffffffffffffffffffff16906020019092919080359060200190929190505050610e9e565b604051808215151515815260200191505060405180910390f35b3480156106a957600080fd5b5061088d60048036036101408110156106c157600080fd5b81019080803573ffffffffffffffffffffffffffffffffffffffff16906020019092919080359060200190929190803573ffffffffffffffffffffffffffffffffffffffff169060200190929190803590602001909291908035906020019064010000000081111561073257600080fd5b82018360208201111561074457600080fd5b8035906020019184600183028401116401000000008311171561076657600080fd5b91908080601f016020809104026020016040519081016040528093929190818152602001838380828437600081840152601f19601f82011690508083019250505050505050919291929080359060200190929190803573ffffffffffffffffffffffffffffffffffffffff16906020019092919080359060200190929190803590602001909291908035906020019064010000000081111561080757600080fd5b82018360208201111561081957600080fd5b8035906020019184600183028401116401000000008311171561083b57600080fd5b91908080601f016020809104026020016040519081016040528093929190818152602001838380828437600081840152601f19601f820116905080830192505050505050509192919290505050610f2b565b604051808215151515815260200191505060405180910390f35b3480156108b357600080fd5b506108bc611889565b6040518082815260200191505060405180910390f35b600061097960018054600181600116156101000203166002900480601f01602080910402602001604051908101604052809291908181526020018280546001816001161561010002031660029004801561096d5780601f106109425761010080835404028352916020019161096d565b820191906000526020600020905b81548152906001019060200180831161095057829003601f168201915b50505050508484610a51565b905092915050565b6000600360008373ffffffffffffffffffffffffffffffffffffffff1673ffffffffffffffffffffffffffffffffffffffff168152602001908152602001600020549050919050565b6000600460008473ffffffffffffffffffffffffffffffffffffffff1673ffffffffffffffffffffffffffffffffffffffff16815260200190815260200160002060008373ffffffffffffffffffffffffffffffffffffffff1673ffffffffffffffffffffffffffffffffffffffff16815260200190815260200160002054905092915050565b60008060ff7f010000000000000000000000000000000000000000000000000000000000000002308585604051602001808373ffffffffffffffffffffffffffffffffffffffff1673ffffffffffffffffffffffffffffffffffffffff166c010000000000000000000000000281526014018281526020019250505060405160208183030381529060405280519060200120878051906020012060405160200180857effffffffffffffffffffffffffffffffffffffffffffffffffffffffffffff19167effffffffffffffffffffffffffffffffffffffffffffffffffffffffffffff191681526001018473ffffffffffffffffffffffffffffffffffffffff1673ffffffffffffffffffffffffffffffffffffffff166c0100000000000000000000000002815260140183815260200182815260200194505050505060405160208183030381529060405280519060200120905060008073ffffffffffffffffffffffffffffffffffffffff905080831691508193505050509392505050565b60018054600181600116156101000203166002900480601f016020809104026020016040519081016040528092919081815260200182805460018160011615610100020316600290048015610c695780601f10610c3e57610100808354040283529160200191610c69565b820191906000526020600020905b815481529060010190602001808311610c4c57829003601f168201915b505050505081565b60006002548a8a8a8a8a805190602001208a8a8a8a604051602001808a73ffffffffffffffffffffffffffffffffffffffff1673ffffffffffffffffffffffffffffffffffffffff1681526020018981526020018873ffffffffffffffffffffffffffffffffffffffff1673ffffffffffffffffffffffffffffffffffffffff1681526020018781526020018681526020018581526020018473ffffffffffffffffffffffffffffffffffffffff1673ffffffffffffffffffffffffffffffffffffffff16815260200183815260200182815260200199505050505050505050506040516020818303038152906040528051906020012060405160200180807f1901000000000000000000000000000000000000000000000000000000000000815250600201838152602001828152602001925050506040516020818303038152906040528051906020012090509998505050505050505050565b7f035aff83d86937d35b32e04f0ddc6ff469290eef2f1b692d8a815c89404d474960010281565b6000808383604051602001808373ffffffffffffffffffffffffffffffffffffffff1673ffffffffffffffffffffffffffffffffffffffff166c010000000000000000000000000281526014018281526020019250505060405160208183030381529060405280519060200120905060008082815260200190815260200160002060009054906101000a900473ffffffffffffffffffffffffffffffffffffffff1691505092915050565b600081600460008573ffffffffffffffffffffffffffffffffffffffff1673ffffffffffffffffffffffffffffffffffffffff16815260200190815260200160002060003373ffffffffffffffffffffffffffffffffffffffff1673ffffffffffffffffffffffffffffffffffffffff168152602001908152602001600020819055506001905092915050565b6000805a90506000610fd860018054600181600116156101000203166002900480601f016020809104026020016040519081016040528092919081815260200182805460018160011615610100020316600290048015610fcc5780601f10610fa157610100808354040283529160200191610fcc565b820191906000526020600020905b815481529060010190602001808311610faf57829003601f168201915b50505050508e8e610a51565b90508482111515611051576040517f08c379a00000000000000000000000000000000000000000000000000000000081526004018080602001828103825260158152602001807f6e6f7420656e6f756768742067617320676976656e000000000000000000000081525060200191505060405180910390fd5b87600360008f73ffffffffffffffffffffffffffffffffffffffff1673ffffffffffffffffffffffffffffffffffffffff16815260200190815260200160002054141515611107576040517f08c379a00000000000000000000000000000000000000000000000000000000081526004018080602001828103825260128152602001807f6e6f6e6365206f7574206f66206f72646572000000000000000000000000000081525060200191505060405180910390fd5b61111a868661188f90919063ffffffff16565b8773ffffffffffffffffffffffffffffffffffffffff166370a08231836040518263ffffffff167c0100000000000000000000000000000000000000000000000000000000028152600401808273ffffffffffffffffffffffffffffffffffffffff1673ffffffffffffffffffffffffffffffffffffffff16815260200191505060206040518083038186803b1580156111b357600080fd5b505afa1580156111c7573d6000803e3d6000fd5b505050506040513d60208110156111dd57600080fd5b810190808051906020019092919050505010151515611264576040517f08c379a000000000000000000000000000000000000000000000000000000000815260040180806020018281038252601d8152602001807f5f63616c6c6572206861736e277420656e6f7567682062616c616e636500000081525060200191505060405180910390fd5b60006112778e8e8e8e8e8e8e8e8e610c71565b905061128381866118cd565b73ffffffffffffffffffffffffffffffffffffffff168e73ffffffffffffffffffffffffffffffffffffffff16141515611325576040517f08c379a000000000000000000000000000000000000000000000000000000000815260040180806020018281038252600f8152602001807f7369676e657220213d205f66726f6d000000000000000000000000000000000081525060200191505060405180910390fd5b611330828f8f6119af565b600073ffffffffffffffffffffffffffffffffffffffff168c73ffffffffffffffffffffffffffffffffffffffff1614156115485760008273ffffffffffffffffffffffffffffffffffffffff16636f8a176e8c6040518263ffffffff167c01000000000000000000000000000000000000000000000000000000000281526004018080602001828103825283818151815260200191508051906020019080838360005b838110156113ef5780820151818401526020810190506113d4565b50505050905090810190601f16801561141c5780820380516001836020036101000a031916815260200191505b5092505050602060405180830381600087803b15801561143b57600080fd5b505af115801561144f573d6000803e3d6000fd5b505050506040513d602081101561146557600080fd5b81019080805190602001909291905050509050600073ffffffffffffffffffffffffffffffffffffffff168173ffffffffffffffffffffffffffffffffffffffff16141594507f09e48df7857bd0c1e0d31bb8a85d42cf1874817895f171c917f6ee2cea73ec208f82604051808373ffffffffffffffffffffffffffffffffffffffff1673ffffffffffffffffffffffffffffffffffffffff1681526020018273ffffffffffffffffffffffffffffffffffffffff1673ffffffffffffffffffffffffffffffffffffffff1681526020019250505060405180910390a1506116d3565b8173ffffffffffffffffffffffffffffffffffffffff1663ee653ef660008e8e8e886040518663ffffffff167c0100000000000000000000000000000000000000000000000000000000028152600401808673ffffffffffffffffffffffffffffffffffffffff1673ffffffffffffffffffffffffffffffffffffffff1681526020018573ffffffffffffffffffffffffffffffffffffffff1673ffffffffffffffffffffffffffffffffffffffff16815260200184815260200180602001838152602001828103825284818151815260200191508051906020019080838360005b8381101561164557808201518184015260208101905061162a565b50505050905090810190601f1680156116725780820380516001836020036101000a031916815260200191505b509650505050505050602060405180830381600087803b15801561169557600080fd5b505af11580156116a9573d6000803e3d6000fd5b505050506040513d60208110156116bf57600080fd5b810190808051906020019092919050505093505b831515611712577fabfd711ecdd15ae3a6b3ad16ff2e9d81aec026a39d16725ee164be4fbf857a7c816040518082815260200191505060405180910390a15b61171b8e611b34565b506000611743886117355a87611bd590919063ffffffff16565b61188f90919063ffffffff16565b90508273ffffffffffffffffffffffffffffffffffffffff1663ee653ef68a3384886040518563ffffffff167c0100000000000000000000000000000000000000000000000000000000028152600401808573ffffffffffffffffffffffffffffffffffffffff1673ffffffffffffffffffffffffffffffffffffffff1681526020018473ffffffffffffffffffffffffffffffffffffffff1673ffffffffffffffffffffffffffffffffffffffff1681526020018381526020018060200183815260200182810382526000815260200160200195505050505050602060405180830381600087803b15801561183857600080fd5b505af115801561184c573d6000803e3d6000fd5b505050506040513d602081101561186257600080fd5b810190808051906020019092919050505050849450505050509a9950505050505050505050565b60025481565b6000808314156118a257600090506118c7565b600082840290508284828115156118b557fe5b041415156118c257600080fd5b809150505b92915050565b6000604182511415156118e357600090506119a9565b60008060006020850151925060408501519150606085015160001a9050601b8160ff16101561191357601b810190505b601b8160ff161415801561192b5750601c8160ff1614155b1561193c57600093505050506119a9565b60018682858560405160008152602001604052604051808581526020018460ff1660ff1681526020018381526020018281526020019450505050506020604051602081039080840390855afa158015611999573d6000803e3d6000fd5b5050506020604051035193505050505b92915050565b6119b98282610df3565b73ffffffffffffffffffffffffffffffffffffffff168373ffffffffffffffffffffffffffffffffffffffff16141515611b2f576000611a9460018054600181600116156101000203166002900480601f016020809104026020016040519081016040528092919081815260200182805460018160011615610100020316600290048015611a885780601f10611a5d57610100808354040283529160200191611a88565b820191906000526020600020905b815481529060010190602001808311611a6b57829003601f168201915b50505050508484611bf7565b90507f09e48df7857bd0c1e0d31bb8a85d42cf1874817895f171c917f6ee2cea73ec208382604051808373ffffffffffffffffffffffffffffffffffffffff1673ffffffffffffffffffffffffffffffffffffffff1681526020018273ffffffffffffffffffffffffffffffffffffffff1673ffffffffffffffffffffffffffffffffffffffff1681526020019250505060405180910390a1505b505050565b6000611b896001600360008573ffffffffffffffffffffffffffffffffffffffff1673ffffffffffffffffffffffffffffffffffffffff16815260200190815260200160002054611d4e90919063ffffffff16565b600360008473ffffffffffffffffffffffffffffffffffffffff1673ffffffffffffffffffffffffffffffffffffffff1681526020019081526020016000208190555060019050919050565b6000828211151515611be657600080fd5b600082840390508091505092915050565b6000808383604051602001808373ffffffffffffffffffffffffffffffffffffffff1673ffffffffffffffffffffffffffffffffffffffff166c0100000000000000000000000002815260140182815260200192505050604051602081830303815290604052805190602001209050600073ffffffffffffffffffffffffffffffffffffffff1660008083815260200190815260200160002060009054906101000a900473ffffffffffffffffffffffffffffffffffffffff1673ffffffffffffffffffffffffffffffffffffffff16141515611cdb576000915081915050611d47565b808551602087016000f59150813b1515611cf457600080fd5b8160008083815260200190815260200160002060006101000a81548173ffffffffffffffffffffffffffffffffffffffff021916908373ffffffffffffffffffffffffffffffffffffffff160217905550505b9392505050565b6000808284019050838110151515611d6557600080fd5b809150509291505056fea165627a7a723058204af3e200a73a3af611460870eca095b232149820412a01631c7bc10a908b042b0029",
  "source": "pragma solidity 0.5.1;\n\nimport \"../Utils/SigUtil.sol\";\nimport \"../Utils/SafeMath.sol\";\nimport \"../Token/IERC20.sol\";\nimport \"./Abstractable.sol\";\nimport \"./Account.sol\";\n\n/**\n * @title AccountCaller\n * @dev Implementation of the AccountCaller contract\n */\n\ncontract AccountCaller is Abstractable {\n    using SafeMath for uint256;\n\n    //keccak256(\n    //    \"EIP712Domain(address verifyingContract)\"\n    //);\n    bytes32 public constant DOMAIN_SEPARATOR_THASH = 0x035aff83d86937d35b32e04f0ddc6ff469290eef2f1b692d8a815c89404d4749;\n\n    bytes   public accountByteCode;\n    bytes32 public domainSeparator;\n    mapping(address => uint256) private nonces;\n    mapping(address => mapping(address => uint256)) private gasBooks;\n\n    event ExecutionFailed(bytes32 txHash);\n    event Deployed(address signer, address addr);\n\n    constructor(bytes memory _accountByteCode) public {\n        require(domainSeparator == 0, \"Domain Separator already set!\");\n        domainSeparator = keccak256(abi.encode(DOMAIN_SEPARATOR_THASH, this));\n        accountByteCode = _accountByteCode;\n    }\n\n    function callWithDeploy(\n        address      _signer,       // only supoprt EOA ECDSA sign\n        uint256      _salt,\n        address      _to,           // deploy contract via call, if _to == 0x0\n        uint256      _value,\n        bytes memory _data,\n        uint256      _nonce,\n        address      _gasToken,\n        uint256      _gasPrice,\n        uint256      _safeTxGas,\n        bytes memory _sig\n    ) public returns (bool success) {\n        uint256 initialGas = gasleft();\n        // validate params\n        address payable account = address(uint160(getContractAddress(accountByteCode, _signer, _salt)));\n\n        require(initialGas > _safeTxGas, \"not enought gas given\");\n        // check nonce amount\n        require(nonces[_signer] == _nonce, \"nonce out of order\");\n        // calculate estimate fee\n        require(IERC20(_gasToken).balanceOf(account) >= _safeTxGas.mul(_gasPrice), \"_caller hasn't enough balance\");\n\n        bytes32 txHash = getTxHash(_signer, _salt, _to, _value, _data, _nonce, _gasToken, _gasPrice, _safeTxGas);\n\n        require(_signer == SigUtil.recover(txHash, _sig), \"signer != _from\");\n\n        _initAccount(account, _signer, _salt);\n\n        if (_to == address(0x0)) {\n            address deployed = Account(account).executeCreate(_data);\n            success = deployed != address(0);\n            emit Deployed(_signer, deployed);\n        } else {\n            success = Account(account).executeCall(address(0x0), _to, _value, _data, initialGas);\n        }\n\n        if (!success) {\n            emit ExecutionFailed(txHash);\n        }\n        _updateNonce(_signer);\n        uint256 tokenFees = initialGas.sub(gasleft()).mul(_gasPrice);\n        // transfer fees\n        Account(account).executeCall(_gasToken, msg.sender, tokenFees, \"\", initialGas);\n        return success;\n    }\n\n    function setEstimateGasPrice(address _token, uint256 _gasPrice) public returns(bool) {\n        gasBooks[_token][msg.sender] = _gasPrice;\n        return true;\n    }\n\n    function getTxHash(\n        address      _signer,       // only supoprt EOA ECDSA sign\n        uint256      _salt,\n        address      _to,           // deploy contract via call, if _to == 0x0\n        uint256      _value,\n        bytes memory _data,\n        uint256      _nonce,\n        address      _gasToken,\n        uint256      _gasPrice,\n        uint256      _safeTxGas\n    ) public view returns (bytes32 txHash) {\n        txHash = keccak256(abi.encodePacked(\n            \"\\x19\\x01\",\n            domainSeparator,\n            keccak256(abi.encode(\n                _signer,\n                _salt,\n                _to,\n                _value,\n                keccak256(_data),\n                _nonce,\n                _gasToken,\n                _gasPrice,\n                _safeTxGas\n            ))\n        ));\n    }\n\n    function getAccountAddress(address _signer, uint256 _salt) public view returns (address) {\n        return getContractAddress(accountByteCode, _signer, _salt);\n    }\n\n    function getEstimateGasPrice(address _token, address _relayer) public view returns (uint256) {\n        return gasBooks[_token][_relayer];\n    }\n\n    function getNonce(address _signer) public view returns (uint256) {\n        return nonces[_signer];\n    }\n\n    function _updateNonce(address _signer) internal returns (bool) {\n        nonces[_signer] = nonces[_signer].add(1);\n        return true;\n    }\n\n    function _initAccount(address account, address _signer, uint256 _salt) internal {\n        if (account != getDeployedAddress(_signer, _salt)) {\n            address deployed = _deployContract(accountByteCode, _signer, _salt);\n            emit Deployed(_signer, deployed);\n        }\n    }\n}",
  "sourcePath": "/Users/sengayusaku/repo/btc2eth1/contracts/Account/AccountCaller.sol",
  "compiler": {
    "name": "solc",
    "version": "0.5.1+commit.c8a2cb62.Emscripten.clang"
  },
  "schemaVersion": "3.0.6",
  "updatedAt": "2019-04-11T14:50:45.745Z",
  "devdoc": {
    "details": "Implementation of the AccountCaller contract",
    "methods": {},
    "title": "AccountCaller"
  },
  "userdoc": {
    "methods": {}
  }
}