{
  "contractName": "AddressManager",
  "abi": [
    {
      "constant": true,
      "inputs": [
        {
          "name": "_user",
          "type": "address"
        },
        {
          "name": "_pubkey",
          "type": "bytes"
        }
      ],
      "name": "checkUserPubkey",
      "outputs": [
        {
          "name": "",
          "type": "bool"
        }
      ],
      "payable": false,
      "stateMutability": "pure",
      "type": "function"
    },
    {
      "constant": true,
      "inputs": [
        {
          "name": "user",
          "type": "address"
        },
        {
          "name": "publicXPoint",
          "type": "bytes32"
        },
        {
          "name": "publicYPoint",
          "type": "bytes32"
        }
      ],
      "name": "checkEthPubKey",
      "outputs": [
        {
          "name": "",
          "type": "bool"
        }
      ],
      "payable": false,
      "stateMutability": "pure",
      "type": "function"
    }
  ],
  "bytecode": "0x608060405234801561001057600080fd5b5061028d806100206000396000f3fe608060405260043610610046576000357c0100000000000000000000000000000000000000000000000000000000900480631789a3861461004b5780638fa20c93146100c8575b600080fd5b34801561005757600080fd5b506100ae6004803603606081101561006e57600080fd5b81019080803573ffffffffffffffffffffffffffffffffffffffff16906020019092919080359060200190929190803590602001909291905050506101c8565b604051808215151515815260200191505060405180910390f35b3480156100d457600080fd5b506101ae600480360360408110156100eb57600080fd5b81019080803573ffffffffffffffffffffffffffffffffffffffff1690602001909291908035906020019064010000000081111561012857600080fd5b82018360208201111561013a57600080fd5b8035906020019184600183028401116401000000008311171561015c57600080fd5b91908080601f016020809104026020016040519081016040528093929190818152602001838380828437600081840152601f19601f820116905080830192505050505050509192919290505050610239565b604051808215151515815260200191505060405180910390f35b60008083836040516020018083815260200182815260200192505050604051602081830303815290604052805190602001206001900490508473ffffffffffffffffffffffffffffffffffffffff1673ffffffffffffffffffffffffffffffffffffffff8216149150509392505050565b600080600060208401519150604084015190506102578583836101c8565b925050509291505056fea165627a7a723058200476b70d982528675a6ed97ab8313f9519368df5a87c9cc7caa58f02f54d9a430029",
  "source": "pragma solidity 0.5.1;\n\n\ncontract AddressManager {\n\n    /**\n     * @dev\n     * @param _user _user\n     * @param _pubkey _pubkey\n     * @return boolean\n     */\n    function checkUserPubkey(address _user, bytes memory _pubkey) public pure returns (bool) {\n        bytes32 pointX;\n        bytes32 pointY;\n\n        assembly {\n            pointX := mload(add(_pubkey, 32))\n            pointY := mload(add(_pubkey, 64))\n        }\n\n        return checkEthPubKey(_user, pointX, pointY);\n    }\n\n    /**\n     * @dev\n     * @param user user\n     * @param publicXPoint publicXPoint\n     * @param publicYPoint publicYPoint\n     * @return boolean\n     */\n    function checkEthPubKey(\n        address user,\n        bytes32 publicXPoint,\n        bytes32 publicYPoint\n    )\n\n    /**\n     * @dev\n     * @return boolean\n     */\n    public pure returns(bool) {\n        uint hashBytes = uint(keccak256(abi.encodePacked(publicXPoint, publicYPoint)));\n        return hashBytes & 0x00FFFFFFFFFFFFFFFFFFFFFFFFFFFFFFFFFFFFFFFF == uint(user);\n    }\n}\n",
  "sourcePath": "/Users/sengayusaku/repo/btc2eth1/contracts/Utils/addressManager.sol",
  "compiler": {
    "name": "solc",
    "version": "0.5.1+commit.c8a2cb62.Emscripten.clang"
  },
  "schemaVersion": "3.0.6",
  "updatedAt": "2019-04-10T06:17:21.730Z",
  "devdoc": {
    "methods": {
      "checkEthPubKey(address,bytes32,bytes32)": {
        "details": "@param user user",
        "params": {
          "publicXPoint": "publicXPoint",
          "publicYPoint": "publicYPoint"
        },
        "return": "boolean"
      },
      "checkUserPubkey(address,bytes)": {
        "details": "@param _user _user",
        "params": {
          "_pubkey": "_pubkey"
        },
        "return": "boolean"
      }
    }
  },
  "userdoc": {
    "methods": {}
  }
}