{
  "contractName": "Btc2eth1",
  "abi": [
    {
      "constant": true,
      "inputs": [
        {
          "name": "user",
          "type": "address"
        },
        {
          "name": "publicXPoint",
          "type": "bytes32"
        },
        {
          "name": "publicYPoint",
          "type": "bytes32"
        }
      ],
      "name": "checkEthPubKey",
      "outputs": [
        {
          "name": "",
          "type": "bool"
        }
      ],
      "payable": false,
      "stateMutability": "pure",
      "type": "function"
    },
    {
      "constant": true,
      "inputs": [],
      "name": "owner",
      "outputs": [
        {
          "name": "",
          "type": "address"
        }
      ],
      "payable": false,
      "stateMutability": "view",
      "type": "function"
    },
    {
      "constant": true,
      "inputs": [
        {
          "name": "_user",
          "type": "address"
        },
        {
          "name": "_pubkey",
          "type": "bytes"
        }
      ],
      "name": "checkUserPubkey",
      "outputs": [
        {
          "name": "",
          "type": "bool"
        }
      ],
      "payable": false,
      "stateMutability": "pure",
      "type": "function"
    },
    {
      "constant": true,
      "inputs": [],
      "name": "isPaused",
      "outputs": [
        {
          "name": "",
          "type": "bool"
        }
      ],
      "payable": false,
      "stateMutability": "view",
      "type": "function"
    },
    {
      "inputs": [
        {
          "name": "_btct",
          "type": "address"
        },
        {
          "name": "_stma",
          "type": "address"
        },
        {
          "name": "_step",
          "type": "uint256"
        }
      ],
      "payable": false,
      "stateMutability": "nonpayable",
      "type": "constructor"
    },
    {
      "anonymous": false,
      "inputs": [
        {
          "indexed": true,
          "name": "own",
          "type": "address"
        },
        {
          "indexed": false,
          "name": "wsh",
          "type": "bytes32"
        }
      ],
      "name": "AddWshEvent",
      "type": "event"
    },
    {
      "anonymous": false,
      "inputs": [
        {
          "indexed": true,
          "name": "own",
          "type": "address"
        },
        {
          "indexed": false,
          "name": "ipf",
          "type": "bytes32"
        }
      ],
      "name": "KeepEvent",
      "type": "event"
    },
    {
      "anonymous": false,
      "inputs": [
        {
          "indexed": false,
          "name": "wsh",
          "type": "bytes32"
        },
        {
          "indexed": false,
          "name": "lsh",
          "type": "bytes32"
        },
        {
          "indexed": false,
          "name": "sats",
          "type": "uint256"
        },
        {
          "indexed": false,
          "name": "end",
          "type": "uint256"
        },
        {
          "indexed": false,
          "name": "txOne",
          "type": "bytes32"
        }
      ],
      "name": "EntangleOneEvent",
      "type": "event"
    },
    {
      "constant": false,
      "inputs": [
        {
          "name": "_ipf",
          "type": "bytes32"
        }
      ],
      "name": "keep",
      "outputs": [],
      "payable": false,
      "stateMutability": "nonpayable",
      "type": "function"
    },
    {
      "constant": false,
      "inputs": [
        {
          "name": "_wsh",
          "type": "bytes32"
        }
      ],
      "name": "addWsh",
      "outputs": [],
      "payable": false,
      "stateMutability": "nonpayable",
      "type": "function"
    },
    {
      "constant": false,
      "inputs": [
        {
          "name": "_wsh",
          "type": "bytes32"
        },
        {
          "name": "_lsh",
          "type": "bytes32"
        },
        {
          "name": "_sats",
          "type": "uint256"
        },
        {
          "name": "_end",
          "type": "uint256"
        },
        {
          "name": "_txOne",
          "type": "bytes32"
        }
      ],
      "name": "entangleOne",
      "outputs": [],
      "payable": false,
      "stateMutability": "nonpayable",
      "type": "function"
    },
    {
      "constant": false,
      "inputs": [
        {
          "name": "_wsh",
          "type": "bytes32"
        },
        {
          "name": "_txA",
          "type": "bytes32"
        }
      ],
      "name": "entangleA",
      "outputs": [],
      "payable": false,
      "stateMutability": "nonpayable",
      "type": "function"
    },
    {
      "constant": false,
      "inputs": [
        {
          "name": "_wsh",
          "type": "bytes32"
        }
      ],
      "name": "approveStepAB",
      "outputs": [],
      "payable": false,
      "stateMutability": "nonpayable",
      "type": "function"
    },
    {
      "constant": false,
      "inputs": [
        {
          "name": "_wsh",
          "type": "bytes32"
        },
        {
          "name": "_lsh",
          "type": "bytes32"
        },
        {
          "name": "_sats",
          "type": "uint256"
        },
        {
          "name": "_end",
          "type": "uint256"
        },
        {
          "name": "_txB",
          "type": "bytes32"
        },
        {
          "name": "_txA",
          "type": "bytes32"
        }
      ],
      "name": "pon",
      "outputs": [],
      "payable": false,
      "stateMutability": "nonpayable",
      "type": "function"
    },
    {
      "constant": false,
      "inputs": [
        {
          "name": "_wsh",
          "type": "bytes32"
        },
        {
          "name": "_sats",
          "type": "uint256"
        },
        {
          "name": "_end",
          "type": "uint256"
        },
        {
          "name": "_txB",
          "type": "bytes32"
        }
      ],
      "name": "gon",
      "outputs": [],
      "payable": false,
      "stateMutability": "nonpayable",
      "type": "function"
    },
    {
      "constant": false,
      "inputs": [
        {
          "name": "_wsh",
          "type": "bytes32"
        },
        {
          "name": "_sats",
          "type": "uint256"
        },
        {
          "name": "_end",
          "type": "uint256"
        },
        {
          "name": "_txB",
          "type": "bytes32"
        }
      ],
      "name": "ponLsh",
      "outputs": [],
      "payable": false,
      "stateMutability": "nonpayable",
      "type": "function"
    },
    {
      "constant": false,
      "inputs": [
        {
          "name": "_paused",
          "type": "bool"
        }
      ],
      "name": "setPaused",
      "outputs": [],
      "payable": false,
      "stateMutability": "nonpayable",
      "type": "function"
    },
    {
      "constant": true,
      "inputs": [
        {
          "name": "_wsh",
          "type": "bytes32"
        }
      ],
      "name": "getWshMap",
      "outputs": [
        {
          "name": "",
          "type": "address"
        }
      ],
      "payable": false,
      "stateMutability": "view",
      "type": "function"
    },
    {
      "constant": true,
      "inputs": [
        {
          "name": "_wsh",
          "type": "bytes32"
        }
      ],
      "name": "getCount",
      "outputs": [
        {
          "name": "",
          "type": "uint256"
        }
      ],
      "payable": false,
      "stateMutability": "view",
      "type": "function"
    },
    {
      "constant": true,
      "inputs": [
        {
          "name": "_who",
          "type": "address"
        }
      ],
      "name": "getKeep",
      "outputs": [
        {
          "name": "",
          "type": "bytes32"
        }
      ],
      "payable": false,
      "stateMutability": "view",
      "type": "function"
    }
  ],
  "bytecode": "0x608060405234801561001057600080fd5b50604051606080611c038339810180604052606081101561003057600080fd5b8101908080519060200190929190805190602001909291908051906020019092919050505082600860006101000a81548173ffffffffffffffffffffffffffffffffffffffff021916908373ffffffffffffffffffffffffffffffffffffffff16021790555081600960006101000a81548173ffffffffffffffffffffffffffffffffffffffff021916908373ffffffffffffffffffffffffffffffffffffffff16021790555080600a819055506100f6336100fe640100000000026401000000009004565b505050610141565b806000806101000a81548173ffffffffffffffffffffffffffffffffffffffff021916908373ffffffffffffffffffffffffffffffffffffffff16021790555050565b611ab3806101506000396000f3fe6080604052600436106100e0576000357c010000000000000000000000000000000000000000000000000000000090048063050de925146100e557806316c38b3c146101525780631789a3861461018f5780633465b7871461020c57806336c767f9146102475780636c7eaf6d146102a05780638da5cb5b146102f95780638fa20c93146103505780639d01a5a614610450578063b187bd261461048b578063c8897243146104ba578063c9d6fee91461051d578063cb2b34791461056c578063d5c35c4a146105e7578063d9fa59de14610622578063ff8f10b914610667575b600080fd5b3480156100f157600080fd5b50610150600480360360c081101561010857600080fd5b810190808035906020019092919080359060200190929190803590602001909291908035906020019092919080359060200190929190803590602001909291905050506106cc565b005b34801561015e57600080fd5b5061018d6004803603602081101561017557600080fd5b8101908080351515906020019092919050505061099d565b005b34801561019b57600080fd5b506101f2600480360360608110156101b257600080fd5b81019080803573ffffffffffffffffffffffffffffffffffffffff1690602001909291908035906020019092919080359060200190929190505050610ad5565b604051808215151515815260200191505060405180910390f35b34801561021857600080fd5b506102456004803603602081101561022f57600080fd5b8101908080359060200190929190505050610b46565b005b34801561025357600080fd5b5061029e6004803603608081101561026a57600080fd5b8101908080359060200190929190803590602001909291908035906020019092919080359060200190929190505050610bf7565b005b3480156102ac57600080fd5b506102f7600480360360808110156102c357600080fd5b8101908080359060200190929190803590602001909291908035906020019092919080359060200190929190505050610c84565b005b34801561030557600080fd5b5061030e610fc5565b604051808273ffffffffffffffffffffffffffffffffffffffff1673ffffffffffffffffffffffffffffffffffffffff16815260200191505060405180910390f35b34801561035c57600080fd5b506104366004803603604081101561037357600080fd5b81019080803573ffffffffffffffffffffffffffffffffffffffff169060200190929190803590602001906401000000008111156103b057600080fd5b8201836020820111156103c257600080fd5b803590602001918460018302840111640100000000831117156103e457600080fd5b91908080601f016020809104026020016040519081016040528093929190818152602001838380828437600081840152601f19601f820116905080830192505050505050509192919290505050610fee565b604051808215151515815260200191505060405180910390f35b34801561045c57600080fd5b506104896004803603602081101561047357600080fd5b8101908080359060200190929190505050611016565b005b34801561049757600080fd5b506104a0611269565b604051808215151515815260200191505060405180910390f35b3480156104c657600080fd5b5061051b600480360360a08110156104dd57600080fd5b81019080803590602001909291908035906020019092919080359060200190929190803590602001909291908035906020019092919050505061127f565b005b34801561052957600080fd5b506105566004803603602081101561054057600080fd5b810190808035906020019092919050505061153e565b6040518082815260200191505060405180910390f35b34801561057857600080fd5b506105a56004803603602081101561058f57600080fd5b810190808035906020019092919050505061155b565b604051808273ffffffffffffffffffffffffffffffffffffffff1673ffffffffffffffffffffffffffffffffffffffff16815260200191505060405180910390f35b3480156105f357600080fd5b506106206004803603602081101561060a57600080fd5b8101908080359060200190929190505050611598565b005b34801561062e57600080fd5b506106656004803603604081101561064557600080fd5b810190808035906020019092919080359060200190929190505050611747565b005b34801561067357600080fd5b506106b66004803603602081101561068a57600080fd5b81019080803573ffffffffffffffffffffffffffffffffffffffff169060200190929190505050611a00565b6040518082815260200191505060405180910390f35b600060149054906101000a900460ff161515156106e857600080fd5b6000868686868633604051602001808781526020018681526020018581526020018481526020018381526020018273ffffffffffffffffffffffffffffffffffffffff1673ffffffffffffffffffffffffffffffffffffffff166c010000000000000000000000000281526014019650505050505050604051602081830303815290604052805190602001209050600087828433604051602001808581526020018481526020018381526020018273ffffffffffffffffffffffffffffffffffffffff1673ffffffffffffffffffffffffffffffffffffffff166c0100000000000000000000000002815260140194505050505060405160208183030381529060405280519060200120905081600360008a81526020019081526020016000205414151561081557600080fd5b80600460008a81526020019081526020016000205414151561083657600080fd5b600a54600560008a8152602001908152602001600020541015151561085a57600080fd5b600860009054906101000a900473ffffffffffffffffffffffffffffffffffffffff1673ffffffffffffffffffffffffffffffffffffffff166340c10f1933886040518363ffffffff167c0100000000000000000000000000000000000000000000000000000000028152600401808373ffffffffffffffffffffffffffffffffffffffff1673ffffffffffffffffffffffffffffffffffffffff16815260200182815260200192505050602060405180830381600087803b15801561091f57600080fd5b505af1158015610933573d6000803e3d6000fd5b505050506040513d602081101561094957600080fd5b8101908080519060200190929190505050507fffffffffffffffffffffffffffffffffffffffffffffffffffffffffffffffff600560008a8152602001908152602001600020819055505050505050505050565b3373ffffffffffffffffffffffffffffffffffffffff166000809054906101000a900473ffffffffffffffffffffffffffffffffffffffff1673ffffffffffffffffffffffffffffffffffffffff161415156109f857600080fd5b610a0181611a49565b600860009054906101000a900473ffffffffffffffffffffffffffffffffffffffff1673ffffffffffffffffffffffffffffffffffffffff166316c38b3c826040518263ffffffff167c01000000000000000000000000000000000000000000000000000000000281526004018082151515158152602001915050602060405180830381600087803b158015610a9657600080fd5b505af1158015610aaa573d6000803e3d6000fd5b505050506040513d6020811015610ac057600080fd5b81019080805190602001909291905050505050565b60008083836040516020018083815260200182815260200192505050604051602081830303815290604052805190602001206001900490508473ffffffffffffffffffffffffffffffffffffffff1673ffffffffffffffffffffffffffffffffffffffff8216149150509392505050565b600060149054906101000a900460ff16151515610b6257600080fd5b80600760003373ffffffffffffffffffffffffffffffffffffffff1673ffffffffffffffffffffffffffffffffffffffff168152602001908152602001600020819055503373ffffffffffffffffffffffffffffffffffffffff167fb765be34e57545df1454df4311b3be51db91aefd3701bb8d77079cdee4150236826040518082815260200191505060405180910390a250565b60008484848433604051602001808681526020018581526020018481526020018381526020018273ffffffffffffffffffffffffffffffffffffffff1673ffffffffffffffffffffffffffffffffffffffff166c01000000000000000000000000028152601401955050505050506040516020818303038152906040528051906020012090505050505050565b600060149054906101000a900460ff16151515610ca057600080fd5b60008484848433604051602001808681526020018581526020018481526020018381526020018273ffffffffffffffffffffffffffffffffffffffff1673ffffffffffffffffffffffffffffffffffffffff166c0100000000000000000000000002815260140195505050505050604051602081830303815290604052805190602001209050806003600087815260200190815260200160002054141515610d4757600080fd5b7fffffffffffffffffffffffffffffffffffffffffffffffffffffffffffffffff6005600087815260200190815260200160002054141515610d8857600080fd5b600860009054906101000a900473ffffffffffffffffffffffffffffffffffffffff1673ffffffffffffffffffffffffffffffffffffffff166323b872dd3330876040518463ffffffff167c0100000000000000000000000000000000000000000000000000000000028152600401808473ffffffffffffffffffffffffffffffffffffffff1673ffffffffffffffffffffffffffffffffffffffff1681526020018373ffffffffffffffffffffffffffffffffffffffff1673ffffffffffffffffffffffffffffffffffffffff1681526020018281526020019350505050602060405180830381600087803b158015610e8157600080fd5b505af1158015610e95573d6000803e3d6000fd5b505050506040513d6020811015610eab57600080fd5b810190808051906020019092919050505050600860009054906101000a900473ffffffffffffffffffffffffffffffffffffffff1673ffffffffffffffffffffffffffffffffffffffff16639dc29fac30866040518363ffffffff167c0100000000000000000000000000000000000000000000000000000000028152600401808373ffffffffffffffffffffffffffffffffffffffff1673ffffffffffffffffffffffffffffffffffffffff16815260200182815260200192505050602060405180830381600087803b158015610f8257600080fd5b505af1158015610f96573d6000803e3d6000fd5b505050506040513d6020811015610fac57600080fd5b8101908080519060200190929190505050505050505050565b60008060009054906101000a900473ffffffffffffffffffffffffffffffffffffffff16905090565b6000806000602084015191506040840151905061100c858383610ad5565b9250505092915050565b600060149054906101000a900460ff1615151561103257600080fd5b600073ffffffffffffffffffffffffffffffffffffffff166002600083815260200190815260200160002060009054906101000a900473ffffffffffffffffffffffffffffffffffffffff1673ffffffffffffffffffffffffffffffffffffffff161415151561110a576040517f08c379a000000000000000000000000000000000000000000000000000000000815260040180806020018281038252600e8152602001807f777368206973206e6f742030783000000000000000000000000000000000000081525060200191505060405180910390fd5b6000600102600360008381526020019081526020016000205414151515611199576040517f08c379a00000000000000000000000000000000000000000000000000000000081526004018080602001828103825260138152602001807f77736820697320616c726561647920757365640000000000000000000000000081525060200191505060405180910390fd5b6000600102600460008381526020019081526020016000205414151515611228576040517f08c379a00000000000000000000000000000000000000000000000000000000081526004018080602001828103825260138152602001807f77736820697320616c726561647920757365640000000000000000000000000081525060200191505060405180910390fd5b61124f60016005600084815260200190815260200160002054611a6690919063ffffffff16565b600560008381526020019081526020016000208190555050565b60008060149054906101000a900460ff16905090565b600060149054906101000a900460ff1615151561129b57600080fd5b600073ffffffffffffffffffffffffffffffffffffffff166002600087815260200190815260200160002060009054906101000a900473ffffffffffffffffffffffffffffffffffffffff1673ffffffffffffffffffffffffffffffffffffffff1614151515611373576040517f08c379a000000000000000000000000000000000000000000000000000000000815260040180806020018281038252600e8152602001807f777368206973206e6f742030783000000000000000000000000000000000000081525060200191505060405180910390fd5b60006001026003600087815260200190815260200160002054141515611401576040517f08c379a000000000000000000000000000000000000000000000000000000000815260040180806020018281038252601e8152602001807f77736820697320616c7265616479207573656420666f72206c656e646572000081525060200191505060405180910390fd5b848484848433604051602001808781526020018681526020018581526020018481526020018381526020018273ffffffffffffffffffffffffffffffffffffffff1673ffffffffffffffffffffffffffffffffffffffff166c0100000000000000000000000002815260140196505050505050506040516020818303038152906040528051906020012060036000878152602001908152602001600020819055506114c960016005600088815260200190815260200160002054611a6690919063ffffffff16565b60056000878152602001908152602001600020819055507f1578b8289accf8dfbfc82dccb7c1ed00315cc92798f88298ff0146898af5c9048585858585604051808681526020018581526020018481526020018381526020018281526020019550505050505060405180910390a15050505050565b600060056000838152602001908152602001600020549050919050565b60006002600083815260200190815260200160002060009054906101000a900473ffffffffffffffffffffffffffffffffffffffff169050919050565b600060149054906101000a900460ff161515156115b457600080fd5b600073ffffffffffffffffffffffffffffffffffffffff166002600083815260200190815260200160002060009054906101000a900473ffffffffffffffffffffffffffffffffffffffff1673ffffffffffffffffffffffffffffffffffffffff1614151561168b576040517f08c379a000000000000000000000000000000000000000000000000000000000815260040180806020018281038252600a8152602001807f777368206973203078300000000000000000000000000000000000000000000081525060200191505060405180910390fd5b336002600083815260200190815260200160002060006101000a81548173ffffffffffffffffffffffffffffffffffffffff021916908373ffffffffffffffffffffffffffffffffffffffff160217905550600060056000838152602001908152602001600020819055503373ffffffffffffffffffffffffffffffffffffffff167fcccdeb83e1735c85bece7135fc03d0fe6c2bccd7c3d54ce8431e21d21aa12f25826040518082815260200191505060405180910390a250565b600060149054906101000a900460ff1615151561176357600080fd5b600073ffffffffffffffffffffffffffffffffffffffff166002600084815260200190815260200160002060009054906101000a900473ffffffffffffffffffffffffffffffffffffffff1673ffffffffffffffffffffffffffffffffffffffff161415151561183b576040517f08c379a000000000000000000000000000000000000000000000000000000000815260040180806020018281038252600e8152602001807f777368206973206e6f742030783000000000000000000000000000000000000081525060200191505060405180910390fd5b60006001026003600084815260200190815260200160002054141515156118ca576040517f08c379a00000000000000000000000000000000000000000000000000000000081526004018080602001828103825260138152602001807f77736820697320616c726561647920757365640000000000000000000000000081525060200191505060405180910390fd5b60006001026004600084815260200190815260200160002054141515611958576040517f08c379a00000000000000000000000000000000000000000000000000000000081526004018080602001828103825260138152602001807f77736820697320616c726561647920757365640000000000000000000000000081525060200191505060405180910390fd5b8160036000848152602001908152602001600020548233604051602001808581526020018481526020018381526020018273ffffffffffffffffffffffffffffffffffffffff1673ffffffffffffffffffffffffffffffffffffffff166c010000000000000000000000000281526014019450505050506040516020818303038152906040528051906020012060046000848152602001908152602001600020819055505050565b6000600760008373ffffffffffffffffffffffffffffffffffffffff1673ffffffffffffffffffffffffffffffffffffffff168152602001908152602001600020549050919050565b80600060146101000a81548160ff02191690831515021790555050565b6000808284019050838110151515611a7d57600080fd5b809150509291505056fea165627a7a72305820ae3add7095281c12ec08fbce51fea42b1a9bc7dbfbc208392da7741fa9db91b40029",
  "source": "pragma solidity 0.5.1;\n\nimport \"./Utils/SigUtil.sol\";\nimport \"./Utils/SafeMath.sol\";\nimport \"./Utils/Role.sol\";\nimport \"./Utils/AddressManager.sol\";\nimport \"./Token/IToken.sol\";\nimport \"./IStakeManager.sol\";\n\n\ncontract Btc2eth1 is AddressManager, Role {\n    using SafeMath for uint256;\n\n    mapping(bytes32 => bytes32) private orders;\n    mapping(bytes32 => address) private wshmap; // sha256 hash\n    mapping(bytes32 => bytes32) private lender;\n    mapping(bytes32 => bytes32) private minter;\n    mapping(bytes32 => uint256) private counts;\n    mapping(bytes32 => uint256) private minted;\n    mapping(address => bytes32) private stored;\n\n    IToken private          btct;\n    IStakeManager private   stma;\n    uint256 private         step;\n\n    constructor (address _btct, address _stma, uint256 _step) public {\n        btct = IToken(_btct);\n        stma = IStakeManager(_stma);\n        step = _step;\n        _setOwner(msg.sender);\n    }\n\n    // infrom updated wsh to other witness via ipfs\n    function keep(bytes32 _ipf) public notPaused {\n        //require(sm.isSWC(msg.sender), \"msg.sender != witness\");\n        stored[msg.sender] = _ipf;\n        emit KeepEvent(msg.sender, _ipf);\n    }\n\n    // witness leader submit _wsh\n    function addWsh(bytes32 _wsh) public notPaused {\n        require(wshmap[_wsh] == address(0x0), \"wsh is 0x0\");\n        wshmap[_wsh] = msg.sender;\n        counts[_wsh] = 0;\n        emit AddWshEvent(msg.sender, _wsh);\n    }\n\n    // lender htlc -> Witness secret -> go to treasury. Expired -> Bob pubkey -> refund\n    // minter htlc -> bob secret -> refund to alice, Expired ->  go to treasury\n    // signed by minter\n    function entangleOne(bytes32 _wsh, bytes32 _lsh, uint256 _sats, uint256 _end, bytes32 _txOne) public notPaused {\n        require(wshmap[_wsh] != address(0x0), \"wsh is not 0x0\");\n        require(lender[_wsh] == 0x0, \"wsh is already used for lender\");\n        lender[_wsh] = keccak256(abi.encodePacked(_wsh, _lsh, _sats, _end, _txOne, msg.sender));\n        counts[_wsh] = counts[_wsh].add(1);\n        emit EntangleOneEvent(_wsh, _lsh, _sats, _end, _txOne);\n    }\n\n    function entangleA(bytes32 _wsh, bytes32 _txA) public notPaused {\n        require(wshmap[_wsh] != address(0x0), \"wsh is not 0x0\");\n        require(lender[_wsh] != 0x0, \"wsh is already used\");\n        require(minter[_wsh] == 0x0, \"wsh is already used\");\n        minter[_wsh] = keccak256(abi.encodePacked(_wsh, lender[_wsh], _txA, msg.sender));\n    }\n\n    function approveStepAB(bytes32 _wsh) public notPaused {\n        require(wshmap[_wsh] != address(0x0), \"wsh is not 0x0\");\n        require(lender[_wsh] != 0x0, \"wsh is already used\");\n        require(minter[_wsh] != 0x0, \"wsh is already used\");\n        counts[_wsh] = counts[_wsh].add(1);\n    }\n\n    function pon(bytes32 _wsh, bytes32 _lsh, uint256 _sats, uint256 _end, bytes32 _txB, bytes32 _txA) public notPaused {\n        bytes32 lenderTxHash = keccak256(abi.encodePacked(_wsh, _lsh, _sats, _end, _txB, msg.sender));\n        bytes32 minterTxHash = keccak256(abi.encodePacked(_wsh, lenderTxHash, _txA, msg.sender));\n        require(lender[_wsh] == lenderTxHash);\n        require(minter[_wsh] == minterTxHash);\n        require(counts[_wsh] >= step);\n        btct.mint(msg.sender, _sats);\n        counts[_wsh] = 2 ** 256 - 1; // minted flag\n    }\n\n    function gon(bytes32 _wsh, uint256 _sats, uint256 _end, bytes32 _txB) public notPaused {\n        bytes32 lenderTxHash = keccak256(abi.encodePacked(_wsh, _sats, _end, _txB, msg.sender));\n        require(lender[_wsh] == lenderTxHash);\n        require(counts[_wsh] == 2 ** 256 - 1);\n        btct.transferFrom(msg.sender, address(this), _sats);\n        btct.burn(address(this), _sats);\n    }\n\n    function ponLsh(bytes32 _wsh, uint256 _sats, uint256 _end, bytes32 _txB) public {\n        bytes32 lenderTxHash = keccak256(abi.encodePacked(_wsh, _sats, _end, _txB, msg.sender));\n    }\n\n    function setPaused(bool _paused) public onlyOwner {\n        _setPaused(_paused);\n        btct.setPaused(_paused);\n    }\n\n    function getWshMap(bytes32 _wsh) public view returns (address) {\n        return wshmap[_wsh];\n    }\n\n    function getCount(bytes32 _wsh) public view returns (uint256) {\n        return counts[_wsh];\n    }\n\n    function getKeep(address _who) public view returns (bytes32) {\n        return stored[_who];\n    }\n\n    event AddWshEvent(address indexed own, bytes32 wsh);\n    event KeepEvent(address indexed own, bytes32 ipf);\n    event EntangleOneEvent(bytes32 wsh, bytes32 lsh, uint256 sats, uint256 end, bytes32 txOne);\n\n}\n",
  "sourcePath": "/Users/sengayusaku/repo/btc2eth1/contracts/Btc2eth1.sol",
  "compiler": {
    "name": "solc",
    "version": "0.5.1+commit.c8a2cb62.Emscripten.clang"
  },
  "schemaVersion": "3.0.6",
  "updatedAt": "2019-04-15T05:16:00.167Z",
  "devdoc": {
    "methods": {
      "checkEthPubKey(address,bytes32,bytes32)": {
        "details": "@param user user",
        "params": {
          "publicXPoint": "publicXPoint",
          "publicYPoint": "publicYPoint"
        },
        "return": "boolean"
      },
      "checkUserPubkey(address,bytes)": {
        "details": "@param _user _user",
        "params": {
          "_pubkey": "_pubkey"
        },
        "return": "boolean"
      }
    }
  },
  "userdoc": {
    "methods": {}
  }
}