{
  "contractName": "Btc2eth1",
  "abi": [
    {
      "constant": true,
      "inputs": [
        {
          "name": "user",
          "type": "address"
        },
        {
          "name": "publicXPoint",
          "type": "bytes32"
        },
        {
          "name": "publicYPoint",
          "type": "bytes32"
        }
      ],
      "name": "checkEthPubKey",
      "outputs": [
        {
          "name": "",
          "type": "bool"
        }
      ],
      "payable": false,
      "stateMutability": "pure",
      "type": "function",
      "signature": "0x1789a386"
    },
    {
      "constant": true,
      "inputs": [],
      "name": "owner",
      "outputs": [
        {
          "name": "",
          "type": "address"
        }
      ],
      "payable": false,
      "stateMutability": "view",
      "type": "function",
      "signature": "0x8da5cb5b"
    },
    {
      "constant": true,
      "inputs": [
        {
          "name": "_user",
          "type": "address"
        },
        {
          "name": "_pubkey",
          "type": "bytes"
        }
      ],
      "name": "checkUserPubkey",
      "outputs": [
        {
          "name": "",
          "type": "bool"
        }
      ],
      "payable": false,
      "stateMutability": "pure",
      "type": "function",
      "signature": "0x8fa20c93"
    },
    {
      "constant": true,
      "inputs": [],
      "name": "isPaused",
      "outputs": [
        {
          "name": "",
          "type": "bool"
        }
      ],
      "payable": false,
      "stateMutability": "view",
      "type": "function",
      "signature": "0xb187bd26"
    },
    {
      "inputs": [
        {
          "name": "_btct",
          "type": "address"
        },
        {
          "name": "_sm",
          "type": "address"
        },
        {
          "name": "_join",
          "type": "uint256"
        }
      ],
      "payable": false,
      "stateMutability": "nonpayable",
      "type": "constructor",
      "signature": "constructor"
    },
    {
      "anonymous": false,
      "inputs": [
        {
          "indexed": true,
          "name": "own",
          "type": "address"
        },
        {
          "indexed": false,
          "name": "wsh",
          "type": "bytes32"
        }
      ],
      "name": "AddWshEvent",
      "type": "event",
      "signature": "0xcccdeb83e1735c85bece7135fc03d0fe6c2bccd7c3d54ce8431e21d21aa12f25"
    },
    {
      "anonymous": false,
      "inputs": [
        {
          "indexed": true,
          "name": "own",
          "type": "address"
        },
        {
          "indexed": false,
          "name": "ipf",
          "type": "bytes32"
        }
      ],
      "name": "KeepEvent",
      "type": "event",
      "signature": "0xb765be34e57545df1454df4311b3be51db91aefd3701bb8d77079cdee4150236"
    },
    {
      "anonymous": false,
      "inputs": [
        {
          "indexed": false,
          "name": "wsh",
          "type": "bytes32"
        },
        {
          "indexed": false,
          "name": "lsh",
          "type": "bytes32"
        },
        {
          "indexed": false,
          "name": "sats",
          "type": "uint256"
        },
        {
          "indexed": false,
          "name": "end",
          "type": "uint256"
        },
        {
          "indexed": false,
          "name": "txOne",
          "type": "bytes32"
        }
      ],
      "name": "EntangleOneEvent",
      "type": "event",
      "signature": "0x1578b8289accf8dfbfc82dccb7c1ed00315cc92798f88298ff0146898af5c904"
    },
    {
      "constant": false,
      "inputs": [
        {
          "name": "_ipf",
          "type": "bytes32"
        }
      ],
      "name": "keep",
      "outputs": [],
      "payable": false,
      "stateMutability": "nonpayable",
      "type": "function",
      "signature": "0x3465b787"
    },
    {
      "constant": false,
      "inputs": [
        {
          "name": "_wsh",
          "type": "bytes32"
        }
      ],
      "name": "addWsh",
      "outputs": [],
      "payable": false,
      "stateMutability": "nonpayable",
      "type": "function",
      "signature": "0xd5c35c4a"
    },
    {
      "constant": false,
      "inputs": [
        {
          "name": "_wsh",
          "type": "bytes32"
        },
        {
          "name": "_lsh",
          "type": "bytes32"
        },
        {
          "name": "_sats",
          "type": "uint256"
        },
        {
          "name": "_end",
          "type": "uint256"
        },
        {
          "name": "_txOne",
          "type": "bytes32"
        }
      ],
      "name": "entangleOne",
      "outputs": [],
      "payable": false,
      "stateMutability": "nonpayable",
      "type": "function",
      "signature": "0xc8897243"
    },
    {
      "constant": false,
      "inputs": [
        {
          "name": "_wsh",
          "type": "bytes32"
        },
        {
          "name": "_txA",
          "type": "bytes32"
        }
      ],
      "name": "entangleA",
      "outputs": [],
      "payable": false,
      "stateMutability": "nonpayable",
      "type": "function",
      "signature": "0xd9fa59de"
    },
    {
      "constant": false,
      "inputs": [
        {
          "name": "_wsh",
          "type": "bytes32"
        }
      ],
      "name": "approveStepAB",
      "outputs": [],
      "payable": false,
      "stateMutability": "nonpayable",
      "type": "function",
      "signature": "0x9d01a5a6"
    },
    {
      "constant": false,
      "inputs": [
        {
          "name": "_wsh",
          "type": "bytes32"
        },
        {
          "name": "_lsh",
          "type": "bytes32"
        },
        {
          "name": "_sats",
          "type": "uint256"
        },
        {
          "name": "_end",
          "type": "uint256"
        },
        {
          "name": "_txB",
          "type": "bytes32"
        },
        {
          "name": "_txA",
          "type": "bytes32"
        }
      ],
      "name": "pon",
      "outputs": [],
      "payable": false,
      "stateMutability": "nonpayable",
      "type": "function",
      "signature": "0x050de925"
    },
    {
      "constant": false,
      "inputs": [
        {
          "name": "_wsh",
          "type": "bytes32"
        },
        {
          "name": "_sats",
          "type": "uint256"
        },
        {
          "name": "_end",
          "type": "uint256"
        },
        {
          "name": "_txB",
          "type": "bytes32"
        }
      ],
      "name": "gon",
      "outputs": [],
      "payable": false,
      "stateMutability": "nonpayable",
      "type": "function",
      "signature": "0x6c7eaf6d"
    },
    {
      "constant": false,
      "inputs": [
        {
          "name": "_wsh",
          "type": "bytes32"
        },
        {
          "name": "_sats",
          "type": "uint256"
        },
        {
          "name": "_end",
          "type": "uint256"
        },
        {
          "name": "_txB",
          "type": "bytes32"
        }
      ],
      "name": "ponLsh",
      "outputs": [],
      "payable": false,
      "stateMutability": "nonpayable",
      "type": "function",
      "signature": "0x36c767f9"
    },
    {
      "constant": false,
      "inputs": [
        {
          "name": "_paused",
          "type": "bool"
        }
      ],
      "name": "setPaused",
      "outputs": [],
      "payable": false,
      "stateMutability": "nonpayable",
      "type": "function",
      "signature": "0x16c38b3c"
    },
    {
      "constant": true,
      "inputs": [
        {
          "name": "_wsh",
          "type": "bytes32"
        }
      ],
      "name": "getWshMap",
      "outputs": [
        {
          "name": "",
          "type": "address"
        }
      ],
      "payable": false,
      "stateMutability": "view",
      "type": "function",
      "signature": "0xcb2b3479"
    },
    {
      "constant": true,
      "inputs": [
        {
          "name": "_who",
          "type": "address"
        }
      ],
      "name": "getKeep",
      "outputs": [
        {
          "name": "",
          "type": "bytes32"
        }
      ],
      "payable": false,
      "stateMutability": "view",
      "type": "function",
      "signature": "0xff8f10b9"
    }
  ],
  "bytecode": "0x608060405234801561001057600080fd5b50604051606080611b508339810180604052606081101561003057600080fd5b8101908080519060200190929190805190602001909291908051906020019092919050505082600860006101000a81548173ffffffffffffffffffffffffffffffffffffffff021916908373ffffffffffffffffffffffffffffffffffffffff16021790555081600960006101000a81548173ffffffffffffffffffffffffffffffffffffffff021916908373ffffffffffffffffffffffffffffffffffffffff160217905550600a54600a819055506100f833610100640100000000026401000000009004565b505050610143565b806000806101000a81548173ffffffffffffffffffffffffffffffffffffffff021916908373ffffffffffffffffffffffffffffffffffffffff16021790555050565b6119fe806101526000396000f3fe6080604052600436106100d5576000357c010000000000000000000000000000000000000000000000000000000090048063050de925146100da57806316c38b3c146101475780631789a386146101845780633465b7871461020157806336c767f91461023c5780636c7eaf6d146102955780638da5cb5b146102ee5780638fa20c93146103455780639d01a5a614610445578063b187bd2614610480578063c8897243146104af578063cb2b347914610512578063d5c35c4a1461058d578063d9fa59de146105c8578063ff8f10b91461060d575b600080fd5b3480156100e657600080fd5b50610145600480360360c08110156100fd57600080fd5b81019080803590602001909291908035906020019092919080359060200190929190803590602001909291908035906020019092919080359060200190929190505050610672565b005b34801561015357600080fd5b506101826004803603602081101561016a57600080fd5b81019080803515159060200190929190505050610943565b005b34801561019057600080fd5b506101e7600480360360608110156101a757600080fd5b81019080803573ffffffffffffffffffffffffffffffffffffffff1690602001909291908035906020019092919080359060200190929190505050610a7b565b604051808215151515815260200191505060405180910390f35b34801561020d57600080fd5b5061023a6004803603602081101561022457600080fd5b8101908080359060200190929190505050610aec565b005b34801561024857600080fd5b506102936004803603608081101561025f57600080fd5b8101908080359060200190929190803590602001909291908035906020019092919080359060200190929190505050610b9d565b005b3480156102a157600080fd5b506102ec600480360360808110156102b857600080fd5b8101908080359060200190929190803590602001909291908035906020019092919080359060200190929190505050610c2a565b005b3480156102fa57600080fd5b50610303610f6b565b604051808273ffffffffffffffffffffffffffffffffffffffff1673ffffffffffffffffffffffffffffffffffffffff16815260200191505060405180910390f35b34801561035157600080fd5b5061042b6004803603604081101561036857600080fd5b81019080803573ffffffffffffffffffffffffffffffffffffffff169060200190929190803590602001906401000000008111156103a557600080fd5b8201836020820111156103b757600080fd5b803590602001918460018302840111640100000000831117156103d957600080fd5b91908080601f016020809104026020016040519081016040528093929190818152602001838380828437600081840152601f19601f820116905080830192505050505050509192919290505050610f94565b604051808215151515815260200191505060405180910390f35b34801561045157600080fd5b5061047e6004803603602081101561046857600080fd5b8101908080359060200190929190505050610fbc565b005b34801561048c57600080fd5b5061049561120f565b604051808215151515815260200191505060405180910390f35b3480156104bb57600080fd5b50610510600480360360a08110156104d257600080fd5b810190808035906020019092919080359060200190929190803590602001909291908035906020019092919080359060200190929190505050611225565b005b34801561051e57600080fd5b5061054b6004803603602081101561053557600080fd5b81019080803590602001909291905050506114a6565b604051808273ffffffffffffffffffffffffffffffffffffffff1673ffffffffffffffffffffffffffffffffffffffff16815260200191505060405180910390f35b34801561059957600080fd5b506105c6600480360360208110156105b057600080fd5b81019080803590602001909291905050506114e3565b005b3480156105d457600080fd5b5061060b600480360360408110156105eb57600080fd5b810190808035906020019092919080359060200190929190505050611692565b005b34801561061957600080fd5b5061065c6004803603602081101561063057600080fd5b81019080803573ffffffffffffffffffffffffffffffffffffffff16906020019092919050505061194b565b6040518082815260200191505060405180910390f35b600060149054906101000a900460ff1615151561068e57600080fd5b6000868686868633604051602001808781526020018681526020018581526020018481526020018381526020018273ffffffffffffffffffffffffffffffffffffffff1673ffffffffffffffffffffffffffffffffffffffff166c010000000000000000000000000281526014019650505050505050604051602081830303815290604052805190602001209050600087828433604051602001808581526020018481526020018381526020018273ffffffffffffffffffffffffffffffffffffffff1673ffffffffffffffffffffffffffffffffffffffff166c0100000000000000000000000002815260140194505050505060405160208183030381529060405280519060200120905081600360008a8152602001908152602001600020541415156107bb57600080fd5b80600460008a8152602001908152602001600020541415156107dc57600080fd5b600a54600560008a8152602001908152602001600020541015151561080057600080fd5b600860009054906101000a900473ffffffffffffffffffffffffffffffffffffffff1673ffffffffffffffffffffffffffffffffffffffff166340c10f1933886040518363ffffffff167c0100000000000000000000000000000000000000000000000000000000028152600401808373ffffffffffffffffffffffffffffffffffffffff1673ffffffffffffffffffffffffffffffffffffffff16815260200182815260200192505050602060405180830381600087803b1580156108c557600080fd5b505af11580156108d9573d6000803e3d6000fd5b505050506040513d60208110156108ef57600080fd5b8101908080519060200190929190505050507fffffffffffffffffffffffffffffffffffffffffffffffffffffffffffffffff600560008a8152602001908152602001600020819055505050505050505050565b3373ffffffffffffffffffffffffffffffffffffffff166000809054906101000a900473ffffffffffffffffffffffffffffffffffffffff1673ffffffffffffffffffffffffffffffffffffffff1614151561099e57600080fd5b6109a781611994565b600860009054906101000a900473ffffffffffffffffffffffffffffffffffffffff1673ffffffffffffffffffffffffffffffffffffffff166316c38b3c826040518263ffffffff167c01000000000000000000000000000000000000000000000000000000000281526004018082151515158152602001915050602060405180830381600087803b158015610a3c57600080fd5b505af1158015610a50573d6000803e3d6000fd5b505050506040513d6020811015610a6657600080fd5b81019080805190602001909291905050505050565b60008083836040516020018083815260200182815260200192505050604051602081830303815290604052805190602001206001900490508473ffffffffffffffffffffffffffffffffffffffff1673ffffffffffffffffffffffffffffffffffffffff8216149150509392505050565b600060149054906101000a900460ff16151515610b0857600080fd5b80600760003373ffffffffffffffffffffffffffffffffffffffff1673ffffffffffffffffffffffffffffffffffffffff168152602001908152602001600020819055503373ffffffffffffffffffffffffffffffffffffffff167fb765be34e57545df1454df4311b3be51db91aefd3701bb8d77079cdee4150236826040518082815260200191505060405180910390a250565b60008484848433604051602001808681526020018581526020018481526020018381526020018273ffffffffffffffffffffffffffffffffffffffff1673ffffffffffffffffffffffffffffffffffffffff166c01000000000000000000000000028152601401955050505050506040516020818303038152906040528051906020012090505050505050565b600060149054906101000a900460ff16151515610c4657600080fd5b60008484848433604051602001808681526020018581526020018481526020018381526020018273ffffffffffffffffffffffffffffffffffffffff1673ffffffffffffffffffffffffffffffffffffffff166c0100000000000000000000000002815260140195505050505050604051602081830303815290604052805190602001209050806003600087815260200190815260200160002054141515610ced57600080fd5b7fffffffffffffffffffffffffffffffffffffffffffffffffffffffffffffffff6005600087815260200190815260200160002054141515610d2e57600080fd5b600860009054906101000a900473ffffffffffffffffffffffffffffffffffffffff1673ffffffffffffffffffffffffffffffffffffffff166323b872dd3330876040518463ffffffff167c0100000000000000000000000000000000000000000000000000000000028152600401808473ffffffffffffffffffffffffffffffffffffffff1673ffffffffffffffffffffffffffffffffffffffff1681526020018373ffffffffffffffffffffffffffffffffffffffff1673ffffffffffffffffffffffffffffffffffffffff1681526020018281526020019350505050602060405180830381600087803b158015610e2757600080fd5b505af1158015610e3b573d6000803e3d6000fd5b505050506040513d6020811015610e5157600080fd5b810190808051906020019092919050505050600860009054906101000a900473ffffffffffffffffffffffffffffffffffffffff1673ffffffffffffffffffffffffffffffffffffffff16639dc29fac30866040518363ffffffff167c0100000000000000000000000000000000000000000000000000000000028152600401808373ffffffffffffffffffffffffffffffffffffffff1673ffffffffffffffffffffffffffffffffffffffff16815260200182815260200192505050602060405180830381600087803b158015610f2857600080fd5b505af1158015610f3c573d6000803e3d6000fd5b505050506040513d6020811015610f5257600080fd5b8101908080519060200190929190505050505050505050565b60008060009054906101000a900473ffffffffffffffffffffffffffffffffffffffff16905090565b60008060006020840151915060408401519050610fb2858383610a7b565b9250505092915050565b600060149054906101000a900460ff16151515610fd857600080fd5b600073ffffffffffffffffffffffffffffffffffffffff166002600083815260200190815260200160002060009054906101000a900473ffffffffffffffffffffffffffffffffffffffff1673ffffffffffffffffffffffffffffffffffffffff16141515156110b0576040517f08c379a000000000000000000000000000000000000000000000000000000000815260040180806020018281038252600e8152602001807f777368206973206e6f742030783000000000000000000000000000000000000081525060200191505060405180910390fd5b600060010260036000838152602001908152602001600020541415151561113f576040517f08c379a00000000000000000000000000000000000000000000000000000000081526004018080602001828103825260138152602001807f77736820697320616c726561647920757365640000000000000000000000000081525060200191505060405180910390fd5b60006001026004600083815260200190815260200160002054141515156111ce576040517f08c379a00000000000000000000000000000000000000000000000000000000081526004018080602001828103825260138152602001807f77736820697320616c726561647920757365640000000000000000000000000081525060200191505060405180910390fd5b6111f5600160056000848152602001908152602001600020546119b190919063ffffffff16565b600560008381526020019081526020016000208190555050565b60008060149054906101000a900460ff16905090565b600060149054906101000a900460ff1615151561124157600080fd5b600073ffffffffffffffffffffffffffffffffffffffff166002600087815260200190815260200160002060009054906101000a900473ffffffffffffffffffffffffffffffffffffffff1673ffffffffffffffffffffffffffffffffffffffff1614151515611319576040517f08c379a000000000000000000000000000000000000000000000000000000000815260040180806020018281038252600e8152602001807f777368206973206e6f742030783000000000000000000000000000000000000081525060200191505060405180910390fd5b600060010260036000878152602001908152602001600020541415156113a7576040517f08c379a000000000000000000000000000000000000000000000000000000000815260040180806020018281038252601e8152602001807f77736820697320616c7265616479207573656420666f72206c656e646572000081525060200191505060405180910390fd5b848484848433604051602001808781526020018681526020018581526020018481526020018381526020018273ffffffffffffffffffffffffffffffffffffffff1673ffffffffffffffffffffffffffffffffffffffff166c0100000000000000000000000002815260140196505050505050506040516020818303038152906040528051906020012060036000878152602001908152602001600020819055507f1578b8289accf8dfbfc82dccb7c1ed00315cc92798f88298ff0146898af5c9048585858585604051808681526020018581526020018481526020018381526020018281526020019550505050505060405180910390a15050505050565b60006002600083815260200190815260200160002060009054906101000a900473ffffffffffffffffffffffffffffffffffffffff169050919050565b600060149054906101000a900460ff161515156114ff57600080fd5b600073ffffffffffffffffffffffffffffffffffffffff166002600083815260200190815260200160002060009054906101000a900473ffffffffffffffffffffffffffffffffffffffff1673ffffffffffffffffffffffffffffffffffffffff161415156115d6576040517f08c379a000000000000000000000000000000000000000000000000000000000815260040180806020018281038252600a8152602001807f777368206973203078300000000000000000000000000000000000000000000081525060200191505060405180910390fd5b336002600083815260200190815260200160002060006101000a81548173ffffffffffffffffffffffffffffffffffffffff021916908373ffffffffffffffffffffffffffffffffffffffff160217905550600060056000838152602001908152602001600020819055503373ffffffffffffffffffffffffffffffffffffffff167fcccdeb83e1735c85bece7135fc03d0fe6c2bccd7c3d54ce8431e21d21aa12f25826040518082815260200191505060405180910390a250565b600060149054906101000a900460ff161515156116ae57600080fd5b600073ffffffffffffffffffffffffffffffffffffffff166002600084815260200190815260200160002060009054906101000a900473ffffffffffffffffffffffffffffffffffffffff1673ffffffffffffffffffffffffffffffffffffffff1614151515611786576040517f08c379a000000000000000000000000000000000000000000000000000000000815260040180806020018281038252600e8152602001807f777368206973206e6f742030783000000000000000000000000000000000000081525060200191505060405180910390fd5b6000600102600360008481526020019081526020016000205414151515611815576040517f08c379a00000000000000000000000000000000000000000000000000000000081526004018080602001828103825260138152602001807f77736820697320616c726561647920757365640000000000000000000000000081525060200191505060405180910390fd5b600060010260046000848152602001908152602001600020541415156118a3576040517f08c379a00000000000000000000000000000000000000000000000000000000081526004018080602001828103825260138152602001807f77736820697320616c726561647920757365640000000000000000000000000081525060200191505060405180910390fd5b8160036000848152602001908152602001600020548233604051602001808581526020018481526020018381526020018273ffffffffffffffffffffffffffffffffffffffff1673ffffffffffffffffffffffffffffffffffffffff166c010000000000000000000000000281526014019450505050506040516020818303038152906040528051906020012060046000848152602001908152602001600020819055505050565b6000600760008373ffffffffffffffffffffffffffffffffffffffff1673ffffffffffffffffffffffffffffffffffffffff168152602001908152602001600020549050919050565b80600060146101000a81548160ff02191690831515021790555050565b60008082840190508381101515156119c857600080fd5b809150509291505056fea165627a7a72305820162a20b004cc3eae420e7063005e1f1ed54a9ac82a119525024bc41b91084b8c0029",
  "source": "pragma solidity 0.5.1;\n\nimport \"./Utils/SigUtil.sol\";\nimport \"./Utils/SafeMath.sol\";\nimport \"./Utils/Role.sol\";\nimport \"./Utils/AddressManager.sol\";\nimport \"./Token/IToken.sol\";\nimport \"./IStakeManager.sol\";\n\n\ncontract Btc2eth1 is AddressManager, Role {\n    using SafeMath for uint256;\n\n    mapping(bytes32 => bytes32) private orders;\n    mapping(bytes32 => address) private wshmap; // sha256 hash\n    mapping(bytes32 => bytes32) private lender;\n    mapping(bytes32 => bytes32) private minter;\n    mapping(bytes32 => uint256) private counts;\n    mapping(bytes32 => uint256) private minted;\n    mapping(address => bytes32) private stored;\n\n    IToken private          btct;\n    IStakeManager private   stma;\n    uint256 private         step;\n\n    constructor (address _btct, address _sm, uint256 _join) public {\n        btct = IToken(_btct);\n        stma = IStakeManager(_sm);\n        step = step;\n        _setOwner(msg.sender);\n    }\n\n    // infrom updated wsh to other witness via ipfs\n    function keep(bytes32 _ipf) public notPaused {\n        //require(sm.isSWC(msg.sender), \"msg.sender != witness\");\n        stored[msg.sender] = _ipf;\n        emit KeepEvent(msg.sender, _ipf);\n    }\n\n    // witness leader submit _wsh\n    function addWsh(bytes32 _wsh) public notPaused {\n        require(wshmap[_wsh] == address(0x0), \"wsh is 0x0\");\n        wshmap[_wsh] = msg.sender;\n        counts[_wsh] = 0;\n        emit AddWshEvent(msg.sender, _wsh);\n    }\n\n    // lender htlc -> Witness secret -> go to treasury. Expired -> Bob pubkey -> refund\n    // minter htlc -> bob secret -> refund to alice, Expired ->  go to treasury\n    // signed by minter\n    function entangleOne(bytes32 _wsh, bytes32 _lsh, uint256 _sats, uint256 _end, bytes32 _txOne) public notPaused {\n        require(wshmap[_wsh] != address(0x0), \"wsh is not 0x0\");\n        require(lender[_wsh] == 0x0, \"wsh is already used for lender\");\n        lender[_wsh] = keccak256(abi.encodePacked(_wsh, _lsh, _sats, _end, _txOne, msg.sender));\n        emit EntangleOneEvent(_wsh, _lsh, _sats, _end, _txOne);\n    }\n\n    function entangleA(bytes32 _wsh, bytes32 _txA) public notPaused {\n        require(wshmap[_wsh] != address(0x0), \"wsh is not 0x0\");\n        require(lender[_wsh] != 0x0, \"wsh is already used\");\n        require(minter[_wsh] == 0x0, \"wsh is already used\");\n        minter[_wsh] = keccak256(abi.encodePacked(_wsh, lender[_wsh], _txA, msg.sender));\n    }\n\n    function approveStepAB(bytes32 _wsh) public notPaused {\n        require(wshmap[_wsh] != address(0x0), \"wsh is not 0x0\");\n        require(lender[_wsh] != 0x0, \"wsh is already used\");\n        require(minter[_wsh] != 0x0, \"wsh is already used\");\n        counts[_wsh] = counts[_wsh].add(1);\n    }\n\n    function pon(bytes32 _wsh, bytes32 _lsh, uint256 _sats, uint256 _end, bytes32 _txB, bytes32 _txA) public notPaused {\n        bytes32 lenderTxHash = keccak256(abi.encodePacked(_wsh, _lsh, _sats, _end, _txB, msg.sender));\n        bytes32 minterTxHash = keccak256(abi.encodePacked(_wsh, lenderTxHash, _txA, msg.sender));\n        require(lender[_wsh] == lenderTxHash);\n        require(minter[_wsh] == minterTxHash);\n        require(counts[_wsh] >= step);\n        btct.mint(msg.sender, _sats);\n        counts[_wsh] = 2 ** 256 - 1; // minted flag\n    }\n\n    function gon(bytes32 _wsh, uint256 _sats, uint256 _end, bytes32 _txB) public notPaused {\n        bytes32 lenderTxHash = keccak256(abi.encodePacked(_wsh, _sats, _end, _txB, msg.sender));\n        require(lender[_wsh] == lenderTxHash);\n        require(counts[_wsh] == 2 ** 256 - 1);\n        btct.transferFrom(msg.sender, address(this), _sats);\n        btct.burn(address(this), _sats);\n    }\n\n    function ponLsh(bytes32 _wsh, uint256 _sats, uint256 _end, bytes32 _txB) public {\n        bytes32 lenderTxHash = keccak256(abi.encodePacked(_wsh, _sats, _end, _txB, msg.sender));\n    }\n\n    function setPaused(bool _paused) public onlyOwner {\n        _setPaused(_paused);\n        btct.setPaused(_paused);\n    }\n\n    function getWshMap(bytes32 _wsh) public view returns (address) {\n        return wshmap[_wsh];\n    }\n\n    function getKeep(address _who) public view returns (bytes32) {\n        return stored[_who];\n    }\n\n    event AddWshEvent(address indexed own, bytes32 wsh);\n    event KeepEvent(address indexed own, bytes32 ipf);\n    event EntangleOneEvent(bytes32 wsh, bytes32 lsh, uint256 sats, uint256 end, bytes32 txOne);\n\n}\n",
  "sourcePath": "/Users/sengayusaku/repo/btc2eth1/contracts/Btc2eth1.sol",
  "compiler": {
    "name": "solc",
    "version": "0.5.1+commit.c8a2cb62.Emscripten.clang"
  },
  "schemaVersion": "3.0.6",
  "updatedAt": "2019-04-13T15:33:14.816Z",
  "devdoc": {
    "methods": {
      "checkEthPubKey(address,bytes32,bytes32)": {
        "details": "@param user user",
        "params": {
          "publicXPoint": "publicXPoint",
          "publicYPoint": "publicYPoint"
        },
        "return": "boolean"
      },
      "checkUserPubkey(address,bytes)": {
        "details": "@param _user _user",
        "params": {
          "_pubkey": "_pubkey"
        },
        "return": "boolean"
      }
    }
  },
  "userdoc": {
    "methods": {}
  }
}