{
  "contractName": "Btc2eth1",
  "abi": [
    {
      "constant": true,
      "inputs": [
        {
          "name": "user",
          "type": "address"
        },
        {
          "name": "publicXPoint",
          "type": "bytes32"
        },
        {
          "name": "publicYPoint",
          "type": "bytes32"
        }
      ],
      "name": "checkEthPubKey",
      "outputs": [
        {
          "name": "",
          "type": "bool"
        }
      ],
      "payable": false,
      "stateMutability": "pure",
      "type": "function",
      "signature": "0x1789a386"
    },
    {
      "constant": true,
      "inputs": [],
      "name": "getOwner",
      "outputs": [
        {
          "name": "",
          "type": "address"
        }
      ],
      "payable": false,
      "stateMutability": "view",
      "type": "function",
      "signature": "0x893d20e8"
    },
    {
      "constant": true,
      "inputs": [
        {
          "name": "_user",
          "type": "address"
        },
        {
          "name": "_pubkey",
          "type": "bytes"
        }
      ],
      "name": "checkUserPubkey",
      "outputs": [
        {
          "name": "",
          "type": "bool"
        }
      ],
      "payable": false,
      "stateMutability": "pure",
      "type": "function",
      "signature": "0x8fa20c93"
    },
    {
      "inputs": [
        {
          "name": "_btct",
          "type": "address"
        },
        {
          "name": "_onboard",
          "type": "address"
        },
        {
          "name": "_requireCount",
          "type": "uint256"
        }
      ],
      "payable": false,
      "stateMutability": "nonpayable",
      "type": "constructor",
      "signature": "constructor"
    },
    {
      "anonymous": false,
      "inputs": [
        {
          "indexed": true,
          "name": "leader",
          "type": "address"
        },
        {
          "indexed": false,
          "name": "wsh",
          "type": "bytes32"
        },
        {
          "indexed": false,
          "name": "ipfsHash",
          "type": "bytes32"
        },
        {
          "indexed": false,
          "name": "pubkey",
          "type": "bytes"
        }
      ],
      "name": "UpdatedWsh",
      "type": "event",
      "signature": "0xe6a9df19b4faa33f20ae1d1493334ecc39d30592a6af3353bb5e3a7573268efe"
    },
    {
      "anonymous": false,
      "inputs": [
        {
          "indexed": true,
          "name": "sender",
          "type": "address"
        },
        {
          "indexed": false,
          "name": "ipfsHash",
          "type": "bytes32"
        },
        {
          "indexed": false,
          "name": "pubkey",
          "type": "bytes"
        }
      ],
      "name": "KeepEvent",
      "type": "event",
      "signature": "0x8668845c5175501cebf3b72d4f166b4a93160d2f112a403d6259bebc2c86237d"
    },
    {
      "constant": false,
      "inputs": [
        {
          "name": "_ipfsHash",
          "type": "bytes32"
        },
        {
          "name": "_pubkey",
          "type": "bytes"
        }
      ],
      "name": "keep",
      "outputs": [],
      "payable": false,
      "stateMutability": "nonpayable",
      "type": "function",
      "signature": "0xd06f12b4"
    },
    {
      "constant": false,
      "inputs": [
        {
          "name": "_wsh",
          "type": "bytes32"
        },
        {
          "name": "_ipfsHash",
          "type": "bytes32"
        },
        {
          "name": "_pubkey",
          "type": "bytes"
        }
      ],
      "name": "updateWsh",
      "outputs": [],
      "payable": false,
      "stateMutability": "nonpayable",
      "type": "function",
      "signature": "0x1115b3ba"
    },
    {
      "constant": false,
      "inputs": [
        {
          "name": "_wsh",
          "type": "bytes32"
        },
        {
          "name": "_minter",
          "type": "address"
        },
        {
          "name": "_satoshis",
          "type": "uint256"
        },
        {
          "name": "_period",
          "type": "uint256"
        },
        {
          "name": "_depositTx",
          "type": "bytes32"
        },
        {
          "name": "_sig",
          "type": "bytes"
        }
      ],
      "name": "attachMint",
      "outputs": [],
      "payable": false,
      "stateMutability": "nonpayable",
      "type": "function",
      "signature": "0xc79144b0"
    },
    {
      "constant": false,
      "inputs": [
        {
          "name": "_wsh",
          "type": "bytes32"
        },
        {
          "name": "_isValid",
          "type": "bool"
        }
      ],
      "name": "validFromWitness",
      "outputs": [],
      "payable": false,
      "stateMutability": "nonpayable",
      "type": "function",
      "signature": "0x1d31f488"
    },
    {
      "constant": false,
      "inputs": [
        {
          "name": "_wsh",
          "type": "bytes32"
        },
        {
          "name": "_minter",
          "type": "address"
        },
        {
          "name": "_satoshis",
          "type": "uint256"
        },
        {
          "name": "_period",
          "type": "uint256"
        },
        {
          "name": "_depositTx",
          "type": "bytes32"
        }
      ],
      "name": "execMint",
      "outputs": [],
      "payable": false,
      "stateMutability": "nonpayable",
      "type": "function",
      "signature": "0xac4c1ae2"
    },
    {
      "constant": false,
      "inputs": [
        {
          "name": "_wsh",
          "type": "bytes32"
        },
        {
          "name": "_minter",
          "type": "address"
        },
        {
          "name": "_satoshis",
          "type": "uint256"
        },
        {
          "name": "_period",
          "type": "uint256"
        },
        {
          "name": "_depositTx",
          "type": "bytes32"
        }
      ],
      "name": "execBurn",
      "outputs": [],
      "payable": false,
      "stateMutability": "nonpayable",
      "type": "function",
      "signature": "0xc2d3c1e8"
    },
    {
      "constant": false,
      "inputs": [
        {
          "name": "_wsh",
          "type": "bytes32"
        },
        {
          "name": "_ws",
          "type": "bytes32"
        }
      ],
      "name": "refund",
      "outputs": [],
      "payable": false,
      "stateMutability": "nonpayable",
      "type": "function",
      "signature": "0xe4683a79"
    },
    {
      "constant": false,
      "inputs": [
        {
          "name": "_paused",
          "type": "bool"
        }
      ],
      "name": "setPaused",
      "outputs": [],
      "payable": false,
      "stateMutability": "nonpayable",
      "type": "function",
      "signature": "0x16c38b3c"
    },
    {
      "constant": true,
      "inputs": [
        {
          "name": "_who",
          "type": "address"
        }
      ],
      "name": "getKey",
      "outputs": [
        {
          "name": "",
          "type": "bytes32"
        }
      ],
      "payable": false,
      "stateMutability": "view",
      "type": "function",
      "signature": "0x93790f44"
    },
    {
      "constant": false,
      "inputs": [
        {
          "name": "_token",
          "type": "address"
        },
        {
          "name": "_sender",
          "type": "address"
        },
        {
          "name": "_amount",
          "type": "uint256"
        }
      ],
      "name": "onTokenReceived",
      "outputs": [
        {
          "name": "",
          "type": "bool"
        }
      ],
      "payable": false,
      "stateMutability": "nonpayable",
      "type": "function",
      "signature": "0xd6b1dd38"
    },
    {
      "constant": false,
      "inputs": [
        {
          "name": "_amount",
          "type": "uint256"
        }
      ],
      "name": "deposit",
      "outputs": [],
      "payable": false,
      "stateMutability": "nonpayable",
      "type": "function",
      "signature": "0xb6b55f25"
    }
  ],
  "bytecode": "0x608060405234801561001057600080fd5b506040516060806120ac8339810180604052606081101561003057600080fd5b8101908080519060200190929190805190602001909291908051906020019092919050505082600760006101000a81548173ffffffffffffffffffffffffffffffffffffffff021916908373ffffffffffffffffffffffffffffffffffffffff16021790555081600860006101000a81548173ffffffffffffffffffffffffffffffffffffffff021916908373ffffffffffffffffffffffffffffffffffffffff1602179055506100ef336100fe640100000000026401000000009004565b80600981905550505050610141565b806000806101000a81548173ffffffffffffffffffffffffffffffffffffffff021916908373ffffffffffffffffffffffffffffffffffffffff16021790555050565b611f5c806101506000396000f3fe6080604052600436106100d0576000357c0100000000000000000000000000000000000000000000000000000000900463ffffffff1680631115b3ba146100d557806316c38b3c146101b15780631789a386146101ee5780631d31f4881461026b578063893d20e8146102b25780638fa20c931461030957806393790f4414610409578063ac4c1ae21461046e578063b6b55f25146104e7578063c2d3c1e814610522578063c79144b01461059b578063d06f12b4146106ab578063d6b1dd381461077d578063e4683a7914610810575b600080fd5b3480156100e157600080fd5b506101af600480360360608110156100f857600080fd5b8101908080359060200190929190803590602001909291908035906020019064010000000081111561012957600080fd5b82018360208201111561013b57600080fd5b8035906020019184600183028401116401000000008311171561015d57600080fd5b91908080601f016020809104026020016040519081016040528093929190818152602001838380828437600081840152601f19601f820116905080830192505050505050509192919290505050610855565b005b3480156101bd57600080fd5b506101ec600480360360208110156101d457600080fd5b81019080803515159060200190929190505050610a98565b005b3480156101fa57600080fd5b506102516004803603606081101561021157600080fd5b81019080803573ffffffffffffffffffffffffffffffffffffffff1690602001909291908035906020019092919080359060200190929190505050610bd0565b604051808215151515815260200191505060405180910390f35b34801561027757600080fd5b506102b06004803603604081101561028e57600080fd5b8101908080359060200190929190803515159060200190929190505050610c41565b005b3480156102be57600080fd5b506102c7610d10565b604051808273ffffffffffffffffffffffffffffffffffffffff1673ffffffffffffffffffffffffffffffffffffffff16815260200191505060405180910390f35b34801561031557600080fd5b506103ef6004803603604081101561032c57600080fd5b81019080803573ffffffffffffffffffffffffffffffffffffffff1690602001909291908035906020019064010000000081111561036957600080fd5b82018360208201111561037b57600080fd5b8035906020019184600183028401116401000000008311171561039d57600080fd5b91908080601f016020809104026020016040519081016040528093929190818152602001838380828437600081840152601f19601f820116905080830192505050505050509192919290505050610d39565b604051808215151515815260200191505060405180910390f35b34801561041557600080fd5b506104586004803603602081101561042c57600080fd5b81019080803573ffffffffffffffffffffffffffffffffffffffff169060200190929190505050610d61565b6040518082815260200191505060405180910390f35b34801561047a57600080fd5b506104e5600480360360a081101561049157600080fd5b8101908080359060200190929190803573ffffffffffffffffffffffffffffffffffffffff169060200190929190803590602001909291908035906020019092919080359060200190929190505050610daa565b005b3480156104f357600080fd5b506105206004803603602081101561050a57600080fd5b8101908080359060200190929190505050610fb9565b005b34801561052e57600080fd5b50610599600480360360a081101561054557600080fd5b8101908080359060200190929190803573ffffffffffffffffffffffffffffffffffffffff1690602001909291908035906020019092919080359060200190929190803590602001909291905050506111a2565b005b3480156105a757600080fd5b506106a9600480360360c08110156105be57600080fd5b8101908080359060200190929190803573ffffffffffffffffffffffffffffffffffffffff1690602001909291908035906020019092919080359060200190929190803590602001909291908035906020019064010000000081111561062357600080fd5b82018360208201111561063557600080fd5b8035906020019184600183028401116401000000008311171561065757600080fd5b91908080601f016020809104026020016040519081016040528093929190818152602001838380828437600081840152601f19601f8201169050808301925050505050505091929192905050506113df565b005b3480156106b757600080fd5b5061077b600480360360408110156106ce57600080fd5b8101908080359060200190929190803590602001906401000000008111156106f557600080fd5b82018360208201111561070757600080fd5b8035906020019184600183028401116401000000008311171561072957600080fd5b91908080601f016020809104026020016040519081016040528093929190818152602001838380828437600081840152601f19601f8201169050808301925050505050505091929192905050506116c2565b005b34801561078957600080fd5b506107f6600480360360608110156107a057600080fd5b81019080803573ffffffffffffffffffffffffffffffffffffffff169060200190929190803573ffffffffffffffffffffffffffffffffffffffff169060200190929190803590602001909291905050506119cb565b604051808215151515815260200191505060405180910390f35b34801561081c57600080fd5b506108536004803603604081101561083357600080fd5b810190808035906020019092919080359060200190929190505050611b49565b005b600060149054906101000a900460ff1615151561087157600080fd5b600073ffffffffffffffffffffffffffffffffffffffff166002600085815260200190815260200160002060009054906101000a900473ffffffffffffffffffffffffffffffffffffffff1673ffffffffffffffffffffffffffffffffffffffff16141515610948576040517f08c379a000000000000000000000000000000000000000000000000000000000815260040180806020018281038252600a8152602001807f777368206973203078300000000000000000000000000000000000000000000081525060200191505060405180910390fd5b336002600085815260200190815260200160002060006101000a81548173ffffffffffffffffffffffffffffffffffffffff021916908373ffffffffffffffffffffffffffffffffffffffff1602179055506064600954026003600085815260200190815260200160002081905550600060046000858152602001908152602001600020819055503373ffffffffffffffffffffffffffffffffffffffff167fe6a9df19b4faa33f20ae1d1493334ecc39d30592a6af3353bb5e3a7573268efe8484846040518084815260200183815260200180602001828103825283818151815260200191508051906020019080838360005b83811015610a57578082015181840152602081019050610a3c565b50505050905090810190601f168015610a845780820380516001836020036101000a031916815260200191505b5094505050505060405180910390a2505050565b3373ffffffffffffffffffffffffffffffffffffffff166000809054906101000a900473ffffffffffffffffffffffffffffffffffffffff1673ffffffffffffffffffffffffffffffffffffffff16141515610af357600080fd5b610afc81611db8565b600760009054906101000a900473ffffffffffffffffffffffffffffffffffffffff1673ffffffffffffffffffffffffffffffffffffffff166316c38b3c826040518263ffffffff167c01000000000000000000000000000000000000000000000000000000000281526004018082151515158152602001915050602060405180830381600087803b158015610b9157600080fd5b505af1158015610ba5573d6000803e3d6000fd5b505050506040513d6020811015610bbb57600080fd5b81019080805190602001909291905050505050565b60008083836040516020018083815260200182815260200192505050604051602081830303815290604052805190602001206001900490508473ffffffffffffffffffffffffffffffffffffffff1673ffffffffffffffffffffffffffffffffffffffff8216149150509392505050565b600060149054906101000a900460ff16151515610c5d57600080fd5b60016003600084815260200190815260200160002054111515610c7f57600080fd5b8015610cb457606460046000848152602001908152602001600020540160046000848152602001908152602001600020819055505b60036002600360008581526020019081526020016000205402811515610cd657fe5b046004600084815260200190815260200160002054101515610d0c57600160036000848152602001908152602001600020819055505b5050565b60008060009054906101000a900473ffffffffffffffffffffffffffffffffffffffff16905090565b60008060006020840151915060408401519050610d57858383610bd0565b9250505092915050565b6000600660008373ffffffffffffffffffffffffffffffffffffffff1673ffffffffffffffffffffffffffffffffffffffff168152602001908152602001600020549050919050565b600060149054906101000a900460ff16151515610dc657600080fd5b6000610e528686868686604051602001808681526020018573ffffffffffffffffffffffffffffffffffffffff1673ffffffffffffffffffffffffffffffffffffffff166c010000000000000000000000000281526014018481526020018381526020018281526020019550505050505060405160208183030381529060405280519060200120611dd5565b9050806001600088815260200190815260200160002054141515610e7557600080fd5b60016003600088815260200190815260200160002054141515610e9757600080fd5b600760009054906101000a900473ffffffffffffffffffffffffffffffffffffffff1673ffffffffffffffffffffffffffffffffffffffff166340c10f1986866040518363ffffffff167c0100000000000000000000000000000000000000000000000000000000028152600401808373ffffffffffffffffffffffffffffffffffffffff1673ffffffffffffffffffffffffffffffffffffffff16815260200182815260200192505050602060405180830381600087803b158015610f5c57600080fd5b505af1158015610f70573d6000803e3d6000fd5b505050506040513d6020811015610f8657600080fd5b81019080805190602001909291905050505060006003600088815260200190815260200160002081905550505050505050565b600060149054906101000a900460ff16151515610fd557600080fd5b600760009054906101000a900473ffffffffffffffffffffffffffffffffffffffff1673ffffffffffffffffffffffffffffffffffffffff166323b872dd3330846040518463ffffffff167c0100000000000000000000000000000000000000000000000000000000028152600401808473ffffffffffffffffffffffffffffffffffffffff1673ffffffffffffffffffffffffffffffffffffffff1681526020018373ffffffffffffffffffffffffffffffffffffffff1673ffffffffffffffffffffffffffffffffffffffff1681526020018281526020019350505050602060405180830381600087803b1580156110ce57600080fd5b505af11580156110e2573d6000803e3d6000fd5b505050506040513d60208110156110f857600080fd5b81019080805190602001909291905050505061115c81600560003373ffffffffffffffffffffffffffffffffffffffff1673ffffffffffffffffffffffffffffffffffffffff16815260200190815260200160002054611e2d90919063ffffffff16565b600560003373ffffffffffffffffffffffffffffffffffffffff1673ffffffffffffffffffffffffffffffffffffffff1681526020019081526020016000208190555050565b600060149054906101000a900460ff161515156111be57600080fd5b600061124a8686868686604051602001808681526020018573ffffffffffffffffffffffffffffffffffffffff1673ffffffffffffffffffffffffffffffffffffffff166c010000000000000000000000000281526014018481526020018381526020018281526020019550505050505060405160208183030381529060405280519060200120611dd5565b905080600160008881526020019081526020016000205414151561126d57600080fd5b83600560008773ffffffffffffffffffffffffffffffffffffffff1673ffffffffffffffffffffffffffffffffffffffff16815260200190815260200160002054101515156112bb57600080fd5b83600560008773ffffffffffffffffffffffffffffffffffffffff1673ffffffffffffffffffffffffffffffffffffffff1681526020019081526020016000205403600560008773ffffffffffffffffffffffffffffffffffffffff1673ffffffffffffffffffffffffffffffffffffffff16815260200190815260200160002081905550610e108301421115156113a0577f30783130000000000000000000000000000000000000000000000000000000006001600088815260200190815260200160002050508260046000888152602001908152602001600020819055506113d7565b7f30783230000000000000000000000000000000000000000000000000000000006001600088815260200190815260200160002050505b505050505050565b600060149054906101000a900460ff161515156113fb57600080fd5b600073ffffffffffffffffffffffffffffffffffffffff166002600088815260200190815260200160002060009054906101000a900473ffffffffffffffffffffffffffffffffffffffff1673ffffffffffffffffffffffffffffffffffffffff16141515156114d3576040517f08c379a000000000000000000000000000000000000000000000000000000000815260040180806020018281038252600e8152602001807f777368206973206e6f742030783000000000000000000000000000000000000081525060200191505060405180910390fd5b600061155f8787878787604051602001808681526020018573ffffffffffffffffffffffffffffffffffffffff1673ffffffffffffffffffffffffffffffffffffffff166c010000000000000000000000000281526014018481526020018381526020018281526020019550505050505060405160208183030381529060405280519060200120611dd5565b9050600060010260016000898152602001908152602001600020541415156115ef576040517f08c379a00000000000000000000000000000000000000000000000000000000081526004018080602001828103825260138152602001807f77736820697320616c726561647920757365640000000000000000000000000081525060200191505060405180910390fd5b60006115fb8284611e4e565b90508673ffffffffffffffffffffffffffffffffffffffff168173ffffffffffffffffffffffffffffffffffffffff161415156116a0576040517f08c379a00000000000000000000000000000000000000000000000000000000081526004018080602001828103825260118152602001807f7369676e657220213d205f6d696e74657200000000000000000000000000000081525060200191505060405180910390fd5b81600160008a8152602001908152602001600020819055505050505050505050565b600060149054906101000a900460ff161515156116de57600080fd5b6116e83382610d39565b151561175c576040517f08c379a000000000000000000000000000000000000000000000000000000000815260040180806020018281038252601e8152602001807f6d73672e73656e646572206973206e6f74206d61746368207075626b6579000081525060200191505060405180910390fd5b600860009054906101000a900473ffffffffffffffffffffffffffffffffffffffff1673ffffffffffffffffffffffffffffffffffffffff1663cd2160f2336040518263ffffffff167c0100000000000000000000000000000000000000000000000000000000028152600401808273ffffffffffffffffffffffffffffffffffffffff1673ffffffffffffffffffffffffffffffffffffffff168152602001915050602060405180830381600087803b15801561181957600080fd5b505af115801561182d573d6000803e3d6000fd5b505050506040513d602081101561184357600080fd5b810190808051906020019092919050505015156118c8576040517f08c379a00000000000000000000000000000000000000000000000000000000081526004018080602001828103825260158152602001807f6d73672e73656e64657220213d207769746e657373000000000000000000000081525060200191505060405180910390fd5b81600660003373ffffffffffffffffffffffffffffffffffffffff1673ffffffffffffffffffffffffffffffffffffffff168152602001908152602001600020819055503373ffffffffffffffffffffffffffffffffffffffff167f8668845c5175501cebf3b72d4f166b4a93160d2f112a403d6259bebc2c86237d83836040518083815260200180602001828103825283818151815260200191508051906020019080838360005b8381101561198c578082015181840152602081019050611971565b50505050905090810190601f1680156119b95780820380516001836020036101000a031916815260200191505b50935050505060405180910390a25050565b60008060149054906101000a900460ff161515156119e857600080fd5b600760009054906101000a900473ffffffffffffffffffffffffffffffffffffffff1673ffffffffffffffffffffffffffffffffffffffff163373ffffffffffffffffffffffffffffffffffffffff16141515611a485760009050611b42565b600760009054906101000a900473ffffffffffffffffffffffffffffffffffffffff1673ffffffffffffffffffffffffffffffffffffffff168473ffffffffffffffffffffffffffffffffffffffff16141515611aa85760009050611b42565b611afa82600560008673ffffffffffffffffffffffffffffffffffffffff1673ffffffffffffffffffffffffffffffffffffffff16815260200190815260200160002054611e2d90919063ffffffff16565b600560008573ffffffffffffffffffffffffffffffffffffffff1673ffffffffffffffffffffffffffffffffffffffff16815260200190815260200160002081905550600190505b9392505050565b600060149054906101000a900460ff16151515611b6557600080fd5b60006003600084815260200190815260200160002054141515611b8757600080fd5b600460008381526020019081526020016000205442111515611d0e577f307831300000000000000000000000000000000000000000000000000000000060016000600284604051602001808281526020019150506040516020818303038152906040526040518082805190602001908083835b602083101515611c1f5780518252602082019150602081019050602083039250611bfa565b6001836020036101000a038019825116818451168082178552505050505050905001915050602060405180830381855afa158015611c61573d6000803e3d6000fd5b5050506040513d6020811015611c7657600080fd5b81019080805190602001909291905050508152602001908152602001600020541415611d095760006002600084815260200190815260200160002060006101000a81548173ffffffffffffffffffffffffffffffffffffffff021916908373ffffffffffffffffffffffffffffffffffffffff160217905550600060046000848152602001908152602001600020819055505b611db4565b600073ffffffffffffffffffffffffffffffffffffffff166002600084815260200190815260200160002060009054906101000a900473ffffffffffffffffffffffffffffffffffffffff1673ffffffffffffffffffffffffffffffffffffffff1614151515611d7d57600080fd5b7f30783130000000000000000000000000000000000000000000000000000000006001600084815260200190815260200160002050505b5050565b80600060146101000a81548160ff02191690831515021790555050565b60008160405160200180807f19457468657265756d205369676e6564204d6573736167653a0a333200000000815250601c01828152602001915050604051602081830303815290604052805190602001209050919050565b6000808284019050838110151515611e4457600080fd5b8091505092915050565b600060418251141515611e645760009050611f2a565b60008060006020850151925060408501519150606085015160001a9050601b8160ff161015611e9457601b810190505b601b8160ff1614158015611eac5750601c8160ff1614155b15611ebd5760009350505050611f2a565b60018682858560405160008152602001604052604051808581526020018460ff1660ff1681526020018381526020018281526020019450505050506020604051602081039080840390855afa158015611f1a573d6000803e3d6000fd5b5050506020604051035193505050505b9291505056fea165627a7a7230582081f2f57b9f6ae61532f10dba17fc92063050b174edc5ef7db5673b4eba82df3c0029",
  "source": "pragma solidity ^0.5.0;\n\nimport \"./Utils/SigUtil.sol\";\nimport \"./Utils/SafeMath.sol\";\nimport \"./Utils/Role.sol\";\nimport \"./Utils/AddressManager.sol\";\nimport \"./Token/ITokensRecipient.sol\";\nimport \"./Token/IToken.sol\";\nimport \"./IStakeManager.sol\";\n\n\ncontract Btc2eth1 is AddressManager, ITokensRecipient, Role {\n    using SafeMath for uint256;\n\n    mapping(bytes32 => bytes32) private orders;\n    mapping(bytes32 => address) private wshmap; // sha256 hash\n    mapping(bytes32 => uint256) private valids;\n    mapping(bytes32 => uint256) private counts;\n    mapping(address => uint256) private minted;\n    mapping(address => bytes32) private keymap;  \n\n    event UpdatedWsh(address indexed leader, bytes32 wsh, bytes32 ipfsHash, bytes pubkey);\n    event KeepEvent(address indexed sender, bytes32 ipfsHash, bytes pubkey);\n\n    IToken private btct;\n    IStakeManager private sm;\n    uint256 private requireCount;\n\n    constructor (address _btct, address _onboard, uint256 _requireCount) public {\n        btct = IToken(_btct);\n        sm = IStakeManager(_onboard);\n        _setOwner(msg.sender);\n        requireCount = _requireCount;\n    }\n\n    function keep(\n        bytes32 _ipfsHash,\n        bytes memory _pubkey\n    ) public notPaused {\n        require(checkUserPubkey(msg.sender, _pubkey), \"msg.sender is not match pubkey\");\n        require(sm.isValidWitnessConsortium(msg.sender), \"msg.sender != witness\");\n        keymap[msg.sender] = _ipfsHash;\n        emit KeepEvent(msg.sender, _ipfsHash, _pubkey);\n    }\n\n    // witness leader submit _wsh\n    function updateWsh(\n        bytes32 _wsh, \n        bytes32 _ipfsHash,\n        bytes memory _pubkey\n    ) public notPaused {\n        require(wshmap[_wsh] == address(0x0), \"wsh is 0x0\");\n        wshmap[_wsh] = msg.sender;\n        valids[_wsh] = requireCount * 100;\n        counts[_wsh] = 0;\n        emit UpdatedWsh(msg.sender, _wsh, _ipfsHash, _pubkey);\n    }\n\n    // lender htlc -> Witness secret -> go to treasury. Expired -> Bob pubkey -> refund\n    // minter htlc -> bob secret -> refund to alice, Expired ->  go to treasury\n    // signed by minter\n    function attachMint(\n        bytes32 _wsh, \n        address _minter, \n        uint256 _satoshis,\n        uint256 _period,\n        bytes32 _depositTx, \n        bytes memory _sig\n    ) public notPaused {\n        require(wshmap[_wsh] != address(0x0), \"wsh is not 0x0\");\n        bytes32 orderHash = SigUtil.prefixed(keccak256(abi.encodePacked(\n            _wsh,\n            _minter,\n            _satoshis,\n            _period,\n            _depositTx\n        )));\n        require(orders[_wsh] == 0x0, \"wsh is already used\");\n        address signer = SigUtil.recover(orderHash, _sig);\n        require(signer == _minter, \"signer != _minter\");\n        orders[_wsh] = orderHash;\n    }\n\n    function validFromWitness(\n        bytes32 _wsh,\n        bool _isValid\n    ) public notPaused {\n        require(valids[_wsh] > 1);\n\n        if (_isValid) {\n            counts[_wsh] = counts[_wsh] + 100;  \n        }\n        if (counts[_wsh] >= valids[_wsh] * 2/3) {\n            valids[_wsh] = 1;\n        }\n    }\n\n    function execMint(\n        bytes32 _wsh, \n        address _minter, \n        uint256 _satoshis,\n        uint256 _period,\n        bytes32 _depositTx\n    ) public notPaused {\n        bytes32 orderHash = SigUtil.prefixed(keccak256(abi.encodePacked(\n            _wsh,\n            _minter,\n            _satoshis,\n            _period,\n            _depositTx\n        )));\n        require(orders[_wsh] == orderHash);\n        require(valids[_wsh] == 1);\n\n        btct.mint(_minter, _satoshis);\n        valids[_wsh] = 0;\n    }\n\n    function execBurn(\n        bytes32 _wsh, \n        address _minter, \n        uint256 _satoshis,\n        uint256 _period,\n        bytes32 _depositTx\n    ) public notPaused {\n        bytes32 orderHash = SigUtil.prefixed(keccak256(abi.encodePacked(\n            _wsh,\n            _minter,\n            _satoshis,\n            _period,\n            _depositTx\n        )));\n        require(orders[_wsh] == orderHash);\n        require(minted[_minter] >= _satoshis);\n        minted[_minter] = minted[_minter] - _satoshis;\n        if (block.timestamp <= _period + 1 hours) {\n            orders[_wsh] == \"0x10\"; // burned by period\n            counts[_wsh] = _period;\n        } else {\n            orders[_wsh] == \"0x20\";\n        }\n    }\n\n    function refund(\n        bytes32 _wsh,\n        bytes32 _ws\n    ) public notPaused {\n        require(valids[_wsh] == 0); // 0 => minted\n        if (block.timestamp <= counts[_wsh]) {\n            if (orders[sha256(abi.encodePacked(_ws))] == \"0x10\") {\n                // reset\n                wshmap[_wsh] = address(0x0);\n                counts[_wsh] = 0;\n            }\n        } else {\n            require(wshmap[_wsh] != address(0x0));\n            if (orders[_wsh] == \"0x10\") {\n                // slash\n                //wshmap[_wsh] = \"0x40\";\n            }\n        }\n    }\n\n    function setPaused(bool _paused) public onlyOwner {\n        _setPaused(_paused);\n        btct.setPaused(_paused);\n    }\n\n    function getKey(address _who) public view returns (bytes32) {\n        return keymap[_who];\n    }\n\n    //ITokensRecipient callback\n    function onTokenReceived(address _token, address _sender, uint256 _amount) public notPaused returns (bool) {\n        if (msg.sender != address(btct)) {\n            return false;\n        }\n        if (_token != address(btct)) {\n            return false;\n        }\n        minted[_sender] = minted[_sender].add(_amount);\n        return true;\n    }\n\n    function deposit(uint256 _amount) public notPaused {\n        btct.transferFrom(msg.sender, address(this), _amount);\n        minted[msg.sender] = minted[msg.sender].add(_amount);\n    }\n}\n",
  "sourcePath": "/Users/sengayusaku/repo/btc2eth1/contracts/Btc2eth1.sol",
  "compiler": {
    "name": "solc",
    "version": "0.5.0+commit.1d4f565a.Emscripten.clang"
  },
  "schemaVersion": "3.0.2",
  "updatedAt": "2019-03-20T05:45:45.389Z",
  "devdoc": {
    "methods": {
      "checkEthPubKey(address,bytes32,bytes32)": {
        "details": "@param user user",
        "params": {
          "publicXPoint": "publicXPoint",
          "publicYPoint": "publicYPoint"
        },
        "return": "boolean"
      },
      "checkUserPubkey(address,bytes)": {
        "details": "@param _user _user",
        "params": {
          "_pubkey": "_pubkey"
        },
        "return": "boolean"
      }
    }
  },
  "userdoc": {
    "methods": {}
  }
}