{
  "contractName": "Btc2eth1",
  "abi": [
    {
      "constant": true,
      "inputs": [
        {
          "name": "user",
          "type": "address"
        },
        {
          "name": "publicXPoint",
          "type": "bytes32"
        },
        {
          "name": "publicYPoint",
          "type": "bytes32"
        }
      ],
      "name": "checkEthPubKey",
      "outputs": [
        {
          "name": "",
          "type": "bool"
        }
      ],
      "payable": false,
      "stateMutability": "pure",
      "type": "function",
      "signature": "0x1789a386"
    },
    {
      "constant": true,
      "inputs": [],
      "name": "owner",
      "outputs": [
        {
          "name": "",
          "type": "address"
        }
      ],
      "payable": false,
      "stateMutability": "view",
      "type": "function",
      "signature": "0x8da5cb5b"
    },
    {
      "constant": true,
      "inputs": [
        {
          "name": "_user",
          "type": "address"
        },
        {
          "name": "_pubkey",
          "type": "bytes"
        }
      ],
      "name": "checkUserPubkey",
      "outputs": [
        {
          "name": "",
          "type": "bool"
        }
      ],
      "payable": false,
      "stateMutability": "pure",
      "type": "function",
      "signature": "0x8fa20c93"
    },
    {
      "constant": true,
      "inputs": [],
      "name": "isPaused",
      "outputs": [
        {
          "name": "",
          "type": "bool"
        }
      ],
      "payable": false,
      "stateMutability": "view",
      "type": "function",
      "signature": "0xb187bd26"
    },
    {
      "inputs": [
        {
          "name": "_btct",
          "type": "address"
        },
        {
          "name": "_sm",
          "type": "address"
        },
        {
          "name": "_requireCount",
          "type": "uint256"
        }
      ],
      "payable": false,
      "stateMutability": "nonpayable",
      "type": "constructor",
      "signature": "constructor"
    },
    {
      "anonymous": false,
      "inputs": [
        {
          "indexed": true,
          "name": "leader",
          "type": "address"
        },
        {
          "indexed": false,
          "name": "wsh",
          "type": "bytes32"
        },
        {
          "indexed": false,
          "name": "pubkey",
          "type": "bytes"
        }
      ],
      "name": "UpdatedWsh",
      "type": "event",
      "signature": "0x339628ac99263b8add7ae55e85ec748eb6073140b05d4d5555a34c8f48bae175"
    },
    {
      "anonymous": false,
      "inputs": [
        {
          "indexed": true,
          "name": "sender",
          "type": "address"
        },
        {
          "indexed": false,
          "name": "ipfsHash",
          "type": "bytes32"
        }
      ],
      "name": "KeepEvent",
      "type": "event",
      "signature": "0xb765be34e57545df1454df4311b3be51db91aefd3701bb8d77079cdee4150236"
    },
    {
      "constant": false,
      "inputs": [
        {
          "name": "_ipfsHash",
          "type": "bytes32"
        }
      ],
      "name": "keep",
      "outputs": [],
      "payable": false,
      "stateMutability": "nonpayable",
      "type": "function",
      "signature": "0x3465b787"
    },
    {
      "constant": false,
      "inputs": [
        {
          "name": "_wsh",
          "type": "bytes32"
        },
        {
          "name": "_pubkey",
          "type": "bytes"
        }
      ],
      "name": "updateWsh",
      "outputs": [],
      "payable": false,
      "stateMutability": "nonpayable",
      "type": "function",
      "signature": "0xc150f6f6"
    },
    {
      "constant": false,
      "inputs": [
        {
          "name": "_wsh",
          "type": "bytes32"
        },
        {
          "name": "_minter",
          "type": "address"
        },
        {
          "name": "_satoshis",
          "type": "uint256"
        },
        {
          "name": "_period",
          "type": "uint256"
        },
        {
          "name": "_depositTx",
          "type": "bytes32"
        }
      ],
      "name": "attachMint",
      "outputs": [],
      "payable": false,
      "stateMutability": "nonpayable",
      "type": "function",
      "signature": "0x43bda5ed"
    },
    {
      "constant": false,
      "inputs": [
        {
          "name": "_wsh",
          "type": "bytes32"
        },
        {
          "name": "_isValid",
          "type": "bool"
        }
      ],
      "name": "validFromWitness",
      "outputs": [],
      "payable": false,
      "stateMutability": "nonpayable",
      "type": "function",
      "signature": "0x1d31f488"
    },
    {
      "constant": false,
      "inputs": [
        {
          "name": "_wsh",
          "type": "bytes32"
        },
        {
          "name": "_minter",
          "type": "address"
        },
        {
          "name": "_satoshis",
          "type": "uint256"
        },
        {
          "name": "_period",
          "type": "uint256"
        },
        {
          "name": "_depositTx",
          "type": "bytes32"
        }
      ],
      "name": "execMint",
      "outputs": [],
      "payable": false,
      "stateMutability": "nonpayable",
      "type": "function",
      "signature": "0xac4c1ae2"
    },
    {
      "constant": false,
      "inputs": [
        {
          "name": "_wsh",
          "type": "bytes32"
        },
        {
          "name": "_minter",
          "type": "address"
        },
        {
          "name": "_satoshis",
          "type": "uint256"
        },
        {
          "name": "_period",
          "type": "uint256"
        },
        {
          "name": "_depositTx",
          "type": "bytes32"
        }
      ],
      "name": "execBurn",
      "outputs": [],
      "payable": false,
      "stateMutability": "nonpayable",
      "type": "function",
      "signature": "0xc2d3c1e8"
    },
    {
      "constant": false,
      "inputs": [
        {
          "name": "_wsh",
          "type": "bytes32"
        },
        {
          "name": "_ws",
          "type": "bytes32"
        }
      ],
      "name": "refund",
      "outputs": [],
      "payable": false,
      "stateMutability": "nonpayable",
      "type": "function",
      "signature": "0xe4683a79"
    },
    {
      "constant": false,
      "inputs": [
        {
          "name": "_paused",
          "type": "bool"
        }
      ],
      "name": "setPaused",
      "outputs": [],
      "payable": false,
      "stateMutability": "nonpayable",
      "type": "function",
      "signature": "0x16c38b3c"
    },
    {
      "constant": true,
      "inputs": [
        {
          "name": "_who",
          "type": "address"
        }
      ],
      "name": "getKey",
      "outputs": [
        {
          "name": "",
          "type": "bytes32"
        }
      ],
      "payable": false,
      "stateMutability": "view",
      "type": "function",
      "signature": "0x93790f44"
    },
    {
      "constant": true,
      "inputs": [
        {
          "name": "_who",
          "type": "address"
        }
      ],
      "name": "getKeep",
      "outputs": [
        {
          "name": "",
          "type": "bytes32"
        }
      ],
      "payable": false,
      "stateMutability": "view",
      "type": "function",
      "signature": "0xff8f10b9"
    },
    {
      "constant": false,
      "inputs": [
        {
          "name": "_amount",
          "type": "uint256"
        }
      ],
      "name": "deposit",
      "outputs": [],
      "payable": false,
      "stateMutability": "nonpayable",
      "type": "function",
      "signature": "0xb6b55f25"
    }
  ],
  "bytecode": "0x608060405234801561001057600080fd5b50604051606080611ae38339810180604052606081101561003057600080fd5b8101908080519060200190929190805190602001909291908051906020019092919050505082600860006101000a81548173ffffffffffffffffffffffffffffffffffffffff021916908373ffffffffffffffffffffffffffffffffffffffff16021790555081600960006101000a81548173ffffffffffffffffffffffffffffffffffffffff021916908373ffffffffffffffffffffffffffffffffffffffff1602179055506100ef336100fe640100000000026401000000009004565b80600a81905550505050610141565b806000806101000a81548173ffffffffffffffffffffffffffffffffffffffff021916908373ffffffffffffffffffffffffffffffffffffffff16021790555050565b611993806101506000396000f3fe6080604052600436106100d5576000357c01000000000000000000000000000000000000000000000000000000009004806316c38b3c146100da5780631789a386146101175780631d31f488146101945780633465b787146101db57806343bda5ed146102165780638da5cb5b1461028f5780638fa20c93146102e657806393790f44146103e6578063ac4c1ae21461044b578063b187bd26146104c4578063b6b55f25146104f3578063c150f6f61461052e578063c2d3c1e814610600578063e4683a7914610679578063ff8f10b9146106be575b600080fd5b3480156100e657600080fd5b50610115600480360360208110156100fd57600080fd5b81019080803515159060200190929190505050610723565b005b34801561012357600080fd5b5061017a6004803603606081101561013a57600080fd5b81019080803573ffffffffffffffffffffffffffffffffffffffff169060200190929190803590602001909291908035906020019092919050505061085b565b604051808215151515815260200191505060405180910390f35b3480156101a057600080fd5b506101d9600480360360408110156101b757600080fd5b81019080803590602001909291908035151590602001909291905050506108cc565b005b3480156101e757600080fd5b50610214600480360360208110156101fe57600080fd5b810190808035906020019092919050505061099b565b005b34801561022257600080fd5b5061028d600480360360a081101561023957600080fd5b8101908080359060200190929190803573ffffffffffffffffffffffffffffffffffffffff169060200190929190803590602001909291908035906020019092919080359060200190929190505050610a4c565b005b34801561029b57600080fd5b506102a4610c7c565b604051808273ffffffffffffffffffffffffffffffffffffffff1673ffffffffffffffffffffffffffffffffffffffff16815260200191505060405180910390f35b3480156102f257600080fd5b506103cc6004803603604081101561030957600080fd5b81019080803573ffffffffffffffffffffffffffffffffffffffff1690602001909291908035906020019064010000000081111561034657600080fd5b82018360208201111561035857600080fd5b8035906020019184600183028401116401000000008311171561037a57600080fd5b91908080601f016020809104026020016040519081016040528093929190818152602001838380828437600081840152601f19601f820116905080830192505050505050509192919290505050610ca5565b604051808215151515815260200191505060405180910390f35b3480156103f257600080fd5b506104356004803603602081101561040957600080fd5b81019080803573ffffffffffffffffffffffffffffffffffffffff169060200190929190505050610ccd565b6040518082815260200191505060405180910390f35b34801561045757600080fd5b506104c2600480360360a081101561046e57600080fd5b8101908080359060200190929190803573ffffffffffffffffffffffffffffffffffffffff169060200190929190803590602001909291908035906020019092919080359060200190929190505050610d16565b005b3480156104d057600080fd5b506104d9610f25565b604051808215151515815260200191505060405180910390f35b3480156104ff57600080fd5b5061052c6004803603602081101561051657600080fd5b8101908080359060200190929190505050610f3b565b005b34801561053a57600080fd5b506105fe6004803603604081101561055157600080fd5b81019080803590602001909291908035906020019064010000000081111561057857600080fd5b82018360208201111561058a57600080fd5b803590602001918460018302840111640100000000831117156105ac57600080fd5b91908080601f016020809104026020016040519081016040528093929190818152602001838380828437600081840152601f19601f820116905080830192505050505050509192919290505050611124565b005b34801561060c57600080fd5b50610677600480360360a081101561062357600080fd5b8101908080359060200190929190803573ffffffffffffffffffffffffffffffffffffffff1690602001909291908035906020019092919080359060200190929190803590602001909291905050506113dc565b005b34801561068557600080fd5b506106bc6004803603604081101561069c57600080fd5b810190808035906020019092919080359060200190929190505050611619565b005b3480156106ca57600080fd5b5061070d600480360360208110156106e157600080fd5b81019080803573ffffffffffffffffffffffffffffffffffffffff169060200190929190505050611888565b6040518082815260200191505060405180910390f35b3373ffffffffffffffffffffffffffffffffffffffff166000809054906101000a900473ffffffffffffffffffffffffffffffffffffffff1673ffffffffffffffffffffffffffffffffffffffff1614151561077e57600080fd5b610787816118d1565b600860009054906101000a900473ffffffffffffffffffffffffffffffffffffffff1673ffffffffffffffffffffffffffffffffffffffff166316c38b3c826040518263ffffffff167c01000000000000000000000000000000000000000000000000000000000281526004018082151515158152602001915050602060405180830381600087803b15801561081c57600080fd5b505af1158015610830573d6000803e3d6000fd5b505050506040513d602081101561084657600080fd5b81019080805190602001909291905050505050565b60008083836040516020018083815260200182815260200192505050604051602081830303815290604052805190602001206001900490508473ffffffffffffffffffffffffffffffffffffffff1673ffffffffffffffffffffffffffffffffffffffff8216149150509392505050565b600060149054906101000a900460ff161515156108e857600080fd5b6001600360008481526020019081526020016000205411151561090a57600080fd5b801561093f57606460046000848152602001908152602001600020540160046000848152602001908152602001600020819055505b6003600260036000858152602001908152602001600020540281151561096157fe5b04600460008481526020019081526020016000205410151561099757600160036000848152602001908152602001600020819055505b5050565b600060149054906101000a900460ff161515156109b757600080fd5b80600760003373ffffffffffffffffffffffffffffffffffffffff1673ffffffffffffffffffffffffffffffffffffffff168152602001908152602001600020819055503373ffffffffffffffffffffffffffffffffffffffff167fb765be34e57545df1454df4311b3be51db91aefd3701bb8d77079cdee4150236826040518082815260200191505060405180910390a250565b600060149054906101000a900460ff16151515610a6857600080fd5b600073ffffffffffffffffffffffffffffffffffffffff166002600087815260200190815260200160002060009054906101000a900473ffffffffffffffffffffffffffffffffffffffff1673ffffffffffffffffffffffffffffffffffffffff1614151515610b40576040517f08c379a000000000000000000000000000000000000000000000000000000000815260040180806020018281038252600e8152602001807f777368206973206e6f742030783000000000000000000000000000000000000081525060200191505060405180910390fd5b6000610bcc8686868686604051602001808681526020018573ffffffffffffffffffffffffffffffffffffffff1673ffffffffffffffffffffffffffffffffffffffff166c0100000000000000000000000002815260140184815260200183815260200182815260200195505050505050604051602081830303815290604052805190602001206118ee565b905060006001026001600088815260200190815260200160002054141515610c5c576040517f08c379a00000000000000000000000000000000000000000000000000000000081526004018080602001828103825260138152602001807f77736820697320616c726561647920757365640000000000000000000000000081525060200191505060405180910390fd5b806001600088815260200190815260200160002081905550505050505050565b60008060009054906101000a900473ffffffffffffffffffffffffffffffffffffffff16905090565b60008060006020840151915060408401519050610cc385838361085b565b9250505092915050565b6000600660008373ffffffffffffffffffffffffffffffffffffffff1673ffffffffffffffffffffffffffffffffffffffff168152602001908152602001600020549050919050565b600060149054906101000a900460ff16151515610d3257600080fd5b6000610dbe8686868686604051602001808681526020018573ffffffffffffffffffffffffffffffffffffffff1673ffffffffffffffffffffffffffffffffffffffff166c0100000000000000000000000002815260140184815260200183815260200182815260200195505050505050604051602081830303815290604052805190602001206118ee565b9050806001600088815260200190815260200160002054141515610de157600080fd5b60016003600088815260200190815260200160002054141515610e0357600080fd5b600860009054906101000a900473ffffffffffffffffffffffffffffffffffffffff1673ffffffffffffffffffffffffffffffffffffffff166340c10f1986866040518363ffffffff167c0100000000000000000000000000000000000000000000000000000000028152600401808373ffffffffffffffffffffffffffffffffffffffff1673ffffffffffffffffffffffffffffffffffffffff16815260200182815260200192505050602060405180830381600087803b158015610ec857600080fd5b505af1158015610edc573d6000803e3d6000fd5b505050506040513d6020811015610ef257600080fd5b81019080805190602001909291905050505060006003600088815260200190815260200160002081905550505050505050565b60008060149054906101000a900460ff16905090565b600060149054906101000a900460ff16151515610f5757600080fd5b600860009054906101000a900473ffffffffffffffffffffffffffffffffffffffff1673ffffffffffffffffffffffffffffffffffffffff166323b872dd3330846040518463ffffffff167c0100000000000000000000000000000000000000000000000000000000028152600401808473ffffffffffffffffffffffffffffffffffffffff1673ffffffffffffffffffffffffffffffffffffffff1681526020018373ffffffffffffffffffffffffffffffffffffffff1673ffffffffffffffffffffffffffffffffffffffff1681526020018281526020019350505050602060405180830381600087803b15801561105057600080fd5b505af1158015611064573d6000803e3d6000fd5b505050506040513d602081101561107a57600080fd5b8101908080519060200190929190505050506110de81600560003373ffffffffffffffffffffffffffffffffffffffff1673ffffffffffffffffffffffffffffffffffffffff1681526020019081526020016000205461194690919063ffffffff16565b600560003373ffffffffffffffffffffffffffffffffffffffff1673ffffffffffffffffffffffffffffffffffffffff1681526020019081526020016000208190555050565b600060149054906101000a900460ff1615151561114057600080fd5b61114a3382610ca5565b15156111be576040517f08c379a000000000000000000000000000000000000000000000000000000000815260040180806020018281038252601e8152602001807f6d73672e73656e646572206973206e6f74206d61746368207075626b6579000081525060200191505060405180910390fd5b600073ffffffffffffffffffffffffffffffffffffffff166002600084815260200190815260200160002060009054906101000a900473ffffffffffffffffffffffffffffffffffffffff1673ffffffffffffffffffffffffffffffffffffffff16141515611295576040517f08c379a000000000000000000000000000000000000000000000000000000000815260040180806020018281038252600a8152602001807f777368206973203078300000000000000000000000000000000000000000000081525060200191505060405180910390fd5b336002600084815260200190815260200160002060006101000a81548173ffffffffffffffffffffffffffffffffffffffff021916908373ffffffffffffffffffffffffffffffffffffffff1602179055506064600a54026003600084815260200190815260200160002081905550600060046000848152602001908152602001600020819055503373ffffffffffffffffffffffffffffffffffffffff167f339628ac99263b8add7ae55e85ec748eb6073140b05d4d5555a34c8f48bae17583836040518083815260200180602001828103825283818151815260200191508051906020019080838360005b8381101561139d578082015181840152602081019050611382565b50505050905090810190601f1680156113ca5780820380516001836020036101000a031916815260200191505b50935050505060405180910390a25050565b600060149054906101000a900460ff161515156113f857600080fd5b60006114848686868686604051602001808681526020018573ffffffffffffffffffffffffffffffffffffffff1673ffffffffffffffffffffffffffffffffffffffff166c0100000000000000000000000002815260140184815260200183815260200182815260200195505050505050604051602081830303815290604052805190602001206118ee565b90508060016000888152602001908152602001600020541415156114a757600080fd5b83600560008773ffffffffffffffffffffffffffffffffffffffff1673ffffffffffffffffffffffffffffffffffffffff16815260200190815260200160002054101515156114f557600080fd5b83600560008773ffffffffffffffffffffffffffffffffffffffff1673ffffffffffffffffffffffffffffffffffffffff1681526020019081526020016000205403600560008773ffffffffffffffffffffffffffffffffffffffff1673ffffffffffffffffffffffffffffffffffffffff16815260200190815260200160002081905550610e108301421115156115da577f3078313000000000000000000000000000000000000000000000000000000000600160008881526020019081526020016000205050826004600088815260200190815260200160002081905550611611565b7f30783230000000000000000000000000000000000000000000000000000000006001600088815260200190815260200160002050505b505050505050565b600060149054906101000a900460ff1615151561163557600080fd5b6000600360008481526020019081526020016000205414151561165757600080fd5b6004600083815260200190815260200160002054421115156117de577f307831300000000000000000000000000000000000000000000000000000000060016000600284604051602001808281526020019150506040516020818303038152906040526040518082805190602001908083835b6020831015156116ef57805182526020820191506020810190506020830392506116ca565b6001836020036101000a038019825116818451168082178552505050505050905001915050602060405180830381855afa158015611731573d6000803e3d6000fd5b5050506040513d602081101561174657600080fd5b810190808051906020019092919050505081526020019081526020016000205414156117d95760006002600084815260200190815260200160002060006101000a81548173ffffffffffffffffffffffffffffffffffffffff021916908373ffffffffffffffffffffffffffffffffffffffff160217905550600060046000848152602001908152602001600020819055505b611884565b600073ffffffffffffffffffffffffffffffffffffffff166002600084815260200190815260200160002060009054906101000a900473ffffffffffffffffffffffffffffffffffffffff1673ffffffffffffffffffffffffffffffffffffffff161415151561184d57600080fd5b7f30783130000000000000000000000000000000000000000000000000000000006001600084815260200190815260200160002050505b5050565b6000600760008373ffffffffffffffffffffffffffffffffffffffff1673ffffffffffffffffffffffffffffffffffffffff168152602001908152602001600020549050919050565b80600060146101000a81548160ff02191690831515021790555050565b60008160405160200180807f19457468657265756d205369676e6564204d6573736167653a0a333200000000815250601c01828152602001915050604051602081830303815290604052805190602001209050919050565b600080828401905083811015151561195d57600080fd5b809150509291505056fea165627a7a7230582045116d5456a35a11ca694f44449c0e1ac26f11c9e945bcdada1213e2e9eef2d40029",
  "source": "pragma solidity 0.5.1;\n\nimport \"./Utils/SigUtil.sol\";\nimport \"./Utils/SafeMath.sol\";\nimport \"./Utils/Role.sol\";\nimport \"./Utils/AddressManager.sol\";\nimport \"./Token/IToken.sol\";\nimport \"./IStakeManager.sol\";\n\n\ncontract Btc2eth1 is AddressManager, Role {\n    using SafeMath for uint256;\n\n    mapping(bytes32 => bytes32) private orders;\n    mapping(bytes32 => address) private wshmap; // sha256 hash\n    mapping(bytes32 => uint256) private valids;\n    mapping(bytes32 => uint256) private counts;\n    mapping(address => uint256) private minted;\n    mapping(address => bytes32) private keymap;\n    mapping(address => bytes32) private stored;\n\n    IToken private btct;\n    IStakeManager private sm;\n    uint256 private requireCount;\n\n    constructor (address _btct, address _sm, uint256 _requireCount) public {\n        btct = IToken(_btct);\n        sm = IStakeManager(_sm);\n        _setOwner(msg.sender);\n        requireCount = _requireCount;\n    }\n\n    // infrom updated wsh to other witness via ipfs\n    function keep(bytes32 _ipfsHash) public notPaused {\n        //require(sm.isSWC(msg.sender), \"msg.sender != witness\");\n        stored[msg.sender] = _ipfsHash;\n        emit KeepEvent(msg.sender, _ipfsHash);\n    }\n\n    // witness leader submit _wsh\n    function updateWsh(bytes32 _wsh, bytes memory _pubkey) public notPaused {\n        require(checkUserPubkey(msg.sender, _pubkey), \"msg.sender is not match pubkey\");\n        require(wshmap[_wsh] == address(0x0), \"wsh is 0x0\");\n        wshmap[_wsh] = msg.sender;\n        valids[_wsh] = requireCount * 100;\n        counts[_wsh] = 0;\n        emit UpdatedWsh(msg.sender, _wsh, _pubkey);\n    }\n\n    // lender htlc -> Witness secret -> go to treasury. Expired -> Bob pubkey -> refund\n    // minter htlc -> bob secret -> refund to alice, Expired ->  go to treasury\n    // signed by minter\n    function attachMint(\n        bytes32 _wsh,\n        address _minter,\n        uint256 _satoshis,\n        uint256 _period,\n        bytes32 _depositTx\n    ) public notPaused {\n        require(wshmap[_wsh] != address(0x0), \"wsh is not 0x0\");\n        bytes32 orderHash = SigUtil.prefixed(keccak256(abi.encodePacked(\n            _wsh,\n            _minter,\n            _satoshis,\n            _period,\n            _depositTx\n        )));\n        require(orders[_wsh] == 0x0, \"wsh is already used\");\n        //address signer = SigUtil.recover(orderHash, _sig);\n        //equire(signer == _minter, \"signer != _minter\");\n        orders[_wsh] = orderHash;\n    }\n\n    function validFromWitness(\n        bytes32 _wsh,\n        bool _isValid\n    ) public notPaused {\n        require(valids[_wsh] > 1);\n\n        if (_isValid) {\n            counts[_wsh] = counts[_wsh] + 100;\n        }\n        if (counts[_wsh] >= valids[_wsh] * 2/3) {\n            valids[_wsh] = 1;\n        }\n    }\n\n    function execMint(\n        bytes32 _wsh,\n        address _minter,\n        uint256 _satoshis,\n        uint256 _period,\n        bytes32 _depositTx\n    ) public notPaused {\n        bytes32 orderHash = SigUtil.prefixed(keccak256(abi.encodePacked(\n            _wsh,\n            _minter,\n            _satoshis,\n            _period,\n            _depositTx\n        )));\n        require(orders[_wsh] == orderHash);\n        require(valids[_wsh] == 1);\n\n        btct.mint(_minter, _satoshis);\n        valids[_wsh] = 0;\n    }\n\n    function execBurn(\n        bytes32 _wsh,\n        address _minter,\n        uint256 _satoshis,\n        uint256 _period,\n        bytes32 _depositTx\n    ) public notPaused {\n        bytes32 orderHash = SigUtil.prefixed(keccak256(abi.encodePacked(\n            _wsh,\n            _minter,\n            _satoshis,\n            _period,\n            _depositTx\n        )));\n        require(orders[_wsh] == orderHash);\n        require(minted[_minter] >= _satoshis);\n        minted[_minter] = minted[_minter] - _satoshis;\n        if (block.timestamp <= _period + 1 hours) {\n            orders[_wsh] == \"0x10\"; // burned by period\n            counts[_wsh] = _period;\n        } else {\n            orders[_wsh] == \"0x20\";\n        }\n    }\n\n    function refund(\n        bytes32 _wsh,\n        bytes32 _ws\n    ) public notPaused {\n        require(valids[_wsh] == 0); // 0 => minted\n        if (block.timestamp <= counts[_wsh]) {\n            if (orders[sha256(abi.encodePacked(_ws))] == \"0x10\") {\n                // reset\n                wshmap[_wsh] = address(0x0);\n                counts[_wsh] = 0;\n            }\n        } else {\n            require(wshmap[_wsh] != address(0x0));\n            if (orders[_wsh] == \"0x10\") {\n                // slash\n                //wshmap[_wsh] = \"0x40\";\n            }\n        }\n    }\n\n    function setPaused(bool _paused) public onlyOwner {\n        _setPaused(_paused);\n        btct.setPaused(_paused);\n    }\n\n    function getKey(address _who) public view returns (bytes32) {\n        return keymap[_who];\n    }\n\n    function getKeep(address _who) public view returns (bytes32) {\n        return stored[_who];\n    }\n\n    function deposit(uint256 _amount) public notPaused {\n        btct.transferFrom(msg.sender, address(this), _amount);\n        minted[msg.sender] = minted[msg.sender].add(_amount);\n    }\n\n    event UpdatedWsh(address indexed leader, bytes32 wsh, bytes pubkey);\n    event KeepEvent(address indexed sender, bytes32 ipfsHash);\n}\n",
  "sourcePath": "/Users/sengayusaku/repo/btc2eth1/contracts/Btc2eth1.sol",
  "compiler": {
    "name": "solc",
    "version": "0.5.1+commit.c8a2cb62.Emscripten.clang"
  },
  "schemaVersion": "3.0.6",
  "updatedAt": "2019-04-11T14:50:45.760Z",
  "devdoc": {
    "methods": {
      "checkEthPubKey(address,bytes32,bytes32)": {
        "details": "@param user user",
        "params": {
          "publicXPoint": "publicXPoint",
          "publicYPoint": "publicYPoint"
        },
        "return": "boolean"
      },
      "checkUserPubkey(address,bytes)": {
        "details": "@param _user _user",
        "params": {
          "_pubkey": "_pubkey"
        },
        "return": "boolean"
      }
    }
  },
  "userdoc": {
    "methods": {}
  }
}