{
  "contractName": "Btc2eth1",
  "abi": [
    {
      "constant": true,
      "inputs": [
        {
          "name": "user",
          "type": "address"
        },
        {
          "name": "publicXPoint",
          "type": "bytes32"
        },
        {
          "name": "publicYPoint",
          "type": "bytes32"
        }
      ],
      "name": "checkEthPubKey",
      "outputs": [
        {
          "name": "",
          "type": "bool"
        }
      ],
      "payable": false,
      "stateMutability": "pure",
      "type": "function",
      "signature": "0x1789a386"
    },
    {
      "constant": true,
      "inputs": [],
      "name": "owner",
      "outputs": [
        {
          "name": "",
          "type": "address"
        }
      ],
      "payable": false,
      "stateMutability": "view",
      "type": "function",
      "signature": "0x8da5cb5b"
    },
    {
      "constant": true,
      "inputs": [
        {
          "name": "_user",
          "type": "address"
        },
        {
          "name": "_pubkey",
          "type": "bytes"
        }
      ],
      "name": "checkUserPubkey",
      "outputs": [
        {
          "name": "",
          "type": "bool"
        }
      ],
      "payable": false,
      "stateMutability": "pure",
      "type": "function",
      "signature": "0x8fa20c93"
    },
    {
      "constant": true,
      "inputs": [],
      "name": "isPaused",
      "outputs": [
        {
          "name": "",
          "type": "bool"
        }
      ],
      "payable": false,
      "stateMutability": "view",
      "type": "function",
      "signature": "0xb187bd26"
    },
    {
      "inputs": [
        {
          "name": "_btct",
          "type": "address"
        },
        {
          "name": "_sm",
          "type": "address"
        },
        {
          "name": "_required",
          "type": "uint256"
        }
      ],
      "payable": false,
      "stateMutability": "nonpayable",
      "type": "constructor",
      "signature": "constructor"
    },
    {
      "anonymous": false,
      "inputs": [
        {
          "indexed": true,
          "name": "leader",
          "type": "address"
        },
        {
          "indexed": false,
          "name": "wsh",
          "type": "bytes32"
        }
      ],
      "name": "AddWshEvent",
      "type": "event",
      "signature": "0xcccdeb83e1735c85bece7135fc03d0fe6c2bccd7c3d54ce8431e21d21aa12f25"
    },
    {
      "anonymous": false,
      "inputs": [
        {
          "indexed": true,
          "name": "sender",
          "type": "address"
        },
        {
          "indexed": false,
          "name": "ipfsHash",
          "type": "bytes32"
        }
      ],
      "name": "KeepEvent",
      "type": "event",
      "signature": "0xb765be34e57545df1454df4311b3be51db91aefd3701bb8d77079cdee4150236"
    },
    {
      "constant": false,
      "inputs": [
        {
          "name": "_ipfsHash",
          "type": "bytes32"
        }
      ],
      "name": "keep",
      "outputs": [],
      "payable": false,
      "stateMutability": "nonpayable",
      "type": "function",
      "signature": "0x3465b787"
    },
    {
      "constant": false,
      "inputs": [
        {
          "name": "_wsh",
          "type": "bytes32"
        }
      ],
      "name": "addWsh",
      "outputs": [],
      "payable": false,
      "stateMutability": "nonpayable",
      "type": "function",
      "signature": "0xd5c35c4a"
    },
    {
      "constant": false,
      "inputs": [
        {
          "name": "_wsh",
          "type": "bytes32"
        },
        {
          "name": "_minter",
          "type": "address"
        },
        {
          "name": "_satoshis",
          "type": "uint256"
        },
        {
          "name": "_period",
          "type": "uint256"
        },
        {
          "name": "_depositTx",
          "type": "bytes32"
        }
      ],
      "name": "attachMint",
      "outputs": [],
      "payable": false,
      "stateMutability": "nonpayable",
      "type": "function",
      "signature": "0x43bda5ed"
    },
    {
      "constant": false,
      "inputs": [
        {
          "name": "_wsh",
          "type": "bytes32"
        },
        {
          "name": "_isValid",
          "type": "bool"
        }
      ],
      "name": "validFromWitness",
      "outputs": [],
      "payable": false,
      "stateMutability": "nonpayable",
      "type": "function",
      "signature": "0x1d31f488"
    },
    {
      "constant": false,
      "inputs": [
        {
          "name": "_wsh",
          "type": "bytes32"
        },
        {
          "name": "_minter",
          "type": "address"
        },
        {
          "name": "_satoshis",
          "type": "uint256"
        },
        {
          "name": "_period",
          "type": "uint256"
        },
        {
          "name": "_depositTx",
          "type": "bytes32"
        }
      ],
      "name": "execMint",
      "outputs": [],
      "payable": false,
      "stateMutability": "nonpayable",
      "type": "function",
      "signature": "0xac4c1ae2"
    },
    {
      "constant": false,
      "inputs": [
        {
          "name": "_wsh",
          "type": "bytes32"
        },
        {
          "name": "_minter",
          "type": "address"
        },
        {
          "name": "_satoshis",
          "type": "uint256"
        },
        {
          "name": "_period",
          "type": "uint256"
        },
        {
          "name": "_depositTx",
          "type": "bytes32"
        }
      ],
      "name": "execBurn",
      "outputs": [],
      "payable": false,
      "stateMutability": "nonpayable",
      "type": "function",
      "signature": "0xc2d3c1e8"
    },
    {
      "constant": false,
      "inputs": [
        {
          "name": "_wsh",
          "type": "bytes32"
        },
        {
          "name": "_ws",
          "type": "bytes32"
        }
      ],
      "name": "refund",
      "outputs": [],
      "payable": false,
      "stateMutability": "nonpayable",
      "type": "function",
      "signature": "0xe4683a79"
    },
    {
      "constant": false,
      "inputs": [
        {
          "name": "_paused",
          "type": "bool"
        }
      ],
      "name": "setPaused",
      "outputs": [],
      "payable": false,
      "stateMutability": "nonpayable",
      "type": "function",
      "signature": "0x16c38b3c"
    },
    {
      "constant": true,
      "inputs": [
        {
          "name": "_who",
          "type": "address"
        }
      ],
      "name": "getKey",
      "outputs": [
        {
          "name": "",
          "type": "bytes32"
        }
      ],
      "payable": false,
      "stateMutability": "view",
      "type": "function",
      "signature": "0x93790f44"
    },
    {
      "constant": true,
      "inputs": [
        {
          "name": "_wsh",
          "type": "bytes32"
        }
      ],
      "name": "getWshMap",
      "outputs": [
        {
          "name": "",
          "type": "address"
        }
      ],
      "payable": false,
      "stateMutability": "view",
      "type": "function",
      "signature": "0xcb2b3479"
    },
    {
      "constant": true,
      "inputs": [
        {
          "name": "_who",
          "type": "address"
        }
      ],
      "name": "getKeep",
      "outputs": [
        {
          "name": "",
          "type": "bytes32"
        }
      ],
      "payable": false,
      "stateMutability": "view",
      "type": "function",
      "signature": "0xff8f10b9"
    },
    {
      "constant": false,
      "inputs": [
        {
          "name": "_amount",
          "type": "uint256"
        }
      ],
      "name": "deposit",
      "outputs": [],
      "payable": false,
      "stateMutability": "nonpayable",
      "type": "function",
      "signature": "0xb6b55f25"
    }
  ],
  "bytecode": "0x608060405234801561001057600080fd5b50604051606080611a238339810180604052606081101561003057600080fd5b8101908080519060200190929190805190602001909291908051906020019092919050505082600860006101000a81548173ffffffffffffffffffffffffffffffffffffffff021916908373ffffffffffffffffffffffffffffffffffffffff16021790555081600960006101000a81548173ffffffffffffffffffffffffffffffffffffffff021916908373ffffffffffffffffffffffffffffffffffffffff1602179055506100ef336100fe640100000000026401000000009004565b80600a81905550505050610141565b806000806101000a81548173ffffffffffffffffffffffffffffffffffffffff021916908373ffffffffffffffffffffffffffffffffffffffff16021790555050565b6118d3806101506000396000f3fe6080604052600436106100e0576000357c01000000000000000000000000000000000000000000000000000000009004806316c38b3c146100e55780631789a386146101225780631d31f4881461019f5780633465b787146101e657806343bda5ed146102215780638da5cb5b1461029a5780638fa20c93146102f157806393790f44146103f1578063ac4c1ae214610456578063b187bd26146104cf578063b6b55f25146104fe578063c2d3c1e814610539578063cb2b3479146105b2578063d5c35c4a1461062d578063e4683a7914610668578063ff8f10b9146106ad575b600080fd5b3480156100f157600080fd5b506101206004803603602081101561010857600080fd5b81019080803515159060200190929190505050610712565b005b34801561012e57600080fd5b506101856004803603606081101561014557600080fd5b81019080803573ffffffffffffffffffffffffffffffffffffffff169060200190929190803590602001909291908035906020019092919050505061084a565b604051808215151515815260200191505060405180910390f35b3480156101ab57600080fd5b506101e4600480360360408110156101c257600080fd5b81019080803590602001909291908035151590602001909291905050506108bb565b005b3480156101f257600080fd5b5061021f6004803603602081101561020957600080fd5b810190808035906020019092919050505061098a565b005b34801561022d57600080fd5b50610298600480360360a081101561024457600080fd5b8101908080359060200190929190803573ffffffffffffffffffffffffffffffffffffffff169060200190929190803590602001909291908035906020019092919080359060200190929190505050610a3b565b005b3480156102a657600080fd5b506102af610c6b565b604051808273ffffffffffffffffffffffffffffffffffffffff1673ffffffffffffffffffffffffffffffffffffffff16815260200191505060405180910390f35b3480156102fd57600080fd5b506103d76004803603604081101561031457600080fd5b81019080803573ffffffffffffffffffffffffffffffffffffffff1690602001909291908035906020019064010000000081111561035157600080fd5b82018360208201111561036357600080fd5b8035906020019184600183028401116401000000008311171561038557600080fd5b91908080601f016020809104026020016040519081016040528093929190818152602001838380828437600081840152601f19601f820116905080830192505050505050509192919290505050610c94565b604051808215151515815260200191505060405180910390f35b3480156103fd57600080fd5b506104406004803603602081101561041457600080fd5b81019080803573ffffffffffffffffffffffffffffffffffffffff169060200190929190505050610cbc565b6040518082815260200191505060405180910390f35b34801561046257600080fd5b506104cd600480360360a081101561047957600080fd5b8101908080359060200190929190803573ffffffffffffffffffffffffffffffffffffffff169060200190929190803590602001909291908035906020019092919080359060200190929190505050610d05565b005b3480156104db57600080fd5b506104e4610f14565b604051808215151515815260200191505060405180910390f35b34801561050a57600080fd5b506105376004803603602081101561052157600080fd5b8101908080359060200190929190505050610f2a565b005b34801561054557600080fd5b506105b0600480360360a081101561055c57600080fd5b8101908080359060200190929190803573ffffffffffffffffffffffffffffffffffffffff169060200190929190803590602001909291908035906020019092919080359060200190929190505050611113565b005b3480156105be57600080fd5b506105eb600480360360208110156105d557600080fd5b8101908080359060200190929190505050611350565b604051808273ffffffffffffffffffffffffffffffffffffffff1673ffffffffffffffffffffffffffffffffffffffff16815260200191505060405180910390f35b34801561063957600080fd5b506106666004803603602081101561065057600080fd5b810190808035906020019092919050505061138d565b005b34801561067457600080fd5b506106ab6004803603604081101561068b57600080fd5b810190808035906020019092919080359060200190929190505050611559565b005b3480156106b957600080fd5b506106fc600480360360208110156106d057600080fd5b81019080803573ffffffffffffffffffffffffffffffffffffffff1690602001909291905050506117c8565b6040518082815260200191505060405180910390f35b3373ffffffffffffffffffffffffffffffffffffffff166000809054906101000a900473ffffffffffffffffffffffffffffffffffffffff1673ffffffffffffffffffffffffffffffffffffffff1614151561076d57600080fd5b61077681611811565b600860009054906101000a900473ffffffffffffffffffffffffffffffffffffffff1673ffffffffffffffffffffffffffffffffffffffff166316c38b3c826040518263ffffffff167c01000000000000000000000000000000000000000000000000000000000281526004018082151515158152602001915050602060405180830381600087803b15801561080b57600080fd5b505af115801561081f573d6000803e3d6000fd5b505050506040513d602081101561083557600080fd5b81019080805190602001909291905050505050565b60008083836040516020018083815260200182815260200192505050604051602081830303815290604052805190602001206001900490508473ffffffffffffffffffffffffffffffffffffffff1673ffffffffffffffffffffffffffffffffffffffff8216149150509392505050565b600060149054906101000a900460ff161515156108d757600080fd5b600160036000848152602001908152602001600020541115156108f957600080fd5b801561092e57606460046000848152602001908152602001600020540160046000848152602001908152602001600020819055505b6003600260036000858152602001908152602001600020540281151561095057fe5b04600460008481526020019081526020016000205410151561098657600160036000848152602001908152602001600020819055505b5050565b600060149054906101000a900460ff161515156109a657600080fd5b80600760003373ffffffffffffffffffffffffffffffffffffffff1673ffffffffffffffffffffffffffffffffffffffff168152602001908152602001600020819055503373ffffffffffffffffffffffffffffffffffffffff167fb765be34e57545df1454df4311b3be51db91aefd3701bb8d77079cdee4150236826040518082815260200191505060405180910390a250565b600060149054906101000a900460ff16151515610a5757600080fd5b600073ffffffffffffffffffffffffffffffffffffffff166002600087815260200190815260200160002060009054906101000a900473ffffffffffffffffffffffffffffffffffffffff1673ffffffffffffffffffffffffffffffffffffffff1614151515610b2f576040517f08c379a000000000000000000000000000000000000000000000000000000000815260040180806020018281038252600e8152602001807f777368206973206e6f742030783000000000000000000000000000000000000081525060200191505060405180910390fd5b6000610bbb8686868686604051602001808681526020018573ffffffffffffffffffffffffffffffffffffffff1673ffffffffffffffffffffffffffffffffffffffff166c01000000000000000000000000028152601401848152602001838152602001828152602001955050505050506040516020818303038152906040528051906020012061182e565b905060006001026001600088815260200190815260200160002054141515610c4b576040517f08c379a00000000000000000000000000000000000000000000000000000000081526004018080602001828103825260138152602001807f77736820697320616c726561647920757365640000000000000000000000000081525060200191505060405180910390fd5b806001600088815260200190815260200160002081905550505050505050565b60008060009054906101000a900473ffffffffffffffffffffffffffffffffffffffff16905090565b60008060006020840151915060408401519050610cb285838361084a565b9250505092915050565b6000600660008373ffffffffffffffffffffffffffffffffffffffff1673ffffffffffffffffffffffffffffffffffffffff168152602001908152602001600020549050919050565b600060149054906101000a900460ff16151515610d2157600080fd5b6000610dad8686868686604051602001808681526020018573ffffffffffffffffffffffffffffffffffffffff1673ffffffffffffffffffffffffffffffffffffffff166c01000000000000000000000000028152601401848152602001838152602001828152602001955050505050506040516020818303038152906040528051906020012061182e565b9050806001600088815260200190815260200160002054141515610dd057600080fd5b60016003600088815260200190815260200160002054141515610df257600080fd5b600860009054906101000a900473ffffffffffffffffffffffffffffffffffffffff1673ffffffffffffffffffffffffffffffffffffffff166340c10f1986866040518363ffffffff167c0100000000000000000000000000000000000000000000000000000000028152600401808373ffffffffffffffffffffffffffffffffffffffff1673ffffffffffffffffffffffffffffffffffffffff16815260200182815260200192505050602060405180830381600087803b158015610eb757600080fd5b505af1158015610ecb573d6000803e3d6000fd5b505050506040513d6020811015610ee157600080fd5b81019080805190602001909291905050505060006003600088815260200190815260200160002081905550505050505050565b60008060149054906101000a900460ff16905090565b600060149054906101000a900460ff16151515610f4657600080fd5b600860009054906101000a900473ffffffffffffffffffffffffffffffffffffffff1673ffffffffffffffffffffffffffffffffffffffff166323b872dd3330846040518463ffffffff167c0100000000000000000000000000000000000000000000000000000000028152600401808473ffffffffffffffffffffffffffffffffffffffff1673ffffffffffffffffffffffffffffffffffffffff1681526020018373ffffffffffffffffffffffffffffffffffffffff1673ffffffffffffffffffffffffffffffffffffffff1681526020018281526020019350505050602060405180830381600087803b15801561103f57600080fd5b505af1158015611053573d6000803e3d6000fd5b505050506040513d602081101561106957600080fd5b8101908080519060200190929190505050506110cd81600560003373ffffffffffffffffffffffffffffffffffffffff1673ffffffffffffffffffffffffffffffffffffffff1681526020019081526020016000205461188690919063ffffffff16565b600560003373ffffffffffffffffffffffffffffffffffffffff1673ffffffffffffffffffffffffffffffffffffffff1681526020019081526020016000208190555050565b600060149054906101000a900460ff1615151561112f57600080fd5b60006111bb8686868686604051602001808681526020018573ffffffffffffffffffffffffffffffffffffffff1673ffffffffffffffffffffffffffffffffffffffff166c01000000000000000000000000028152601401848152602001838152602001828152602001955050505050506040516020818303038152906040528051906020012061182e565b90508060016000888152602001908152602001600020541415156111de57600080fd5b83600560008773ffffffffffffffffffffffffffffffffffffffff1673ffffffffffffffffffffffffffffffffffffffff168152602001908152602001600020541015151561122c57600080fd5b83600560008773ffffffffffffffffffffffffffffffffffffffff1673ffffffffffffffffffffffffffffffffffffffff1681526020019081526020016000205403600560008773ffffffffffffffffffffffffffffffffffffffff1673ffffffffffffffffffffffffffffffffffffffff16815260200190815260200160002081905550610e10830142111515611311577f3078313000000000000000000000000000000000000000000000000000000000600160008881526020019081526020016000205050826004600088815260200190815260200160002081905550611348565b7f30783230000000000000000000000000000000000000000000000000000000006001600088815260200190815260200160002050505b505050505050565b60006002600083815260200190815260200160002060009054906101000a900473ffffffffffffffffffffffffffffffffffffffff169050919050565b600060149054906101000a900460ff161515156113a957600080fd5b600073ffffffffffffffffffffffffffffffffffffffff166002600083815260200190815260200160002060009054906101000a900473ffffffffffffffffffffffffffffffffffffffff1673ffffffffffffffffffffffffffffffffffffffff16141515611480576040517f08c379a000000000000000000000000000000000000000000000000000000000815260040180806020018281038252600a8152602001807f777368206973203078300000000000000000000000000000000000000000000081525060200191505060405180910390fd5b336002600083815260200190815260200160002060006101000a81548173ffffffffffffffffffffffffffffffffffffffff021916908373ffffffffffffffffffffffffffffffffffffffff1602179055506064600a54026003600083815260200190815260200160002081905550600060046000838152602001908152602001600020819055503373ffffffffffffffffffffffffffffffffffffffff167fcccdeb83e1735c85bece7135fc03d0fe6c2bccd7c3d54ce8431e21d21aa12f25826040518082815260200191505060405180910390a250565b600060149054906101000a900460ff1615151561157557600080fd5b6000600360008481526020019081526020016000205414151561159757600080fd5b60046000838152602001908152602001600020544211151561171e577f307831300000000000000000000000000000000000000000000000000000000060016000600284604051602001808281526020019150506040516020818303038152906040526040518082805190602001908083835b60208310151561162f578051825260208201915060208101905060208303925061160a565b6001836020036101000a038019825116818451168082178552505050505050905001915050602060405180830381855afa158015611671573d6000803e3d6000fd5b5050506040513d602081101561168657600080fd5b810190808051906020019092919050505081526020019081526020016000205414156117195760006002600084815260200190815260200160002060006101000a81548173ffffffffffffffffffffffffffffffffffffffff021916908373ffffffffffffffffffffffffffffffffffffffff160217905550600060046000848152602001908152602001600020819055505b6117c4565b600073ffffffffffffffffffffffffffffffffffffffff166002600084815260200190815260200160002060009054906101000a900473ffffffffffffffffffffffffffffffffffffffff1673ffffffffffffffffffffffffffffffffffffffff161415151561178d57600080fd5b7f30783130000000000000000000000000000000000000000000000000000000006001600084815260200190815260200160002050505b5050565b6000600760008373ffffffffffffffffffffffffffffffffffffffff1673ffffffffffffffffffffffffffffffffffffffff168152602001908152602001600020549050919050565b80600060146101000a81548160ff02191690831515021790555050565b60008160405160200180807f19457468657265756d205369676e6564204d6573736167653a0a333200000000815250601c01828152602001915050604051602081830303815290604052805190602001209050919050565b600080828401905083811015151561189d57600080fd5b809150509291505056fea165627a7a72305820402d05318701bf4a195877a7fe03d4491259e79e5cf7db8d93ed471793a824ba0029",
  "source": "pragma solidity 0.5.1;\n\nimport \"./Utils/SigUtil.sol\";\nimport \"./Utils/SafeMath.sol\";\nimport \"./Utils/Role.sol\";\nimport \"./Utils/AddressManager.sol\";\nimport \"./Token/IToken.sol\";\nimport \"./IStakeManager.sol\";\n\n\ncontract Btc2eth1 is AddressManager, Role {\n    using SafeMath for uint256;\n\n    mapping(bytes32 => bytes32) private orders;\n    mapping(bytes32 => address) private wshmap; // sha256 hash\n    mapping(bytes32 => uint256) private valids;\n    mapping(bytes32 => uint256) private counts;\n    mapping(address => uint256) private minted;\n    mapping(address => bytes32) private keymap;\n    mapping(address => bytes32) private stored;\n\n    IToken private btct;\n    IStakeManager private sm;\n    uint256 private requireCount;\n\n    constructor (address _btct, address _sm, uint256 _required) public {\n        btct = IToken(_btct);\n        sm = IStakeManager(_sm);\n        _setOwner(msg.sender);\n        requireCount = _required;\n    }\n\n    // infrom updated wsh to other witness via ipfs\n    function keep(bytes32 _ipfsHash) public notPaused {\n        //require(sm.isSWC(msg.sender), \"msg.sender != witness\");\n        stored[msg.sender] = _ipfsHash;\n        emit KeepEvent(msg.sender, _ipfsHash);\n    }\n\n    // witness leader submit _wsh\n    function addWsh(bytes32 _wsh) public notPaused {\n        require(wshmap[_wsh] == address(0x0), \"wsh is 0x0\");\n        wshmap[_wsh] = msg.sender;\n        valids[_wsh] = requireCount * 100;\n        counts[_wsh] = 0;\n        emit AddWshEvent(msg.sender, _wsh);\n    }\n\n    // lender htlc -> Witness secret -> go to treasury. Expired -> Bob pubkey -> refund\n    // minter htlc -> bob secret -> refund to alice, Expired ->  go to treasury\n    // signed by minter\n    function attachMint(\n        bytes32 _wsh,\n        address _minter,\n        uint256 _satoshis,\n        uint256 _period,\n        bytes32 _depositTx\n    ) public notPaused {\n        require(wshmap[_wsh] != address(0x0), \"wsh is not 0x0\");\n        bytes32 orderHash = SigUtil.prefixed(keccak256(abi.encodePacked(\n            _wsh,\n            _minter,\n            _satoshis,\n            _period,\n            _depositTx\n        )));\n        require(orders[_wsh] == 0x0, \"wsh is already used\");\n        //address signer = SigUtil.recover(orderHash, _sig);\n        //equire(signer == _minter, \"signer != _minter\");\n        orders[_wsh] = orderHash;\n    }\n\n    function validFromWitness(\n        bytes32 _wsh,\n        bool _isValid\n    ) public notPaused {\n        require(valids[_wsh] > 1);\n\n        if (_isValid) {\n            counts[_wsh] = counts[_wsh] + 100;\n        }\n        if (counts[_wsh] >= valids[_wsh] * 2/3) {\n            valids[_wsh] = 1;\n        }\n    }\n\n    function execMint(\n        bytes32 _wsh,\n        address _minter,\n        uint256 _satoshis,\n        uint256 _period,\n        bytes32 _depositTx\n    ) public notPaused {\n        bytes32 orderHash = SigUtil.prefixed(keccak256(abi.encodePacked(\n            _wsh,\n            _minter,\n            _satoshis,\n            _period,\n            _depositTx\n        )));\n        require(orders[_wsh] == orderHash);\n        require(valids[_wsh] == 1);\n\n        btct.mint(_minter, _satoshis);\n        valids[_wsh] = 0;\n    }\n\n    function execBurn(\n        bytes32 _wsh,\n        address _minter,\n        uint256 _satoshis,\n        uint256 _period,\n        bytes32 _depositTx\n    ) public notPaused {\n        bytes32 orderHash = SigUtil.prefixed(keccak256(abi.encodePacked(\n            _wsh,\n            _minter,\n            _satoshis,\n            _period,\n            _depositTx\n        )));\n        require(orders[_wsh] == orderHash);\n        require(minted[_minter] >= _satoshis);\n        minted[_minter] = minted[_minter] - _satoshis;\n        if (block.timestamp <= _period + 1 hours) {\n            orders[_wsh] == \"0x10\"; // burned by period\n            counts[_wsh] = _period;\n        } else {\n            orders[_wsh] == \"0x20\";\n        }\n    }\n\n    function refund(\n        bytes32 _wsh,\n        bytes32 _ws\n    ) public notPaused {\n        require(valids[_wsh] == 0); // 0 => minted\n        if (block.timestamp <= counts[_wsh]) {\n            if (orders[sha256(abi.encodePacked(_ws))] == \"0x10\") {\n                // reset\n                wshmap[_wsh] = address(0x0);\n                counts[_wsh] = 0;\n            }\n        } else {\n            require(wshmap[_wsh] != address(0x0));\n            if (orders[_wsh] == \"0x10\") {\n                // slash\n                //wshmap[_wsh] = \"0x40\";\n            }\n        }\n    }\n\n    function setPaused(bool _paused) public onlyOwner {\n        _setPaused(_paused);\n        btct.setPaused(_paused);\n    }\n\n    function getKey(address _who) public view returns (bytes32) {\n        return keymap[_who];\n    }\n\n    function getWshMap(bytes32 _wsh) public view returns (address) {\n        return wshmap[_wsh];\n    }\n\n    function getKeep(address _who) public view returns (bytes32) {\n        return stored[_who];\n    }\n\n    function deposit(uint256 _amount) public notPaused {\n        btct.transferFrom(msg.sender, address(this), _amount);\n        minted[msg.sender] = minted[msg.sender].add(_amount);\n    }\n\n    event AddWshEvent(address indexed leader, bytes32 wsh);\n    event KeepEvent(address indexed sender, bytes32 ipfsHash);\n}\n",
  "sourcePath": "/Users/sengayusaku/repo/btc2eth1/contracts/Btc2eth1.sol",
  "compiler": {
    "name": "solc",
    "version": "0.5.1+commit.c8a2cb62.Emscripten.clang"
  },
  "schemaVersion": "3.0.6",
  "updatedAt": "2019-04-12T10:20:13.969Z",
  "devdoc": {
    "methods": {
      "checkEthPubKey(address,bytes32,bytes32)": {
        "details": "@param user user",
        "params": {
          "publicXPoint": "publicXPoint",
          "publicYPoint": "publicYPoint"
        },
        "return": "boolean"
      },
      "checkUserPubkey(address,bytes)": {
        "details": "@param _user _user",
        "params": {
          "_pubkey": "_pubkey"
        },
        "return": "boolean"
      }
    }
  },
  "userdoc": {
    "methods": {}
  }
}