{
  "contractName": "Btc2eth1",
  "abi": [
    {
      "constant": true,
      "inputs": [
        {
          "name": "user",
          "type": "address"
        },
        {
          "name": "publicXPoint",
          "type": "bytes32"
        },
        {
          "name": "publicYPoint",
          "type": "bytes32"
        }
      ],
      "name": "checkEthPubKey",
      "outputs": [
        {
          "name": "",
          "type": "bool"
        }
      ],
      "payable": false,
      "stateMutability": "pure",
      "type": "function",
      "signature": "0x1789a386"
    },
    {
      "constant": true,
      "inputs": [],
      "name": "owner",
      "outputs": [
        {
          "name": "",
          "type": "address"
        }
      ],
      "payable": false,
      "stateMutability": "view",
      "type": "function",
      "signature": "0x8da5cb5b"
    },
    {
      "constant": true,
      "inputs": [
        {
          "name": "_user",
          "type": "address"
        },
        {
          "name": "_pubkey",
          "type": "bytes"
        }
      ],
      "name": "checkUserPubkey",
      "outputs": [
        {
          "name": "",
          "type": "bool"
        }
      ],
      "payable": false,
      "stateMutability": "pure",
      "type": "function",
      "signature": "0x8fa20c93"
    },
    {
      "constant": true,
      "inputs": [],
      "name": "isPaused",
      "outputs": [
        {
          "name": "",
          "type": "bool"
        }
      ],
      "payable": false,
      "stateMutability": "view",
      "type": "function",
      "signature": "0xb187bd26"
    },
    {
      "inputs": [
        {
          "name": "_btct",
          "type": "address"
        },
        {
          "name": "_stma",
          "type": "address"
        },
        {
          "name": "_step",
          "type": "uint256"
        }
      ],
      "payable": false,
      "stateMutability": "nonpayable",
      "type": "constructor",
      "signature": "constructor"
    },
    {
      "anonymous": false,
      "inputs": [
        {
          "indexed": true,
          "name": "own",
          "type": "address"
        },
        {
          "indexed": false,
          "name": "wsh",
          "type": "bytes32"
        }
      ],
      "name": "AddWshEvent",
      "type": "event",
      "signature": "0xcccdeb83e1735c85bece7135fc03d0fe6c2bccd7c3d54ce8431e21d21aa12f25"
    },
    {
      "anonymous": false,
      "inputs": [
        {
          "indexed": true,
          "name": "own",
          "type": "address"
        },
        {
          "indexed": false,
          "name": "ipf",
          "type": "bytes32"
        }
      ],
      "name": "KeepEvent",
      "type": "event",
      "signature": "0xb765be34e57545df1454df4311b3be51db91aefd3701bb8d77079cdee4150236"
    },
    {
      "anonymous": false,
      "inputs": [
        {
          "indexed": false,
          "name": "wsh",
          "type": "bytes32"
        },
        {
          "indexed": false,
          "name": "lsh",
          "type": "bytes32"
        },
        {
          "indexed": false,
          "name": "sats",
          "type": "uint256"
        },
        {
          "indexed": false,
          "name": "end",
          "type": "uint256"
        },
        {
          "indexed": false,
          "name": "txOne",
          "type": "bytes32"
        }
      ],
      "name": "EntangleOneEvent",
      "type": "event",
      "signature": "0x1578b8289accf8dfbfc82dccb7c1ed00315cc92798f88298ff0146898af5c904"
    },
    {
      "anonymous": false,
      "inputs": [
        {
          "indexed": false,
          "name": "wsh",
          "type": "bytes32"
        },
        {
          "indexed": false,
          "name": "txTwo",
          "type": "bytes32"
        }
      ],
      "name": "EntangleTwoEvent",
      "type": "event",
      "signature": "0x6133c3cc56ff6cb37424285b7de755eb2cd5a0b4f2f916d3834db4b03da36b23"
    },
    {
      "constant": false,
      "inputs": [
        {
          "name": "_ipf",
          "type": "bytes32"
        }
      ],
      "name": "keep",
      "outputs": [],
      "payable": false,
      "stateMutability": "nonpayable",
      "type": "function",
      "signature": "0x3465b787"
    },
    {
      "constant": false,
      "inputs": [
        {
          "name": "_wsh",
          "type": "bytes32"
        }
      ],
      "name": "addWsh",
      "outputs": [],
      "payable": false,
      "stateMutability": "nonpayable",
      "type": "function",
      "signature": "0xd5c35c4a"
    },
    {
      "constant": false,
      "inputs": [
        {
          "name": "_wsh",
          "type": "bytes32"
        },
        {
          "name": "_lsh",
          "type": "bytes32"
        },
        {
          "name": "_sats",
          "type": "uint256"
        },
        {
          "name": "_end",
          "type": "uint256"
        },
        {
          "name": "_txOne",
          "type": "bytes32"
        }
      ],
      "name": "entangleOne",
      "outputs": [],
      "payable": false,
      "stateMutability": "nonpayable",
      "type": "function",
      "signature": "0xc8897243"
    },
    {
      "constant": false,
      "inputs": [
        {
          "name": "_wsh",
          "type": "bytes32"
        },
        {
          "name": "_txTwo",
          "type": "bytes32"
        }
      ],
      "name": "entangleTwo",
      "outputs": [],
      "payable": false,
      "stateMutability": "nonpayable",
      "type": "function",
      "signature": "0x88cc0f7f"
    },
    {
      "constant": false,
      "inputs": [
        {
          "name": "_wsh",
          "type": "bytes32"
        }
      ],
      "name": "approveStep",
      "outputs": [],
      "payable": false,
      "stateMutability": "nonpayable",
      "type": "function",
      "signature": "0x67f284b6"
    },
    {
      "constant": false,
      "inputs": [
        {
          "name": "_wsh",
          "type": "bytes32"
        },
        {
          "name": "_lsh",
          "type": "bytes32"
        },
        {
          "name": "_sats",
          "type": "uint256"
        },
        {
          "name": "_end",
          "type": "uint256"
        },
        {
          "name": "_lender",
          "type": "address"
        }
      ],
      "name": "pop",
      "outputs": [],
      "payable": false,
      "stateMutability": "nonpayable",
      "type": "function",
      "signature": "0xdc13eee6"
    },
    {
      "constant": false,
      "inputs": [
        {
          "name": "_wsh",
          "type": "bytes32"
        },
        {
          "name": "_lsh",
          "type": "bytes32"
        },
        {
          "name": "_sats",
          "type": "uint256"
        },
        {
          "name": "_end",
          "type": "uint256"
        },
        {
          "name": "_lender",
          "type": "bytes32"
        }
      ],
      "name": "del",
      "outputs": [],
      "payable": false,
      "stateMutability": "nonpayable",
      "type": "function",
      "signature": "0x6df876df"
    },
    {
      "constant": false,
      "inputs": [
        {
          "name": "_sats",
          "type": "uint256"
        }
      ],
      "name": "boom",
      "outputs": [],
      "payable": false,
      "stateMutability": "nonpayable",
      "type": "function",
      "signature": "0xb443a085"
    },
    {
      "constant": false,
      "inputs": [
        {
          "name": "_paused",
          "type": "bool"
        }
      ],
      "name": "setPaused",
      "outputs": [],
      "payable": false,
      "stateMutability": "nonpayable",
      "type": "function",
      "signature": "0x16c38b3c"
    },
    {
      "constant": true,
      "inputs": [
        {
          "name": "_wsh",
          "type": "bytes32"
        }
      ],
      "name": "getWshMap",
      "outputs": [
        {
          "name": "",
          "type": "address"
        }
      ],
      "payable": false,
      "stateMutability": "view",
      "type": "function",
      "signature": "0xcb2b3479"
    },
    {
      "constant": true,
      "inputs": [
        {
          "name": "_wsh",
          "type": "bytes32"
        }
      ],
      "name": "getCount",
      "outputs": [
        {
          "name": "",
          "type": "uint256"
        }
      ],
      "payable": false,
      "stateMutability": "view",
      "type": "function",
      "signature": "0xc9d6fee9"
    },
    {
      "constant": true,
      "inputs": [
        {
          "name": "_who",
          "type": "address"
        }
      ],
      "name": "getKeep",
      "outputs": [
        {
          "name": "",
          "type": "bytes32"
        }
      ],
      "payable": false,
      "stateMutability": "view",
      "type": "function",
      "signature": "0xff8f10b9"
    }
  ],
  "bytecode": "0x608060405234801561001057600080fd5b50604051606080611d3c8339810180604052606081101561003057600080fd5b8101908080519060200190929190805190602001909291908051906020019092919050505082600660006101000a81548173ffffffffffffffffffffffffffffffffffffffff021916908373ffffffffffffffffffffffffffffffffffffffff16021790555081600760006101000a81548173ffffffffffffffffffffffffffffffffffffffff021916908373ffffffffffffffffffffffffffffffffffffffff160217905550806008819055506100f6336100fe640100000000026401000000009004565b505050610141565b806000806101000a81548173ffffffffffffffffffffffffffffffffffffffff021916908373ffffffffffffffffffffffffffffffffffffffff16021790555050565b611bec806101506000396000f3fe6080604052600436106100e0576000357c01000000000000000000000000000000000000000000000000000000009004806316c38b3c146100e55780631789a386146101225780633465b7871461019f57806367f284b6146101da5780636df876df1461021557806388cc0f7f146102785780638da5cb5b146102bd5780638fa20c9314610314578063b187bd2614610414578063b443a08514610443578063c88972431461047e578063c9d6fee9146104e1578063cb2b347914610530578063d5c35c4a146105ab578063dc13eee6146105e6578063ff8f10b91461065f575b600080fd5b3480156100f157600080fd5b506101206004803603602081101561010857600080fd5b810190808035151590602001909291905050506106c4565b005b34801561012e57600080fd5b506101856004803603606081101561014557600080fd5b81019080803573ffffffffffffffffffffffffffffffffffffffff16906020019092919080359060200190929190803590602001909291905050506107fc565b604051808215151515815260200191505060405180910390f35b3480156101ab57600080fd5b506101d8600480360360208110156101c257600080fd5b810190808035906020019092919050505061086d565b005b3480156101e657600080fd5b50610213600480360360208110156101fd57600080fd5b810190808035906020019092919050505061091e565b005b34801561022157600080fd5b50610276600480360360a081101561023857600080fd5b810190808035906020019092919080359060200190929190803590602001909291908035906020019092919080359060200190929190505050610b05565b005b34801561028457600080fd5b506102bb6004803603604081101561029b57600080fd5b810190808035906020019092919080359060200190929190505050610e79565b005b3480156102c957600080fd5b506102d26110f0565b604051808273ffffffffffffffffffffffffffffffffffffffff1673ffffffffffffffffffffffffffffffffffffffff16815260200191505060405180910390f35b34801561032057600080fd5b506103fa6004803603604081101561033757600080fd5b81019080803573ffffffffffffffffffffffffffffffffffffffff1690602001909291908035906020019064010000000081111561037457600080fd5b82018360208201111561038657600080fd5b803590602001918460018302840111640100000000831117156103a857600080fd5b91908080601f016020809104026020016040519081016040528093929190818152602001838380828437600081840152601f19601f820116905080830192505050505050509192919290505050611119565b604051808215151515815260200191505060405180910390f35b34801561042057600080fd5b50610429611141565b604051808215151515815260200191505060405180910390f35b34801561044f57600080fd5b5061047c6004803603602081101561046657600080fd5b8101908080359060200190929190505050611157565b005b34801561048a57600080fd5b506104df600480360360a08110156104a157600080fd5b810190808035906020019092919080359060200190929190803590602001909291908035906020019092919080359060200190929190505050611390565b005b3480156104ed57600080fd5b5061051a6004803603602081101561050457600080fd5b8101908080359060200190929190505050611647565b6040518082815260200191505060405180910390f35b34801561053c57600080fd5b506105696004803603602081101561055357600080fd5b8101908080359060200190929190505050611664565b604051808273ffffffffffffffffffffffffffffffffffffffff1673ffffffffffffffffffffffffffffffffffffffff16815260200191505060405180910390f35b3480156105b757600080fd5b506105e4600480360360208110156105ce57600080fd5b81019080803590602001909291905050506116a1565b005b3480156105f257600080fd5b5061065d600480360360a081101561060957600080fd5b8101908080359060200190929190803590602001909291908035906020019092919080359060200190929190803573ffffffffffffffffffffffffffffffffffffffff169060200190929190505050611850565b005b34801561066b57600080fd5b506106ae6004803603602081101561068257600080fd5b81019080803573ffffffffffffffffffffffffffffffffffffffff169060200190929190505050611b39565b6040518082815260200191505060405180910390f35b3373ffffffffffffffffffffffffffffffffffffffff166000809054906101000a900473ffffffffffffffffffffffffffffffffffffffff1673ffffffffffffffffffffffffffffffffffffffff1614151561071f57600080fd5b61072881611b82565b600660009054906101000a900473ffffffffffffffffffffffffffffffffffffffff1673ffffffffffffffffffffffffffffffffffffffff166316c38b3c826040518263ffffffff167c01000000000000000000000000000000000000000000000000000000000281526004018082151515158152602001915050602060405180830381600087803b1580156107bd57600080fd5b505af11580156107d1573d6000803e3d6000fd5b505050506040513d60208110156107e757600080fd5b81019080805190602001909291905050505050565b60008083836040516020018083815260200182815260200192505050604051602081830303815290604052805190602001206001900490508473ffffffffffffffffffffffffffffffffffffffff1673ffffffffffffffffffffffffffffffffffffffff8216149150509392505050565b600060149054906101000a900460ff1615151561088957600080fd5b80600560003373ffffffffffffffffffffffffffffffffffffffff1673ffffffffffffffffffffffffffffffffffffffff168152602001908152602001600020819055503373ffffffffffffffffffffffffffffffffffffffff167fb765be34e57545df1454df4311b3be51db91aefd3701bb8d77079cdee4150236826040518082815260200191505060405180910390a250565b600060149054906101000a900460ff1615151561093a57600080fd5b60006001026002600083815260200190815260200160002054141515156109c9576040517f08c379a00000000000000000000000000000000000000000000000000000000081526004018080602001828103825260168152602001807f6c656e646572206973206e6f742061747461636865640000000000000000000081525060200191505060405180910390fd5b600073ffffffffffffffffffffffffffffffffffffffff166003600083815260200190815260200160002060009054906101000a900473ffffffffffffffffffffffffffffffffffffffff1673ffffffffffffffffffffffffffffffffffffffff1614151515610aa1576040517f08c379a00000000000000000000000000000000000000000000000000000000081526004018080602001828103825260168152602001807f6d696e746572206973206e6f742061747461636865640000000000000000000081525060200191505060405180910390fd5b6002600460008381526020019081526020016000205410151515610ac457600080fd5b610aeb60016004600084815260200190815260200160002054611b9f90919063ffffffff16565b600460008381526020019081526020016000208190555050565b600060149054906101000a900460ff16151515610b2157600080fd5b600085858585856040516020018086815260200185815260200184815260200183815260200182815260200195505050505050604051602081830303815290604052805190602001209050806002600088815260200190815260200160002054141515610b8d57600080fd5b3373ffffffffffffffffffffffffffffffffffffffff166003600088815260200190815260200160002060009054906101000a900473ffffffffffffffffffffffffffffffffffffffff1673ffffffffffffffffffffffffffffffffffffffff16141515610bfa57600080fd5b7fffffffffffffffffffffffffffffffffffffffffffffffffffffffffffffffff6004600088815260200190815260200160002054141515610c3b57600080fd5b600660009054906101000a900473ffffffffffffffffffffffffffffffffffffffff1673ffffffffffffffffffffffffffffffffffffffff166323b872dd3330876040518463ffffffff167c0100000000000000000000000000000000000000000000000000000000028152600401808473ffffffffffffffffffffffffffffffffffffffff1673ffffffffffffffffffffffffffffffffffffffff1681526020018373ffffffffffffffffffffffffffffffffffffffff1673ffffffffffffffffffffffffffffffffffffffff1681526020018281526020019350505050602060405180830381600087803b158015610d3457600080fd5b505af1158015610d48573d6000803e3d6000fd5b505050506040513d6020811015610d5e57600080fd5b810190808051906020019092919050505050600660009054906101000a900473ffffffffffffffffffffffffffffffffffffffff1673ffffffffffffffffffffffffffffffffffffffff16639dc29fac30866040518363ffffffff167c0100000000000000000000000000000000000000000000000000000000028152600401808373ffffffffffffffffffffffffffffffffffffffff1673ffffffffffffffffffffffffffffffffffffffff16815260200182815260200192505050602060405180830381600087803b158015610e3557600080fd5b505af1158015610e49573d6000803e3d6000fd5b505050506040513d6020811015610e5f57600080fd5b810190808051906020019092919050505050505050505050565b600060149054906101000a900460ff16151515610e9557600080fd5b6000600102600260008481526020019081526020016000205414151515610f24576040517f08c379a00000000000000000000000000000000000000000000000000000000081526004018080602001828103825260168152602001807f6c656e646572206973206e6f742061747461636865640000000000000000000081525060200191505060405180910390fd5b600073ffffffffffffffffffffffffffffffffffffffff166003600084815260200190815260200160002060009054906101000a900473ffffffffffffffffffffffffffffffffffffffff1673ffffffffffffffffffffffffffffffffffffffff16141515610ffb576040517f08c379a000000000000000000000000000000000000000000000000000000000815260040180806020018281038252601d8152602001807f77736820697320616c72656164792075736564206279206d696e74657200000081525060200191505060405180910390fd5b6001600460008481526020019081526020016000205414151561101d57600080fd5b336003600084815260200190815260200160002060006101000a81548173ffffffffffffffffffffffffffffffffffffffff021916908373ffffffffffffffffffffffffffffffffffffffff16021790555061109660016004600085815260200190815260200160002054611b9f90919063ffffffff16565b60046000848152602001908152602001600020819055507f6133c3cc56ff6cb37424285b7de755eb2cd5a0b4f2f916d3834db4b03da36b238282604051808381526020018281526020019250505060405180910390a15050565b60008060009054906101000a900473ffffffffffffffffffffffffffffffffffffffff16905090565b600080600060208401519150604084015190506111378583836107fc565b9250505092915050565b60008060149054906101000a900460ff16905090565b600660009054906101000a900473ffffffffffffffffffffffffffffffffffffffff1673ffffffffffffffffffffffffffffffffffffffff166323b872dd3330846040518463ffffffff167c0100000000000000000000000000000000000000000000000000000000028152600401808473ffffffffffffffffffffffffffffffffffffffff1673ffffffffffffffffffffffffffffffffffffffff1681526020018373ffffffffffffffffffffffffffffffffffffffff1673ffffffffffffffffffffffffffffffffffffffff1681526020018281526020019350505050602060405180830381600087803b15801561125057600080fd5b505af1158015611264573d6000803e3d6000fd5b505050506040513d602081101561127a57600080fd5b810190808051906020019092919050505050600660009054906101000a900473ffffffffffffffffffffffffffffffffffffffff1673ffffffffffffffffffffffffffffffffffffffff16639dc29fac30836040518363ffffffff167c0100000000000000000000000000000000000000000000000000000000028152600401808373ffffffffffffffffffffffffffffffffffffffff1673ffffffffffffffffffffffffffffffffffffffff16815260200182815260200192505050602060405180830381600087803b15801561135157600080fd5b505af1158015611365573d6000803e3d6000fd5b505050506040513d602081101561137b57600080fd5b81019080805190602001909291905050505050565b600060149054906101000a900460ff161515156113ac57600080fd5b600073ffffffffffffffffffffffffffffffffffffffff166001600087815260200190815260200160002060009054906101000a900473ffffffffffffffffffffffffffffffffffffffff1673ffffffffffffffffffffffffffffffffffffffff1614151515611484576040517f08c379a000000000000000000000000000000000000000000000000000000000815260040180806020018281038252600e8152602001807f777368206973206e6f742030783000000000000000000000000000000000000081525060200191505060405180910390fd5b60006001026002600087815260200190815260200160002054141515611512576040517f08c379a000000000000000000000000000000000000000000000000000000000815260040180806020018281038252601d8152602001807f77736820697320616c72656164792075736564206279206c656e64657200000081525060200191505060405180910390fd5b8484848433604051602001808681526020018581526020018481526020018381526020018273ffffffffffffffffffffffffffffffffffffffff1673ffffffffffffffffffffffffffffffffffffffff166c01000000000000000000000000028152601401955050505050506040516020818303038152906040528051906020012060026000878152602001908152602001600020819055506115d260016004600088815260200190815260200160002054611b9f90919063ffffffff16565b60046000878152602001908152602001600020819055507f1578b8289accf8dfbfc82dccb7c1ed00315cc92798f88298ff0146898af5c9048585858585604051808681526020018581526020018481526020018381526020018281526020019550505050505060405180910390a15050505050565b600060046000838152602001908152602001600020549050919050565b60006001600083815260200190815260200160002060009054906101000a900473ffffffffffffffffffffffffffffffffffffffff169050919050565b600060149054906101000a900460ff161515156116bd57600080fd5b600073ffffffffffffffffffffffffffffffffffffffff166001600083815260200190815260200160002060009054906101000a900473ffffffffffffffffffffffffffffffffffffffff1673ffffffffffffffffffffffffffffffffffffffff16141515611794576040517f08c379a000000000000000000000000000000000000000000000000000000000815260040180806020018281038252600a8152602001807f777368206973203078300000000000000000000000000000000000000000000081525060200191505060405180910390fd5b336001600083815260200190815260200160002060006101000a81548173ffffffffffffffffffffffffffffffffffffffff021916908373ffffffffffffffffffffffffffffffffffffffff160217905550600060046000838152602001908152602001600020819055503373ffffffffffffffffffffffffffffffffffffffff167fcccdeb83e1735c85bece7135fc03d0fe6c2bccd7c3d54ce8431e21d21aa12f25826040518082815260200191505060405180910390a250565b600060149054906101000a900460ff1615151561186c57600080fd5b60008585858585604051602001808681526020018581526020018481526020018381526020018273ffffffffffffffffffffffffffffffffffffffff1673ffffffffffffffffffffffffffffffffffffffff166c010000000000000000000000000281526014019550505050505060405160208183030381529060405280519060200120905080600260008881526020019081526020016000205414151561191357600080fd5b3373ffffffffffffffffffffffffffffffffffffffff166003600088815260200190815260200160002060009054906101000a900473ffffffffffffffffffffffffffffffffffffffff1673ffffffffffffffffffffffffffffffffffffffff1614151561198057600080fd5b7fffffffffffffffffffffffffffffffffffffffffffffffffffffffffffffffff60046000888152602001908152602001600020541015156119c157600080fd5b6119d76002600854611b9f90919063ffffffff16565b6004600088815260200190815260200160002054101515156119f857600080fd5b600660009054906101000a900473ffffffffffffffffffffffffffffffffffffffff1673ffffffffffffffffffffffffffffffffffffffff166340c10f1933866040518363ffffffff167c0100000000000000000000000000000000000000000000000000000000028152600401808373ffffffffffffffffffffffffffffffffffffffff1673ffffffffffffffffffffffffffffffffffffffff16815260200182815260200192505050602060405180830381600087803b158015611abd57600080fd5b505af1158015611ad1573d6000803e3d6000fd5b505050506040513d6020811015611ae757600080fd5b8101908080519060200190929190505050507fffffffffffffffffffffffffffffffffffffffffffffffffffffffffffffffff6004600088815260200190815260200160002081905550505050505050565b6000600560008373ffffffffffffffffffffffffffffffffffffffff1673ffffffffffffffffffffffffffffffffffffffff168152602001908152602001600020549050919050565b80600060146101000a81548160ff02191690831515021790555050565b6000808284019050838110151515611bb657600080fd5b809150509291505056fea165627a7a72305820b65c93ec9eb69e378fe3a76aa9413d3dd2ac15688fde66b5e221cb596418db970029",
  "source": "pragma solidity 0.5.1;\n\nimport \"./Utils/SigUtil.sol\";\nimport \"./Utils/SafeMath.sol\";\nimport \"./Utils/Role.sol\";\nimport \"./Utils/AddressManager.sol\";\nimport \"./Token/IToken.sol\";\nimport \"./IStakeManager.sol\";\n\n\ncontract Btc2eth1 is AddressManager, Role {\n    using SafeMath for uint256;\n\n    mapping(bytes32 => address) private wshmap; // sha256 hash\n    mapping(bytes32 => bytes32) private lender;\n    mapping(bytes32 => address) private minter;\n    mapping(bytes32 => uint256) private counts;\n    mapping(address => bytes32) private stored;\n\n    IToken private          btct;\n    IStakeManager private   stma;\n    uint256 private         step;\n\n    constructor (address _btct, address _stma, uint256 _step) public {\n        btct = IToken(_btct);\n        stma = IStakeManager(_stma);\n        step = _step;\n        _setOwner(msg.sender);\n    }\n\n    // infrom updated wsh to other witness via ipfs\n    function keep(bytes32 _ipf) public notPaused {\n        //require(sm.isSWC(msg.sender), \"msg.sender != witness\");\n        stored[msg.sender] = _ipf;\n        emit KeepEvent(msg.sender, _ipf);\n    }\n\n    // witness leader submit _wsh\n    function addWsh(bytes32 _wsh) public notPaused {\n        require(wshmap[_wsh] == address(0x0), \"wsh is 0x0\");\n        wshmap[_wsh] = msg.sender;\n        counts[_wsh] = 0;\n        emit AddWshEvent(msg.sender, _wsh);\n    }\n\n    // lender htlc -> Witness secret -> go to treasury. Expired -> Bob pubkey -> refund\n    // minter htlc -> bob secret -> refund to alice, Expired ->  go to treasury\n    function entangleOne(bytes32 _wsh, bytes32 _lsh, uint256 _sats, uint256 _end, bytes32 _txOne) public notPaused {\n        require(wshmap[_wsh] != address(0x0), \"wsh is not 0x0\");\n        require(lender[_wsh] == 0x0, \"wsh is already used by lender\");\n        lender[_wsh] = keccak256(abi.encodePacked(_wsh, _lsh, _sats, _end, msg.sender));\n        counts[_wsh] = counts[_wsh].add(1);\n        emit EntangleOneEvent(_wsh, _lsh, _sats, _end, _txOne);\n    }\n\n    function entangleTwo(bytes32 _wsh, bytes32 _txTwo) public notPaused {\n        require(lender[_wsh] != 0x0, \"lender is not attached\");\n        require(minter[_wsh] == address(0x0), \"wsh is already used by minter\");\n        require(counts[_wsh] == 1);\n        minter[_wsh] = msg.sender;\n        counts[_wsh] = counts[_wsh].add(1);\n        emit EntangleTwoEvent(_wsh, _txTwo);\n    }\n\n    function approveStep(bytes32 _wsh) public notPaused {\n        require(lender[_wsh] != 0x0, \"lender is not attached\");\n        require(minter[_wsh] != address(0x0), \"minter is not attached\");\n        require(counts[_wsh] >= 2);\n        counts[_wsh] = counts[_wsh].add(1);\n    }\n\n    function pop(bytes32 _wsh, bytes32 _lsh, uint256 _sats, uint256 _end, address _lender) public notPaused {\n        bytes32 lenderTxHash = keccak256(abi.encodePacked(_wsh, _lsh, _sats, _end, _lender));\n        require(lender[_wsh] == lenderTxHash);\n        require(minter[_wsh] == msg.sender);\n        require(counts[_wsh] < 2 ** 256 - 1);\n        require(counts[_wsh] >= step.add(2));\n        btct.mint(msg.sender, _sats);\n        counts[_wsh] = 2 ** 256 - 1; // minted flag\n    }\n\n    function del(bytes32 _wsh, bytes32 _lsh, uint256 _sats, uint256 _end, bytes32 _lender) public notPaused {\n        bytes32 lenderTxHash = keccak256(abi.encodePacked(_wsh, _lsh, _sats, _end, _lender));\n        require(lender[_wsh] == lenderTxHash);\n        require(minter[_wsh] == msg.sender);\n        require(counts[_wsh] == 2 ** 256 - 1);\n        btct.transferFrom(msg.sender, address(this), _sats);\n        btct.burn(address(this), _sats);\n    }\n\n    function boom(uint256 _sats) public {\n        btct.transferFrom(msg.sender, address(this), _sats);\n        btct.burn(address(this), _sats);\n    }\n\n    function setPaused(bool _paused) public onlyOwner {\n        _setPaused(_paused);\n        btct.setPaused(_paused);\n    }\n\n    function getWshMap(bytes32 _wsh) public view returns (address) {\n        return wshmap[_wsh];\n    }\n\n    function getCount(bytes32 _wsh) public view returns (uint256) {\n        return counts[_wsh];\n    }\n\n    function getKeep(address _who) public view returns (bytes32) {\n        return stored[_who];\n    }\n\n    event AddWshEvent(address indexed own, bytes32 wsh);\n    event KeepEvent(address indexed own, bytes32 ipf);\n    event EntangleOneEvent(bytes32 wsh, bytes32 lsh, uint256 sats, uint256 end, bytes32 txOne);\n    event EntangleTwoEvent(bytes32 wsh, bytes32 txTwo);\n}\n",
  "sourcePath": "/Users/sengayusaku/repo/btc2eth1/contracts/Btc2eth1.sol",
  "compiler": {
    "name": "solc",
    "version": "0.5.1+commit.c8a2cb62.Emscripten.clang"
  },
  "schemaVersion": "3.0.6",
  "updatedAt": "2019-04-16T14:23:41.044Z",
  "devdoc": {
    "methods": {
      "checkEthPubKey(address,bytes32,bytes32)": {
        "details": "@param user user",
        "params": {
          "publicXPoint": "publicXPoint",
          "publicYPoint": "publicYPoint"
        },
        "return": "boolean"
      },
      "checkUserPubkey(address,bytes)": {
        "details": "@param _user _user",
        "params": {
          "_pubkey": "_pubkey"
        },
        "return": "boolean"
      }
    }
  },
  "userdoc": {
    "methods": {}
  }
}