{
  "contractName": "Constant",
  "abi": [
    {
      "constant": true,
      "inputs": [],
      "name": "SWINGBY_TX_TYPEHASH",
      "outputs": [
        {
          "name": "",
          "type": "bytes32"
        }
      ],
      "payable": false,
      "stateMutability": "view",
      "type": "function"
    }
  ],
  "bytecode": "0x6080604052348015600f57600080fd5b5060bf8061001e6000396000f3fe608060405260043610603f576000357c0100000000000000000000000000000000000000000000000000000000900463ffffffff168063881967f9146044575b600080fd5b348015604f57600080fd5b506056606c565b6040518082815260200191505060405180910390f35b7f199aa146523304760a88092ee1dd338a68f10185375827f1e838ab5e9bd1622b6001028156fea165627a7a72305820a751a77cf0e69731c305ddce7a7667ec991bdd9d2ee698f4ee09609062be353f0029",
  "source": "pragma solidity 0.5.0;\n\n/**\n * @title Constant \n * @dev \n */\n\ncontract Constant { \n    // Swingby Tx hash type\n    //keccak256(\n    //    \"SwingbyTx(address _from,address _to,uint256 _amount,uint256 _nonce)\"\n    //);\n    bytes32 public constant SWINGBY_TX_TYPEHASH = 0x199aa146523304760a88092ee1dd338a68f10185375827f1e838ab5e9bd1622b;\n\n}",
  "sourcePath": "/Users/sengayusaku/repo/btc2eth1/contracts/Utils/Constant.sol",
  "compiler": {
    "name": "solc",
    "version": "0.5.0+commit.1d4f565a.Emscripten.clang"
  },
  "schemaVersion": "3.0.2",
  "updatedAt": "2019-03-19T05:59:41.313Z",
  "devdoc": {
    "methods": {},
    "title": "Constant "
  },
  "userdoc": {
    "methods": {}
  }
}