{
  "contractName": "Constant",
  "abi": [
    {
      "constant": true,
      "inputs": [],
      "name": "DOMAIN_SEPARATOR_THASH",
      "outputs": [
        {
          "name": "",
          "type": "bytes32"
        }
      ],
      "payable": false,
      "stateMutability": "view",
      "type": "function"
    },
    {
      "constant": true,
      "inputs": [],
      "name": "SWINGBY_TX_THASH",
      "outputs": [
        {
          "name": "",
          "type": "bytes32"
        }
      ],
      "payable": false,
      "stateMutability": "view",
      "type": "function"
    }
  ],
  "bytecode": "0x608060405234801561001057600080fd5b50610112806100206000396000f3fe6080604052600436106043576000357c010000000000000000000000000000000000000000000000000000000090048063a17ca996146048578063ee93fb86146070575b600080fd5b348015605357600080fd5b50605a6098565b6040518082815260200191505060405180910390f35b348015607b57600080fd5b50608260bf565b6040518082815260200191505060405180910390f35b7f035aff83d86937d35b32e04f0ddc6ff469290eef2f1b692d8a815c89404d474960010281565b7f199aa146523304760a88092ee1dd338a68f10185375827f1e838ab5e9bd1622b6001028156fea165627a7a7230582028fe2e1f774a72ea373ff4132e6469cb0fb5628aab042b5a6279de97a7be08330029",
  "source": "pragma solidity 0.5.1;\n\n/**\n * @title Constant\n * @dev Implementation of the Constant\n */\n\ncontract Constant {\n    // Swingby Tx hash type\n    //keccak256(\n    //    \"SwingbyTx(address _from,address _to,uint256 _amount,uint256 _nonce)\"\n    //);\n    bytes32 public constant SWINGBY_TX_THASH = 0x199aa146523304760a88092ee1dd338a68f10185375827f1e838ab5e9bd1622b;\n\n    //keccak256(\n    //    \"EIP712Domain(address verifyingContract)\"\n    //);\n    bytes32 public constant DOMAIN_SEPARATOR_THASH = 0x035aff83d86937d35b32e04f0ddc6ff469290eef2f1b692d8a815c89404d4749;\n\n    bytes4 constant internal ERC1271_MAGICVALUE = 0x20c13b0b;\n}",
  "sourcePath": "/Users/sengayusaku/repo/btc2eth1/contracts/Utils/Constant.sol",
  "compiler": {
    "name": "solc",
    "version": "0.5.1+commit.c8a2cb62.Emscripten.clang"
  },
  "schemaVersion": "3.0.6",
  "updatedAt": "2019-04-10T06:17:21.730Z",
  "devdoc": {
    "details": "Implementation of the Constant",
    "methods": {},
    "title": "Constant"
  },
  "userdoc": {
    "methods": {}
  }
}