{
  "contractName": "Constant",
  "abi": [
    {
      "constant": true,
      "inputs": [],
      "name": "SWINGBY_TX_TYPEHASH",
      "outputs": [
        {
          "name": "",
          "type": "bytes32"
        }
      ],
      "payable": false,
      "stateMutability": "view",
      "type": "function"
    }
  ],
  "bytecode": "0x6080604052348015600f57600080fd5b5060b98061001e6000396000f3fe6080604052600436106039576000357c010000000000000000000000000000000000000000000000000000000090048063881967f914603e575b600080fd5b348015604957600080fd5b5060506066565b6040518082815260200191505060405180910390f35b7f199aa146523304760a88092ee1dd338a68f10185375827f1e838ab5e9bd1622b6001028156fea165627a7a723058204811696709326a2ac0dd2f2de5a4f256ab4b826e91476357fb1bed04cb7fbc2c0029",
  "source": "pragma solidity 0.5.1;\n\n/**\n * @title Constant \n * @dev \n */\n\ncontract Constant { \n    // Swingby Tx hash type\n    //keccak256(\n    //    \"SwingbyTx(address _from,address _to,uint256 _amount,uint256 _nonce)\"\n    //);\n    bytes32 public constant SWINGBY_TX_TYPEHASH = 0x199aa146523304760a88092ee1dd338a68f10185375827f1e838ab5e9bd1622b;\n\n}",
  "sourcePath": "/Users/sengayusaku/repo/btc2eth1/contracts/Utils/Constant.sol",
  "compiler": {
    "name": "solc",
    "version": "0.5.1+commit.c8a2cb62.Emscripten.clang"
  },
  "schemaVersion": "3.0.5",
  "updatedAt": "2019-03-23T08:45:58.532Z",
  "devdoc": {
    "methods": {},
    "title": "Constant "
  },
  "userdoc": {
    "methods": {}
  }
}