{
  "contractName": "Role",
  "abi": [
    {
      "constant": true,
      "inputs": [],
      "name": "getOwner",
      "outputs": [
        {
          "name": "",
          "type": "address"
        }
      ],
      "payable": false,
      "stateMutability": "view",
      "type": "function"
    }
  ],
  "bytecode": "0x608060405234801561001057600080fd5b5060ed8061001f6000396000f3fe608060405260043610603f576000357c0100000000000000000000000000000000000000000000000000000000900463ffffffff168063893d20e8146044575b600080fd5b348015604f57600080fd5b5060566098565b604051808273ffffffffffffffffffffffffffffffffffffffff1673ffffffffffffffffffffffffffffffffffffffff16815260200191505060405180910390f35b60008060009054906101000a900473ffffffffffffffffffffffffffffffffffffffff1690509056fea165627a7a72305820af6f0afc4835b09b41afaa954b415a92db06560408db250f61c95e6335c2a55a0029",
  "source": "pragma solidity 0.5.0;\n\n/**\n * @title Role \n * @dev \n */\n\ncontract Role { \n    \n    address private owner;\n    bool    private paused;\n\n    modifier onlyOwner {\n        require(owner == msg.sender);\n        _;\n    }\n    \n    modifier notPaused {\n        require(!paused);\n        _;\n    }\n\n    function getOwner() public view returns (address) {\n        return owner;\n    }\n\n    function _setOwner(address _owner) internal {\n        owner = _owner;\n    }\n\n    function _setPaused(bool _paused) internal {\n        paused = _paused;\n    }\n}\n",
  "sourcePath": "/Users/sengayusaku/repo/btc2eth1/contracts/Utils/Role.sol",
  "compiler": {
    "name": "solc",
    "version": "0.5.0+commit.1d4f565a.Emscripten.clang"
  },
  "schemaVersion": "3.0.2",
  "updatedAt": "2019-03-20T13:10:30.973Z",
  "devdoc": {
    "methods": {},
    "title": "Role "
  },
  "userdoc": {
    "methods": {}
  }
}