{
  "contractName": "Role",
  "abi": [
    {
      "constant": true,
      "inputs": [],
      "name": "owner",
      "outputs": [
        {
          "name": "",
          "type": "address"
        }
      ],
      "payable": false,
      "stateMutability": "view",
      "type": "function"
    },
    {
      "constant": true,
      "inputs": [],
      "name": "isPaused",
      "outputs": [
        {
          "name": "",
          "type": "bool"
        }
      ],
      "payable": false,
      "stateMutability": "view",
      "type": "function"
    }
  ],
  "bytecode": "0x608060405234801561001057600080fd5b5061013c806100206000396000f3fe608060405260043610610046576000357c0100000000000000000000000000000000000000000000000000000000900480638da5cb5b1461004b578063b187bd26146100a2575b600080fd5b34801561005757600080fd5b506100606100d1565b604051808273ffffffffffffffffffffffffffffffffffffffff1673ffffffffffffffffffffffffffffffffffffffff16815260200191505060405180910390f35b3480156100ae57600080fd5b506100b76100fa565b604051808215151515815260200191505060405180910390f35b60008060009054906101000a900473ffffffffffffffffffffffffffffffffffffffff16905090565b60008060149054906101000a900460ff1690509056fea165627a7a723058209bdc82ead5634d7a17023e38f12e1abb574de279e5b4ccf25a09cf653fefc77f0029",
  "source": "pragma solidity 0.5.1;\n\n/**\n * @title Role\n * @dev Implementation of the Role contract\n */\n\ncontract Role {\n\n    address private _owner;\n    bool    private _paused;\n\n    modifier onlyOwner {\n        require(_owner == msg.sender);\n        _;\n    }\n\n    modifier notPaused {\n        require(!_paused);\n        _;\n    }\n\n    function owner() public view returns (address) {\n        return _owner;\n    }\n\n    function isPaused() public view returns (bool) {\n        return _paused;\n    }\n\n    function _setOwner(address newOwner) internal {\n        _owner = newOwner;\n    }\n\n    function _setPaused(bool paused) internal {\n        _paused = paused;\n    }\n}\n",
  "sourcePath": "/Users/sengayusaku/repo/btc2eth1/contracts/Utils/Role.sol",
  "compiler": {
    "name": "solc",
    "version": "0.5.1+commit.c8a2cb62.Emscripten.clang"
  },
  "schemaVersion": "3.0.6",
  "updatedAt": "2019-04-10T06:17:21.730Z",
  "devdoc": {
    "details": "Implementation of the Role contract",
    "methods": {},
    "title": "Role"
  },
  "userdoc": {
    "methods": {}
  }
}