{
  "contractName": "StakeManager",
  "abi": [
    {
      "constant": false,
      "inputs": [
        {
          "name": "_amount",
          "type": "uint256"
        }
      ],
      "name": "spend",
      "outputs": [
        {
          "name": "",
          "type": "bool"
        }
      ],
      "payable": false,
      "stateMutability": "nonpayable",
      "type": "function",
      "signature": "0x1dbf3bc7"
    },
    {
      "constant": false,
      "inputs": [
        {
          "name": "_amount",
          "type": "uint256"
        }
      ],
      "name": "withdraw",
      "outputs": [
        {
          "name": "",
          "type": "bool"
        }
      ],
      "payable": false,
      "stateMutability": "nonpayable",
      "type": "function",
      "signature": "0x2e1a7d4d"
    },
    {
      "constant": false,
      "inputs": [
        {
          "name": "_who",
          "type": "address"
        }
      ],
      "name": "depute",
      "outputs": [
        {
          "name": "",
          "type": "bool"
        }
      ],
      "payable": false,
      "stateMutability": "nonpayable",
      "type": "function",
      "signature": "0x3975dd04"
    },
    {
      "constant": false,
      "inputs": [
        {
          "name": "_from",
          "type": "address"
        },
        {
          "name": "_amount",
          "type": "uint256"
        }
      ],
      "name": "deposit",
      "outputs": [
        {
          "name": "",
          "type": "bool"
        }
      ],
      "payable": false,
      "stateMutability": "nonpayable",
      "type": "function",
      "signature": "0x47e7ef24"
    },
    {
      "constant": true,
      "inputs": [
        {
          "name": "_who",
          "type": "address"
        }
      ],
      "name": "getStake",
      "outputs": [
        {
          "name": "",
          "type": "uint256"
        }
      ],
      "payable": false,
      "stateMutability": "view",
      "type": "function",
      "signature": "0x7a766460"
    },
    {
      "constant": true,
      "inputs": [],
      "name": "getGov",
      "outputs": [
        {
          "name": "",
          "type": "address"
        }
      ],
      "payable": false,
      "stateMutability": "view",
      "type": "function",
      "signature": "0xa2ab2dee"
    },
    {
      "constant": false,
      "inputs": [
        {
          "name": "_gov",
          "type": "address"
        },
        {
          "name": "_shares",
          "type": "uint256"
        }
      ],
      "name": "setup",
      "outputs": [],
      "payable": false,
      "stateMutability": "nonpayable",
      "type": "function",
      "signature": "0xf46d1982"
    },
    {
      "inputs": [
        {
          "name": "_gov",
          "type": "address"
        },
        {
          "name": "_shares",
          "type": "uint256"
        },
        {
          "name": "_wasted",
          "type": "uint256"
        }
      ],
      "payable": false,
      "stateMutability": "nonpayable",
      "type": "constructor",
      "signature": "constructor"
    },
    {
      "payable": true,
      "stateMutability": "payable",
      "type": "fallback"
    },
    {
      "anonymous": false,
      "inputs": [
        {
          "indexed": false,
          "name": "_who",
          "type": "address"
        },
        {
          "indexed": false,
          "name": "_amount",
          "type": "uint256"
        }
      ],
      "name": "DepositEvent",
      "type": "event",
      "signature": "0x2d8a08b6430a894aea608bcaa6013d5d3e263bc49110605e4d4ba76930ae5c29"
    },
    {
      "anonymous": false,
      "inputs": [
        {
          "indexed": false,
          "name": "join",
          "type": "bool"
        },
        {
          "indexed": false,
          "name": "who",
          "type": "address"
        },
        {
          "indexed": false,
          "name": "period",
          "type": "uint256"
        }
      ],
      "name": "SubmittedProposal",
      "type": "event",
      "signature": "0x688c616cad046ff54f3220c609f5cb710a98b202caa5cc945462a3f533a05d4f"
    },
    {
      "anonymous": false,
      "inputs": [
        {
          "indexed": false,
          "name": "sender",
          "type": "address"
        },
        {
          "indexed": false,
          "name": "vote",
          "type": "bool"
        },
        {
          "indexed": false,
          "name": "total",
          "type": "uint256"
        }
      ],
      "name": "Voted",
      "type": "event",
      "signature": "0x591a89b27b3057021df052ec15caa0a817c1894bcb52243ed0c8cdaa83f322be"
    },
    {
      "anonymous": false,
      "inputs": [
        {
          "indexed": false,
          "name": "_who",
          "type": "address"
        },
        {
          "indexed": false,
          "name": "_amount",
          "type": "uint256"
        }
      ],
      "name": "WithdrawEvent",
      "type": "event",
      "signature": "0x5dba113b49cfa7c90315e8e604e6b506f7abcb909b01dcb19ec39005086e68fc"
    },
    {
      "anonymous": false,
      "inputs": [
        {
          "indexed": false,
          "name": "_owner",
          "type": "address"
        },
        {
          "indexed": false,
          "name": "_who",
          "type": "address"
        }
      ],
      "name": "DeputeEvent",
      "type": "event",
      "signature": "0x660b9aa11ecf84e6ac5da55cc25c08d226f3c6bdcbf413cc1f0d919032cd7514"
    },
    {
      "anonymous": false,
      "inputs": [
        {
          "indexed": false,
          "name": "_owner",
          "type": "address"
        },
        {
          "indexed": false,
          "name": "_who",
          "type": "address"
        }
      ],
      "name": "ResignEvent",
      "type": "event",
      "signature": "0x6d8682ff6b3e12367dae01562a3ec8b1720ff5e6843def8f64291837c35cdfd3"
    },
    {
      "anonymous": false,
      "inputs": [
        {
          "indexed": false,
          "name": "_who",
          "type": "address"
        },
        {
          "indexed": false,
          "name": "_amount",
          "type": "uint256"
        }
      ],
      "name": "SpendEvent",
      "type": "event",
      "signature": "0x06131bcc28ec32de6ef2770e611649956182eeee5d9e08c0701bb822bc693477"
    },
    {
      "constant": false,
      "inputs": [
        {
          "name": "_join",
          "type": "bool"
        },
        {
          "name": "_who",
          "type": "address"
        },
        {
          "name": "_period",
          "type": "uint256"
        }
      ],
      "name": "submitAgenda",
      "outputs": [
        {
          "name": "",
          "type": "bool"
        }
      ],
      "payable": false,
      "stateMutability": "nonpayable",
      "type": "function",
      "signature": "0x1b17af3f"
    },
    {
      "constant": false,
      "inputs": [
        {
          "name": "_vote",
          "type": "bool"
        }
      ],
      "name": "vote",
      "outputs": [
        {
          "name": "",
          "type": "bool"
        }
      ],
      "payable": false,
      "stateMutability": "nonpayable",
      "type": "function",
      "signature": "0x4b9f5c98"
    },
    {
      "constant": false,
      "inputs": [
        {
          "name": "_join",
          "type": "bool"
        },
        {
          "name": "_who",
          "type": "address"
        },
        {
          "name": "_period",
          "type": "uint256"
        },
        {
          "name": "_sender",
          "type": "address"
        }
      ],
      "name": "close",
      "outputs": [
        {
          "name": "",
          "type": "bool"
        }
      ],
      "payable": false,
      "stateMutability": "nonpayable",
      "type": "function",
      "signature": "0xc239add8"
    },
    {
      "constant": false,
      "inputs": [
        {
          "name": "_who",
          "type": "address"
        }
      ],
      "name": "resign",
      "outputs": [
        {
          "name": "",
          "type": "bool"
        }
      ],
      "payable": false,
      "stateMutability": "nonpayable",
      "type": "function",
      "signature": "0xae6e43f5"
    },
    {
      "constant": true,
      "inputs": [],
      "name": "getScore",
      "outputs": [
        {
          "name": "",
          "type": "uint256"
        }
      ],
      "payable": false,
      "stateMutability": "view",
      "type": "function",
      "signature": "0xafd82067"
    },
    {
      "constant": true,
      "inputs": [],
      "name": "getPeriod",
      "outputs": [
        {
          "name": "",
          "type": "uint256"
        }
      ],
      "payable": false,
      "stateMutability": "view",
      "type": "function",
      "signature": "0x1ed24195"
    },
    {
      "constant": true,
      "inputs": [
        {
          "name": "_who",
          "type": "address"
        }
      ],
      "name": "isSWC",
      "outputs": [
        {
          "name": "",
          "type": "bool"
        }
      ],
      "payable": false,
      "stateMutability": "view",
      "type": "function",
      "signature": "0x3ff83da6"
    }
  ],
  "bytecode": "0x60806040523480156200001157600080fd5b5060405160608062002246833981018060405260608110156200003357600080fd5b81019080805190602001909291908051906020019092919080519060200190929190505050620000738383620000a0640100000000026401000000009004565b6200008c62000213640100000000026401000000009004565b600a0a8102600981905550505050620002df565b600073ffffffffffffffffffffffffffffffffffffffff16600560009054906101000a900473ffffffffffffffffffffffffffffffffffffffff1673ffffffffffffffffffffffffffffffffffffffff16141515620000fe57600080fd5b81600560006101000a81548173ffffffffffffffffffffffffffffffffffffffff021916908373ffffffffffffffffffffffffffffffffffffffff160217905550600560009054906101000a900473ffffffffffffffffffffffffffffffffffffffff1673ffffffffffffffffffffffffffffffffffffffff1663313ce5676040518163ffffffff167c010000000000000000000000000000000000000000000000000000000002815260040160206040518083038186803b158015620001c457600080fd5b505afa158015620001d9573d6000803e3d6000fd5b505050506040513d6020811015620001f057600080fd5b810190808051906020019092919050505060ff16600a0a81026003819055505050565b6000600560009054906101000a900473ffffffffffffffffffffffffffffffffffffffff1673ffffffffffffffffffffffffffffffffffffffff1663313ce5676040518163ffffffff167c010000000000000000000000000000000000000000000000000000000002815260040160206040518083038186803b1580156200029a57600080fd5b505afa158015620002af573d6000803e3d6000fd5b505050506040513d6020811015620002c657600080fd5b810190808051906020019092919050505060ff16905090565b611f5780620002ef6000396000f3fe6080604052600436106100ca576000357c0100000000000000000000000000000000000000000000000000000000900480631b17af3f146100cf5780631dbf3bc71461014e5780631ed24195146101a15780632e1a7d4d146101cc5780633975dd041461021f5780633ff83da61461028857806347e7ef24146102f15780634b9f5c98146103645780637a766460146103b9578063a2ab2dee1461041e578063ae6e43f514610475578063afd82067146104de578063c239add814610509578063f46d1982146105a8575b600080fd5b3480156100db57600080fd5b50610134600480360360608110156100f257600080fd5b81019080803515159060200190929190803573ffffffffffffffffffffffffffffffffffffffff16906020019092919080359060200190929190505050610603565b604051808215151515815260200191505060405180910390f35b34801561015a57600080fd5b506101876004803603602081101561017157600080fd5b8101908080359060200190929190505050610954565b604051808215151515815260200191505060405180910390f35b3480156101ad57600080fd5b506101b6610a78565b6040518082815260200191505060405180910390f35b3480156101d857600080fd5b50610205600480360360208110156101ef57600080fd5b8101908080359060200190929190505050610a82565b604051808215151515815260200191505060405180910390f35b34801561022b57600080fd5b5061026e6004803603602081101561024257600080fd5b81019080803573ffffffffffffffffffffffffffffffffffffffff169060200190929190505050610ca1565b604051808215151515815260200191505060405180910390f35b34801561029457600080fd5b506102d7600480360360208110156102ab57600080fd5b81019080803573ffffffffffffffffffffffffffffffffffffffff169060200190929190505050610e0f565b604051808215151515815260200191505060405180910390f35b3480156102fd57600080fd5b5061034a6004803603604081101561031457600080fd5b81019080803573ffffffffffffffffffffffffffffffffffffffff16906020019092919080359060200190929190505050610e65565b604051808215151515815260200191505060405180910390f35b34801561037057600080fd5b5061039f6004803603602081101561038757600080fd5b8101908080351515906020019092919050505061113d565b604051808215151515815260200191505060405180910390f35b3480156103c557600080fd5b50610408600480360360208110156103dc57600080fd5b81019080803573ffffffffffffffffffffffffffffffffffffffff16906020019092919050505061138f565b6040518082815260200191505060405180910390f35b34801561042a57600080fd5b50610433611415565b604051808273ffffffffffffffffffffffffffffffffffffffff1673ffffffffffffffffffffffffffffffffffffffff16815260200191505060405180910390f35b34801561048157600080fd5b506104c46004803603602081101561049857600080fd5b81019080803573ffffffffffffffffffffffffffffffffffffffff16906020019092919050505061143f565b604051808215151515815260200191505060405180910390f35b3480156104ea57600080fd5b506104f361147c565b6040518082815260200191505060405180910390f35b34801561051557600080fd5b5061058e6004803603608081101561052c57600080fd5b81019080803515159060200190929190803573ffffffffffffffffffffffffffffffffffffffff16906020019092919080359060200190929190803573ffffffffffffffffffffffffffffffffffffffff169060200190929190505050611486565b604051808215151515815260200191505060405180910390f35b3480156105b457600080fd5b50610601600480360360408110156105cb57600080fd5b81019080803573ffffffffffffffffffffffffffffffffffffffff169060200190929190803590602001909291905050506116de565b005b600080600102600654141515610681576040517f08c379a00000000000000000000000000000000000000000000000000000000081526004018080602001828103825260138152602001807f6167656e6461206973207375626d69747465640000000000000000000000000081525060200191505060405180910390fd5b62093a8042018210151515610724576040517f08c379a00000000000000000000000000000000000000000000000000000000081526004018080602001828103825260228152602001807f5f706572696f64203c20626c6f636b2e74696d657374616d70202b203720646181526020017f797300000000000000000000000000000000000000000000000000000000000081525060400191505060405180910390fd5b62127500420182111515156107c7576040517f08c379a00000000000000000000000000000000000000000000000000000000081526004018080602001828103825260248152602001807f5f706572696f64203e3d20626c6f636b2e74696d657374616d70202b2031342081526020017f646179730000000000000000000000000000000000000000000000000000000081525060400191505060405180910390fd5b6107d2600954610954565b50838383336040516020018085151515157f01000000000000000000000000000000000000000000000000000000000000000281526001018473ffffffffffffffffffffffffffffffffffffffff1673ffffffffffffffffffffffffffffffffffffffff166c010000000000000000000000000281526014018381526020018273ffffffffffffffffffffffffffffffffffffffff1673ffffffffffffffffffffffffffffffffffffffff166c01000000000000000000000000028152601401945050505050604051602081830303815290604052805190602001206006819055506108bc61184d565b600881905550600854600a81905550816007819055507f688c616cad046ff54f3220c609f5cb710a98b202caa5cc945462a3f533a05d4f84848460405180841515151581526020018373ffffffffffffffffffffffffffffffffffffffff1673ffffffffffffffffffffffffffffffffffffffff168152602001828152602001935050505060405180910390a1600190509392505050565b60006109a7826000803373ffffffffffffffffffffffffffffffffffffffff1673ffffffffffffffffffffffffffffffffffffffff1681526020019081526020016000205461191390919063ffffffff16565b6000803373ffffffffffffffffffffffffffffffffffffffff1673ffffffffffffffffffffffffffffffffffffffff168152602001908152602001600020819055506109fe8260045461193590919063ffffffff16565b6004819055507f06131bcc28ec32de6ef2770e611649956182eeee5d9e08c0701bb822bc6934773383604051808373ffffffffffffffffffffffffffffffffffffffff1673ffffffffffffffffffffffffffffffffffffffff1681526020018281526020019250505060405180910390a160019050919050565b6000600754905090565b6000610a8d33611956565b151515610a9957600080fd5b610aea826000803373ffffffffffffffffffffffffffffffffffffffff1673ffffffffffffffffffffffffffffffffffffffff1681526020019081526020016000205461191390919063ffffffff16565b6000803373ffffffffffffffffffffffffffffffffffffffff1673ffffffffffffffffffffffffffffffffffffffff16815260200190815260200160002081905550600560009054906101000a900473ffffffffffffffffffffffffffffffffffffffff1673ffffffffffffffffffffffffffffffffffffffff1663a9059cbb33846040518363ffffffff167c0100000000000000000000000000000000000000000000000000000000028152600401808373ffffffffffffffffffffffffffffffffffffffff1673ffffffffffffffffffffffffffffffffffffffff16815260200182815260200192505050602060405180830381600087803b158015610bf157600080fd5b505af1158015610c05573d6000803e3d6000fd5b505050506040513d6020811015610c1b57600080fd5b8101908080519060200190929190505050507f5dba113b49cfa7c90315e8e604e6b506f7abcb909b01dcb19ec39005086e68fc3383604051808373ffffffffffffffffffffffffffffffffffffffff1673ffffffffffffffffffffffffffffffffffffffff1681526020018281526020019250505060405180910390a160019050919050565b6000610cac33611956565b151515610cb857600080fd5b6000610cc38361138f565b141515610ccf57600080fd5b600354610cdb3361138f565b10151515610ce857600080fd5b610cf1336119ac565b33600160008473ffffffffffffffffffffffffffffffffffffffff1673ffffffffffffffffffffffffffffffffffffffff16815260200190815260200160002060006101000a81548173ffffffffffffffffffffffffffffffffffffffff021916908373ffffffffffffffffffffffffffffffffffffffff1602179055507f660b9aa11ecf84e6ac5da55cc25c08d226f3c6bdcbf413cc1f0d919032cd75143383604051808373ffffffffffffffffffffffffffffffffffffffff1673ffffffffffffffffffffffffffffffffffffffff1681526020018273ffffffffffffffffffffffffffffffffffffffff1673ffffffffffffffffffffffffffffffffffffffff1681526020019250505060405180910390a160019050919050565b6000600b60008373ffffffffffffffffffffffffffffffffffffffff1673ffffffffffffffffffffffffffffffffffffffff16815260200190815260200160002060009054906101000a900460ff169050919050565b60008073ffffffffffffffffffffffffffffffffffffffff16600160008573ffffffffffffffffffffffffffffffffffffffff1673ffffffffffffffffffffffffffffffffffffffff16815260200190815260200160002060009054906101000a900473ffffffffffffffffffffffffffffffffffffffff1673ffffffffffffffffffffffffffffffffffffffff16141515610f0057600080fd5b600560009054906101000a900473ffffffffffffffffffffffffffffffffffffffff1673ffffffffffffffffffffffffffffffffffffffff166323b872dd8430856040518463ffffffff167c0100000000000000000000000000000000000000000000000000000000028152600401808473ffffffffffffffffffffffffffffffffffffffff1673ffffffffffffffffffffffffffffffffffffffff1681526020018373ffffffffffffffffffffffffffffffffffffffff1673ffffffffffffffffffffffffffffffffffffffff1681526020018281526020019350505050602060405180830381600087803b158015610ff957600080fd5b505af115801561100d573d6000803e3d6000fd5b505050506040513d602081101561102357600080fd5b810190808051906020019092919050505050611086826000808673ffffffffffffffffffffffffffffffffffffffff1673ffffffffffffffffffffffffffffffffffffffff1681526020019081526020016000205461193590919063ffffffff16565b6000808573ffffffffffffffffffffffffffffffffffffffff1673ffffffffffffffffffffffffffffffffffffffff168152602001908152602001600020819055507f2d8a08b6430a894aea608bcaa6013d5d3e263bc49110605e4d4ba76930ae5c298383604051808373ffffffffffffffffffffffffffffffffffffffff1673ffffffffffffffffffffffffffffffffffffffff1681526020018281526020019250505060405180910390a16001905092915050565b600080600102600654141515156111bc576040517f08c379a00000000000000000000000000000000000000000000000000000000081526004018080602001828103825260138152602001807f6167656e6461206973206e6f742073617665640000000000000000000000000081525060200191505060405180910390fd5b6111c533611a07565b15151561123a576040517f08c379a000000000000000000000000000000000000000000000000000000000815260040180806020018281038252601c8152602001807f6d73672e73656e64657220616c7265616479207375626d69747465640000000081525060200191505060405180910390fd5b600061124d61124833611ac5565b61138f565b905082156112755761126a8160085461193590919063ffffffff16565b600881905550611291565b61128a8160085461191390919063ffffffff16565b6008819055505b600c3390806001815401808255809150509060018203906000526020600020016000909192909190916101000a81548173ffffffffffffffffffffffffffffffffffffffff021916908373ffffffffffffffffffffffffffffffffffffffff1602179055505061130b61130333611ac5565b600954611b2e565b507f591a89b27b3057021df052ec15caa0a817c1894bcb52243ed0c8cdaa83f322be3384600854604051808473ffffffffffffffffffffffffffffffffffffffff1673ffffffffffffffffffffffffffffffffffffffff16815260200183151515158152602001828152602001935050505060405180910390a16001915050919050565b60008073ffffffffffffffffffffffffffffffffffffffff168273ffffffffffffffffffffffffffffffffffffffff1614156113ce5760009050611410565b6000808373ffffffffffffffffffffffffffffffffffffffff1673ffffffffffffffffffffffffffffffffffffffff1681526020019081526020016000205490505b919050565b6000600560009054906101000a900473ffffffffffffffffffffffffffffffffffffffff16905090565b60008060010260065414151561145457600080fd5b61145d33611c29565b1561146b5760009050611477565b61147482611c89565b90505b919050565b6000600854905090565b600080858585856040516020018085151515157f01000000000000000000000000000000000000000000000000000000000000000281526001018473ffffffffffffffffffffffffffffffffffffffff1673ffffffffffffffffffffffffffffffffffffffff166c010000000000000000000000000281526014018381526020018273ffffffffffffffffffffffffffffffffffffffff1673ffffffffffffffffffffffffffffffffffffffff166c01000000000000000000000000028152601401945050505050604051602081830303815290604052805190602001209050600654811415156115df576040517f08c379a000000000000000000000000000000000000000000000000000000000815260040180806020018281038252601c8152602001807f70726f706f73616c2068617368206973206e6f7420636f72726563740000000081525060200191505060405180910390fd5b8342101515156115ee57600080fd5b600a546008541115611657576001600b60008773ffffffffffffffffffffffffffffffffffffffff1673ffffffffffffffffffffffffffffffffffffffff16815260200190815260200160002060006101000a81548160ff0219169083151502179055506116b0565b6000600b60008773ffffffffffffffffffffffffffffffffffffffff1673ffffffffffffffffffffffffffffffffffffffff16815260200190815260200160002060006101000a81548160ff0219169083151502179055505b600c60006116be9190611ee5565b600060010260068190555060006008819055506001915050949350505050565b600073ffffffffffffffffffffffffffffffffffffffff16600560009054906101000a900473ffffffffffffffffffffffffffffffffffffffff1673ffffffffffffffffffffffffffffffffffffffff1614151561173b57600080fd5b81600560006101000a81548173ffffffffffffffffffffffffffffffffffffffff021916908373ffffffffffffffffffffffffffffffffffffffff160217905550600560009054906101000a900473ffffffffffffffffffffffffffffffffffffffff1673ffffffffffffffffffffffffffffffffffffffff1663313ce5676040518163ffffffff167c010000000000000000000000000000000000000000000000000000000002815260040160206040518083038186803b15801561180057600080fd5b505afa158015611814573d6000803e3d6000fd5b505050506040513d602081101561182a57600080fd5b810190808051906020019092919050505060ff16600a0a81026003819055505050565b6000600560009054906101000a900473ffffffffffffffffffffffffffffffffffffffff1673ffffffffffffffffffffffffffffffffffffffff166318160ddd6040518163ffffffff167c010000000000000000000000000000000000000000000000000000000002815260040160206040518083038186803b1580156118d357600080fd5b505afa1580156118e7573d6000803e3d6000fd5b505050506040513d60208110156118fd57600080fd5b8101908080519060200190929190505050905090565b600082821115151561192457600080fd5b600082840390508091505092915050565b600080828401905083811015151561194c57600080fd5b8091505092915050565b6000600260008373ffffffffffffffffffffffffffffffffffffffff1673ffffffffffffffffffffffffffffffffffffffff16815260200190815260200160002060009054906101000a900460ff169050919050565b6001600260008373ffffffffffffffffffffffffffffffffffffffff1673ffffffffffffffffffffffffffffffffffffffff16815260200190815260200160002060006101000a81548160ff02191690831515021790555050565b600080600090506000600c805490501415611a255780915050611ac0565b60008090505b6001600c8054905003811015611aba578373ffffffffffffffffffffffffffffffffffffffff16600c82815481101515611a6157fe5b9060005260206000200160009054906101000a900473ffffffffffffffffffffffffffffffffffffffff1673ffffffffffffffffffffffffffffffffffffffff161415611aad57600191505b8080600101915050611a2b565b50809150505b919050565b6000600160008373ffffffffffffffffffffffffffffffffffffffff1673ffffffffffffffffffffffffffffffffffffffff16815260200190815260200160002060009054906101000a900473ffffffffffffffffffffffffffffffffffffffff169050919050565b6000611b44606483611e6090919063ffffffff16565b600454101515611c2357611bb2611b65606484611e6090919063ffffffff16565b6000808673ffffffffffffffffffffffffffffffffffffffff1673ffffffffffffffffffffffffffffffffffffffff1681526020019081526020016000205461193590919063ffffffff16565b6000808573ffffffffffffffffffffffffffffffffffffffff1673ffffffffffffffffffffffffffffffffffffffff16815260200190815260200160002081905550611c1c611c0b606484611e6090919063ffffffff16565b60045461191390919063ffffffff16565b6004819055505b92915050565b6000611c3482610e0f565b15611c7f573373ffffffffffffffffffffffffffffffffffffffff16611c5983611ac5565b73ffffffffffffffffffffffffffffffffffffffff161415611c7e5760019050611c84565b5b600090505b919050565b6000611c9433611956565b1515611c9f57600080fd5b3373ffffffffffffffffffffffffffffffffffffffff16600160008473ffffffffffffffffffffffffffffffffffffffff1673ffffffffffffffffffffffffffffffffffffffff16815260200190815260200160002060009054906101000a900473ffffffffffffffffffffffffffffffffffffffff1673ffffffffffffffffffffffffffffffffffffffff16141515611d3857600080fd5b611d4133611e8a565b6000600160008473ffffffffffffffffffffffffffffffffffffffff1673ffffffffffffffffffffffffffffffffffffffff16815260200190815260200160002060006101000a81548173ffffffffffffffffffffffffffffffffffffffff021916908373ffffffffffffffffffffffffffffffffffffffff1602179055507f6d8682ff6b3e12367dae01562a3ec8b1720ff5e6843def8f64291837c35cdfd33383604051808373ffffffffffffffffffffffffffffffffffffffff1673ffffffffffffffffffffffffffffffffffffffff1681526020018273ffffffffffffffffffffffffffffffffffffffff1673ffffffffffffffffffffffffffffffffffffffff1681526020019250505060405180910390a160019050919050565b60008082111515611e7057600080fd5b60008284811515611e7d57fe5b0490508091505092915050565b6000600260008373ffffffffffffffffffffffffffffffffffffffff1673ffffffffffffffffffffffffffffffffffffffff16815260200190815260200160002060006101000a81548160ff02191690831515021790555050565b5080546000825590600052602060002090810190611f039190611f06565b50565b611f2891905b80821115611f24576000816000905550600101611f0c565b5090565b9056fea165627a7a72305820edbebe720af63635be4b741092b80bf95d64d3149e77071a5523aa7bcfd0b1b50029",
  "source": "pragma solidity 0.5.1;\n\nimport \"./Staker.sol\";\nimport \"./Utils/SafeMath.sol\";\n\n\ncontract StakeManager is Staker {\n    using SafeMath for uint256;\n\n    bytes32 private agenda; // only support single proposal\n    uint256 private period;\n    uint256 private scores;\n    uint256 private wasted;\n    uint256 private border;\n\n    mapping(address => bool) private swc;\n\n    event DepositEvent(address _who, uint256 _amount);\n    event SubmittedProposal(bool join, address who, uint256 period);\n    event Voted(address sender, bool vote, uint256 total);\n\n    address[] private voted;\n\n    modifier isNotVoting() {\n        require(agenda == 0x0);\n        _;\n    }\n\n    constructor(address _gov, uint256 _shares, uint256 _wasted) public {\n        setup(_gov, _shares);\n        wasted = _wasted * 10 ** uint256(getDecimals());\n    }\n\n    // add or sub members to witness / lender\n    function submitAgenda(bool _join, address _who, uint256 _period) public returns (bool) {\n        require(agenda == 0x0, \"agenda is submitted\");\n        require(_period >= block.timestamp + 7 days, \"_period < block.timestamp + 7 days\");\n        require(_period <= block.timestamp + 14 days, \"_period >= block.timestamp + 14 days\");\n        spend(wasted);\n        agenda = keccak256(abi.encodePacked(_join, _who, _period, msg.sender));\n        scores = getTotalSupply(); // init vote score min totalsuppy of tokens.\n        border = scores;\n        period = _period;\n        emit SubmittedProposal(_join, _who, _period);\n        return true;\n    }\n\n    function vote(bool _vote) public returns (bool) {\n        require(agenda != 0x0, \"agenda is not saved\");\n        require(!isVoted(msg.sender), \"msg.sender already submitted\");\n        uint256 stakes = getStake(getLink(msg.sender));\n        if (_vote) {\n            scores = scores.add(stakes);\n        } else {\n            scores = scores.sub(stakes);\n        }\n        voted.push(msg.sender);\n        _slice(getLink(msg.sender), wasted);\n        emit Voted(msg.sender, _vote, scores);\n        return true;\n    }\n\n    function close(\n        bool _join, \n        address _who, \n        uint256 _period, \n        address _sender\n    ) public returns (bool) {\n        bytes32 hash = keccak256(abi.encodePacked(_join, _who, _period, _sender));\n        require(hash == agenda, \"proposal hash is not correct\");\n        require(block.timestamp >= _period);\n        // vote success\n        if (scores > border) { // agreed\n            swc[_who] = true;\n        } else {\n            swc[_who] = false;\n        }\n        delete voted;\n        agenda = 0x0; // reset proposal\n        scores = 0;\n        return true;\n    }\n\n    function resign(address _who) public isNotVoting returns (bool) {\n        if (isSWCOwner(msg.sender)) {\n            return false;\n        }\n        return super.resign(_who);\n    }\n\n    function getScore() public view returns (uint256) {\n        return scores;\n    }\n\n    function getPeriod() public view returns (uint256) {\n        return period;\n    }\n\n    function isSWC(address _who) public view returns (bool) {\n        return swc[_who];\n    }\n\n    function isSWCOwner(address _who) internal view returns (bool) {\n        // if registerd swc\n        if (isSWC(_who)) {\n            // if who is linked by msg.sender\n            if (getLink(_who) == msg.sender) {\n                return true;\n            }\n        }\n        return false;\n    }\n\n    function isVoted(address _who) internal view returns (bool) {\n        bool result = false;\n        if (voted.length == 0) {\n            return result;\n        }\n        for (uint i = 0; i < voted.length - 1; i++) {\n            if (voted[i] == _who) {\n                result = true;\n            }\n        }\n        return result;\n    }\n}",
  "sourcePath": "/Users/sengayusaku/repo/btc2eth1/contracts/StakeManager.sol",
  "compiler": {
    "name": "solc",
    "version": "0.5.1+commit.c8a2cb62.Emscripten.clang"
  },
  "schemaVersion": "3.0.6",
  "updatedAt": "2019-04-16T14:23:41.021Z",
  "devdoc": {
    "methods": {}
  },
  "userdoc": {
    "methods": {}
  }
}