{
  "contractName": "Staker",
  "abi": [
    {
      "payable": true,
      "stateMutability": "payable",
      "type": "fallback"
    },
    {
      "anonymous": false,
      "inputs": [
        {
          "indexed": false,
          "name": "_who",
          "type": "address"
        },
        {
          "indexed": false,
          "name": "_amount",
          "type": "uint256"
        }
      ],
      "name": "DepositEvent",
      "type": "event"
    },
    {
      "anonymous": false,
      "inputs": [
        {
          "indexed": false,
          "name": "_who",
          "type": "address"
        },
        {
          "indexed": false,
          "name": "_amount",
          "type": "uint256"
        }
      ],
      "name": "WithdrawEvent",
      "type": "event"
    },
    {
      "anonymous": false,
      "inputs": [
        {
          "indexed": false,
          "name": "_owner",
          "type": "address"
        },
        {
          "indexed": false,
          "name": "_who",
          "type": "address"
        }
      ],
      "name": "DeputeEvent",
      "type": "event"
    },
    {
      "anonymous": false,
      "inputs": [
        {
          "indexed": false,
          "name": "_owner",
          "type": "address"
        },
        {
          "indexed": false,
          "name": "_who",
          "type": "address"
        }
      ],
      "name": "ResignEvent",
      "type": "event"
    },
    {
      "anonymous": false,
      "inputs": [
        {
          "indexed": false,
          "name": "_who",
          "type": "address"
        },
        {
          "indexed": false,
          "name": "_amount",
          "type": "uint256"
        }
      ],
      "name": "SpendEvent",
      "type": "event"
    },
    {
      "constant": false,
      "inputs": [
        {
          "name": "_gov",
          "type": "address"
        },
        {
          "name": "_shares",
          "type": "uint256"
        }
      ],
      "name": "setup",
      "outputs": [],
      "payable": false,
      "stateMutability": "nonpayable",
      "type": "function"
    },
    {
      "constant": false,
      "inputs": [
        {
          "name": "_from",
          "type": "address"
        },
        {
          "name": "_amount",
          "type": "uint256"
        }
      ],
      "name": "deposit",
      "outputs": [
        {
          "name": "",
          "type": "bool"
        }
      ],
      "payable": false,
      "stateMutability": "nonpayable",
      "type": "function"
    },
    {
      "constant": false,
      "inputs": [
        {
          "name": "_amount",
          "type": "uint256"
        }
      ],
      "name": "withdraw",
      "outputs": [
        {
          "name": "",
          "type": "bool"
        }
      ],
      "payable": false,
      "stateMutability": "nonpayable",
      "type": "function"
    },
    {
      "constant": false,
      "inputs": [
        {
          "name": "_who",
          "type": "address"
        }
      ],
      "name": "depute",
      "outputs": [
        {
          "name": "",
          "type": "bool"
        }
      ],
      "payable": false,
      "stateMutability": "nonpayable",
      "type": "function"
    },
    {
      "constant": false,
      "inputs": [
        {
          "name": "_who",
          "type": "address"
        }
      ],
      "name": "resign",
      "outputs": [
        {
          "name": "",
          "type": "bool"
        }
      ],
      "payable": false,
      "stateMutability": "nonpayable",
      "type": "function"
    },
    {
      "constant": false,
      "inputs": [
        {
          "name": "_amount",
          "type": "uint256"
        }
      ],
      "name": "spend",
      "outputs": [
        {
          "name": "",
          "type": "bool"
        }
      ],
      "payable": false,
      "stateMutability": "nonpayable",
      "type": "function"
    },
    {
      "constant": true,
      "inputs": [],
      "name": "getGov",
      "outputs": [
        {
          "name": "",
          "type": "address"
        }
      ],
      "payable": false,
      "stateMutability": "view",
      "type": "function"
    },
    {
      "constant": true,
      "inputs": [
        {
          "name": "_who",
          "type": "address"
        }
      ],
      "name": "getStake",
      "outputs": [
        {
          "name": "",
          "type": "uint256"
        }
      ],
      "payable": false,
      "stateMutability": "view",
      "type": "function"
    }
  ],
  "bytecode": "0x608060405234801561001057600080fd5b50611089806100206000396000f3fe608060405260043610610088576000357c0100000000000000000000000000000000000000000000000000000000900480631dbf3bc71461008d5780632e1a7d4d146100e05780633975dd041461013357806347e7ef241461019c5780637a7664601461020f578063a2ab2dee14610274578063ae6e43f5146102cb578063f46d198214610334575b600080fd5b34801561009957600080fd5b506100c6600480360360208110156100b057600080fd5b810190808035906020019092919050505061038f565b604051808215151515815260200191505060405180910390f35b3480156100ec57600080fd5b506101196004803603602081101561010357600080fd5b81019080803590602001909291905050506104b3565b604051808215151515815260200191505060405180910390f35b34801561013f57600080fd5b506101826004803603602081101561015657600080fd5b81019080803573ffffffffffffffffffffffffffffffffffffffff1690602001909291905050506106d2565b604051808215151515815260200191505060405180910390f35b3480156101a857600080fd5b506101f5600480360360408110156101bf57600080fd5b81019080803573ffffffffffffffffffffffffffffffffffffffff16906020019092919080359060200190929190505050610840565b604051808215151515815260200191505060405180910390f35b34801561021b57600080fd5b5061025e6004803603602081101561023257600080fd5b81019080803573ffffffffffffffffffffffffffffffffffffffff169060200190929190505050610b18565b6040518082815260200191505060405180910390f35b34801561028057600080fd5b50610289610b9e565b604051808273ffffffffffffffffffffffffffffffffffffffff1673ffffffffffffffffffffffffffffffffffffffff16815260200191505060405180910390f35b3480156102d757600080fd5b5061031a600480360360208110156102ee57600080fd5b81019080803573ffffffffffffffffffffffffffffffffffffffff169060200190929190505050610bc8565b604051808215151515815260200191505060405180910390f35b34801561034057600080fd5b5061038d6004803603604081101561035757600080fd5b81019080803573ffffffffffffffffffffffffffffffffffffffff16906020019092919080359060200190929190505050610d9f565b005b60006103e2826000803373ffffffffffffffffffffffffffffffffffffffff1673ffffffffffffffffffffffffffffffffffffffff16815260200190815260200160002054610f0e90919063ffffffff16565b6000803373ffffffffffffffffffffffffffffffffffffffff1673ffffffffffffffffffffffffffffffffffffffff1681526020019081526020016000208190555061043982600454610f3090919063ffffffff16565b6004819055507f06131bcc28ec32de6ef2770e611649956182eeee5d9e08c0701bb822bc6934773383604051808373ffffffffffffffffffffffffffffffffffffffff1673ffffffffffffffffffffffffffffffffffffffff1681526020018281526020019250505060405180910390a160019050919050565b60006104be33610f51565b1515156104ca57600080fd5b61051b826000803373ffffffffffffffffffffffffffffffffffffffff1673ffffffffffffffffffffffffffffffffffffffff16815260200190815260200160002054610f0e90919063ffffffff16565b6000803373ffffffffffffffffffffffffffffffffffffffff1673ffffffffffffffffffffffffffffffffffffffff16815260200190815260200160002081905550600560009054906101000a900473ffffffffffffffffffffffffffffffffffffffff1673ffffffffffffffffffffffffffffffffffffffff1663a9059cbb33846040518363ffffffff167c0100000000000000000000000000000000000000000000000000000000028152600401808373ffffffffffffffffffffffffffffffffffffffff1673ffffffffffffffffffffffffffffffffffffffff16815260200182815260200192505050602060405180830381600087803b15801561062257600080fd5b505af1158015610636573d6000803e3d6000fd5b505050506040513d602081101561064c57600080fd5b8101908080519060200190929190505050507f5dba113b49cfa7c90315e8e604e6b506f7abcb909b01dcb19ec39005086e68fc3383604051808373ffffffffffffffffffffffffffffffffffffffff1673ffffffffffffffffffffffffffffffffffffffff1681526020018281526020019250505060405180910390a160019050919050565b60006106dd33610f51565b1515156106e957600080fd5b60006106f483610b18565b14151561070057600080fd5b60035461070c33610b18565b1015151561071957600080fd5b61072233610fa7565b33600160008473ffffffffffffffffffffffffffffffffffffffff1673ffffffffffffffffffffffffffffffffffffffff16815260200190815260200160002060006101000a81548173ffffffffffffffffffffffffffffffffffffffff021916908373ffffffffffffffffffffffffffffffffffffffff1602179055507f660b9aa11ecf84e6ac5da55cc25c08d226f3c6bdcbf413cc1f0d919032cd75143383604051808373ffffffffffffffffffffffffffffffffffffffff1673ffffffffffffffffffffffffffffffffffffffff1681526020018273ffffffffffffffffffffffffffffffffffffffff1673ffffffffffffffffffffffffffffffffffffffff1681526020019250505060405180910390a160019050919050565b60008073ffffffffffffffffffffffffffffffffffffffff16600160008573ffffffffffffffffffffffffffffffffffffffff1673ffffffffffffffffffffffffffffffffffffffff16815260200190815260200160002060009054906101000a900473ffffffffffffffffffffffffffffffffffffffff1673ffffffffffffffffffffffffffffffffffffffff161415156108db57600080fd5b600560009054906101000a900473ffffffffffffffffffffffffffffffffffffffff1673ffffffffffffffffffffffffffffffffffffffff166323b872dd8430856040518463ffffffff167c0100000000000000000000000000000000000000000000000000000000028152600401808473ffffffffffffffffffffffffffffffffffffffff1673ffffffffffffffffffffffffffffffffffffffff1681526020018373ffffffffffffffffffffffffffffffffffffffff1673ffffffffffffffffffffffffffffffffffffffff1681526020018281526020019350505050602060405180830381600087803b1580156109d457600080fd5b505af11580156109e8573d6000803e3d6000fd5b505050506040513d60208110156109fe57600080fd5b810190808051906020019092919050505050610a61826000808673ffffffffffffffffffffffffffffffffffffffff1673ffffffffffffffffffffffffffffffffffffffff16815260200190815260200160002054610f3090919063ffffffff16565b6000808573ffffffffffffffffffffffffffffffffffffffff1673ffffffffffffffffffffffffffffffffffffffff168152602001908152602001600020819055507f2d8a08b6430a894aea608bcaa6013d5d3e263bc49110605e4d4ba76930ae5c298383604051808373ffffffffffffffffffffffffffffffffffffffff1673ffffffffffffffffffffffffffffffffffffffff1681526020018281526020019250505060405180910390a16001905092915050565b60008073ffffffffffffffffffffffffffffffffffffffff168273ffffffffffffffffffffffffffffffffffffffff161415610b575760009050610b99565b6000808373ffffffffffffffffffffffffffffffffffffffff1673ffffffffffffffffffffffffffffffffffffffff1681526020019081526020016000205490505b919050565b6000600560009054906101000a900473ffffffffffffffffffffffffffffffffffffffff16905090565b6000610bd333610f51565b1515610bde57600080fd5b3373ffffffffffffffffffffffffffffffffffffffff16600160008473ffffffffffffffffffffffffffffffffffffffff1673ffffffffffffffffffffffffffffffffffffffff16815260200190815260200160002060009054906101000a900473ffffffffffffffffffffffffffffffffffffffff1673ffffffffffffffffffffffffffffffffffffffff16141515610c7757600080fd5b610c8033611002565b6000600160008473ffffffffffffffffffffffffffffffffffffffff1673ffffffffffffffffffffffffffffffffffffffff16815260200190815260200160002060006101000a81548173ffffffffffffffffffffffffffffffffffffffff021916908373ffffffffffffffffffffffffffffffffffffffff1602179055507f6d8682ff6b3e12367dae01562a3ec8b1720ff5e6843def8f64291837c35cdfd33383604051808373ffffffffffffffffffffffffffffffffffffffff1673ffffffffffffffffffffffffffffffffffffffff1681526020018273ffffffffffffffffffffffffffffffffffffffff1673ffffffffffffffffffffffffffffffffffffffff1681526020019250505060405180910390a160019050919050565b600073ffffffffffffffffffffffffffffffffffffffff16600560009054906101000a900473ffffffffffffffffffffffffffffffffffffffff1673ffffffffffffffffffffffffffffffffffffffff16141515610dfc57600080fd5b81600560006101000a81548173ffffffffffffffffffffffffffffffffffffffff021916908373ffffffffffffffffffffffffffffffffffffffff160217905550600560009054906101000a900473ffffffffffffffffffffffffffffffffffffffff1673ffffffffffffffffffffffffffffffffffffffff1663313ce5676040518163ffffffff167c010000000000000000000000000000000000000000000000000000000002815260040160206040518083038186803b158015610ec157600080fd5b505afa158015610ed5573d6000803e3d6000fd5b505050506040513d6020811015610eeb57600080fd5b810190808051906020019092919050505060ff16600a0a81026003819055505050565b6000828211151515610f1f57600080fd5b600082840390508091505092915050565b6000808284019050838110151515610f4757600080fd5b8091505092915050565b6000600260008373ffffffffffffffffffffffffffffffffffffffff1673ffffffffffffffffffffffffffffffffffffffff16815260200190815260200160002060009054906101000a900460ff169050919050565b6001600260008373ffffffffffffffffffffffffffffffffffffffff1673ffffffffffffffffffffffffffffffffffffffff16815260200190815260200160002060006101000a81548160ff02191690831515021790555050565b6000600260008373ffffffffffffffffffffffffffffffffffffffff1673ffffffffffffffffffffffffffffffffffffffff16815260200190815260200160002060006101000a81548160ff0219169083151502179055505056fea165627a7a723058202634d1e3a9ed8b84b38a1c4f9ebcc219ffea214a36ca5de5951ff86f84951d8d0029",
  "source": "pragma solidity 0.5.1;\n\nimport \"./Token/IToken.sol\";\nimport \"./Utils/SafeMath.sol\";\n\n\ncontract Staker {\n    using SafeMath for uint256;\n\n    mapping(address => uint256) private stakes; \n    mapping(address => address) private linked;\n    mapping(address => bool)    private locked;\n    uint256 private shares;  // minimum staking balance\n    uint256 private spills;   \n    IToken private gov;\n\n    function () external payable {\n        revert(); \n    }   \n\n    function setup(address _gov, uint256 _shares) public {\n        require(address(gov) == address(0x0));\n        gov = IToken(_gov);\n        shares = _shares * 10 ** uint256(gov.decimals());\n    }\n\n    function deposit(address _from, uint256 _amount) public returns (bool) {\n        // _from is not linked\n        require(linked[_from] == address(0x0));\n        gov.transferFrom(_from, address(this), _amount);\n        stakes[_from] = stakes[_from].add(_amount);\n        emit DepositEvent(_from, _amount);\n        return true;\n    }\n\n    function withdraw(uint256 _amount) public returns (bool) {\n        require(!isLocked(msg.sender));\n        stakes[msg.sender] = stakes[msg.sender].sub(_amount);\n        gov.transfer(msg.sender, _amount);\n        emit WithdrawEvent(msg.sender, _amount);\n        return true;\n    }\n\n    function depute(address _who) public returns (bool) {\n        require(!isLocked(msg.sender));\n        require(getStake(_who) == 0);\n        require(getStake(msg.sender) >= shares);\n        lock(msg.sender);\n        linked[_who] = msg.sender;\n        emit DeputeEvent(msg.sender, _who);\n        return true;\n    }\n\n    function resign(address _who) public returns (bool) {\n        require(isLocked(msg.sender));\n        require(linked[_who] == msg.sender);\n        unlock(msg.sender);\n        linked[_who] = address(0x0);\n        emit ResignEvent(msg.sender, _who);\n        return true;\n    }\n\n    function spend(uint256 _amount) public returns (bool) {\n        stakes[msg.sender] = stakes[msg.sender].sub(_amount);\n        spills = spills.add(_amount);\n        emit SpendEvent(msg.sender, _amount);\n        return true;\n    }\n\n    function getGov() public view returns (address) {\n        return address(gov);\n    }\n\n    function getStake(address _who) public view returns (uint256) {\n        if (_who == address(0x0)) {\n            return 0;\n        }\n        return stakes[_who];\n    }\n    \n    function getTotalSupply() internal view returns (uint256) {\n        return gov.totalSupply();\n    }\n\n    function getDecimals() internal view returns (uint256) {\n        return gov.decimals();\n    }\n\n    function getLink(address _who) internal view returns (address) {\n        return linked[_who];\n    }\n\n    function isLocked(address _who) internal view returns (bool) {\n        return locked[_who];\n    }\n    \n    function lock(address _who) internal {\n        locked[_who] = true;\n    }\n\n    function unlock(address _who) internal {\n        locked[_who] = false;\n    }\n\n    function _slice(address _who, uint256 _amount) internal returns (bool) {\n        // add reward 1/10 of _amount cost;\n        if (spills >= _amount.div(100)) {\n            stakes[_who] = stakes[_who].add(_amount.div(100)); \n            spills = spills.sub(_amount.div(100));\n        }\n    }\n\n    event DepositEvent(address _who, uint256 _amount);\n    event WithdrawEvent(address _who, uint256 _amount);\n    event DeputeEvent(address _owner, address _who);\n    event ResignEvent(address _owner, address _who);\n    event SpendEvent(address _who, uint256 _amount);\n}",
  "sourcePath": "/Users/sengayusaku/repo/btc2eth1/contracts/Staker.sol",
  "compiler": {
    "name": "solc",
    "version": "0.5.1+commit.c8a2cb62.Emscripten.clang"
  },
  "schemaVersion": "3.0.6",
  "updatedAt": "2019-04-10T07:29:43.570Z",
  "devdoc": {
    "methods": {}
  },
  "userdoc": {
    "methods": {}
  }
}