{
  "contractName": "StakeManager",
  "abi": [
    {
      "inputs": [
        {
          "name": "_gov",
          "type": "address"
        }
      ],
      "payable": false,
      "stateMutability": "nonpayable",
      "type": "constructor",
      "signature": "constructor"
    },
    {
      "payable": true,
      "stateMutability": "payable",
      "type": "fallback"
    },
    {
      "anonymous": false,
      "inputs": [
        {
          "indexed": false,
          "name": "addOrSub",
          "type": "bool"
        },
        {
          "indexed": false,
          "name": "wOrl",
          "type": "bool"
        },
        {
          "indexed": false,
          "name": "who",
          "type": "address"
        },
        {
          "indexed": false,
          "name": "period",
          "type": "uint256"
        }
      ],
      "name": "SubmittedProposal",
      "type": "event",
      "signature": "0x1a5b3d3cd52e96e40d5642b9cbeeb870e16d4bd155ebfc0c820784cb9137caaf"
    },
    {
      "anonymous": false,
      "inputs": [
        {
          "indexed": false,
          "name": "sender",
          "type": "address"
        },
        {
          "indexed": false,
          "name": "vote",
          "type": "bool"
        },
        {
          "indexed": false,
          "name": "total",
          "type": "uint256"
        }
      ],
      "name": "Voted",
      "type": "event",
      "signature": "0x591a89b27b3057021df052ec15caa0a817c1894bcb52243ed0c8cdaa83f322be"
    },
    {
      "constant": false,
      "inputs": [
        {
          "name": "_token",
          "type": "address"
        },
        {
          "name": "_sender",
          "type": "address"
        },
        {
          "name": "_amount",
          "type": "uint256"
        }
      ],
      "name": "onTokenReceived",
      "outputs": [
        {
          "name": "",
          "type": "bool"
        }
      ],
      "payable": false,
      "stateMutability": "nonpayable",
      "type": "function",
      "signature": "0xd6b1dd38"
    },
    {
      "constant": false,
      "inputs": [
        {
          "name": "_amount",
          "type": "uint256"
        }
      ],
      "name": "deposit",
      "outputs": [
        {
          "name": "",
          "type": "bool"
        }
      ],
      "payable": false,
      "stateMutability": "nonpayable",
      "type": "function",
      "signature": "0xb6b55f25"
    },
    {
      "constant": false,
      "inputs": [
        {
          "name": "_amount",
          "type": "uint256"
        }
      ],
      "name": "transferOut",
      "outputs": [],
      "payable": false,
      "stateMutability": "nonpayable",
      "type": "function",
      "signature": "0x9d87cb3d"
    },
    {
      "constant": false,
      "inputs": [
        {
          "name": "_addOrSub",
          "type": "bool"
        },
        {
          "name": "_wOrl",
          "type": "bool"
        },
        {
          "name": "_who",
          "type": "address"
        },
        {
          "name": "_period",
          "type": "uint256"
        }
      ],
      "name": "submitProposal",
      "outputs": [
        {
          "name": "",
          "type": "bool"
        }
      ],
      "payable": false,
      "stateMutability": "nonpayable",
      "type": "function",
      "signature": "0x58e738ec"
    },
    {
      "constant": false,
      "inputs": [
        {
          "name": "_vote",
          "type": "bool"
        }
      ],
      "name": "vote",
      "outputs": [
        {
          "name": "",
          "type": "bool"
        }
      ],
      "payable": false,
      "stateMutability": "nonpayable",
      "type": "function",
      "signature": "0x4b9f5c98"
    },
    {
      "constant": false,
      "inputs": [
        {
          "name": "_joinOrLeft",
          "type": "bool"
        },
        {
          "name": "_wOrl",
          "type": "bool"
        },
        {
          "name": "_who",
          "type": "address"
        },
        {
          "name": "_period",
          "type": "uint256"
        },
        {
          "name": "_submitter",
          "type": "address"
        }
      ],
      "name": "finalize",
      "outputs": [
        {
          "name": "",
          "type": "bool"
        }
      ],
      "payable": false,
      "stateMutability": "nonpayable",
      "type": "function",
      "signature": "0x11722d0f"
    },
    {
      "constant": true,
      "inputs": [
        {
          "name": "_who",
          "type": "address"
        }
      ],
      "name": "isValidLenderConsortium",
      "outputs": [
        {
          "name": "",
          "type": "bool"
        }
      ],
      "payable": false,
      "stateMutability": "view",
      "type": "function",
      "signature": "0xeef4fd8d"
    },
    {
      "constant": true,
      "inputs": [
        {
          "name": "_who",
          "type": "address"
        }
      ],
      "name": "isValidWitnessConsortium",
      "outputs": [
        {
          "name": "",
          "type": "bool"
        }
      ],
      "payable": false,
      "stateMutability": "view",
      "type": "function",
      "signature": "0xcd2160f2"
    },
    {
      "constant": true,
      "inputs": [],
      "name": "getGov",
      "outputs": [
        {
          "name": "",
          "type": "address"
        }
      ],
      "payable": false,
      "stateMutability": "view",
      "type": "function",
      "signature": "0xa2ab2dee"
    },
    {
      "constant": true,
      "inputs": [
        {
          "name": "_who",
          "type": "address"
        }
      ],
      "name": "getStake",
      "outputs": [
        {
          "name": "",
          "type": "uint256"
        }
      ],
      "payable": false,
      "stateMutability": "view",
      "type": "function",
      "signature": "0x7a766460"
    },
    {
      "constant": true,
      "inputs": [],
      "name": "getScore",
      "outputs": [
        {
          "name": "",
          "type": "uint256"
        }
      ],
      "payable": false,
      "stateMutability": "view",
      "type": "function",
      "signature": "0xafd82067"
    },
    {
      "constant": true,
      "inputs": [],
      "name": "getPeriod",
      "outputs": [
        {
          "name": "",
          "type": "uint256"
        }
      ],
      "payable": false,
      "stateMutability": "view",
      "type": "function",
      "signature": "0x1ed24195"
    }
  ],
  "bytecode": "0x608060405234801561001057600080fd5b5060405160208062001e5f8339810180604052602081101561003157600080fd5b810190808051906020019092919050505080600b60006101000a81548173ffffffffffffffffffffffffffffffffffffffff021916908373ffffffffffffffffffffffffffffffffffffffff160217905550600b60009054906101000a900473ffffffffffffffffffffffffffffffffffffffff1673ffffffffffffffffffffffffffffffffffffffff1663313ce5676040518163ffffffff167c010000000000000000000000000000000000000000000000000000000002815260040160206040518083038186803b15801561010757600080fd5b505afa15801561011b573d6000803e3d6000fd5b505050506040513d602081101561013157600080fd5b810190808051906020019092919050505060ff16600a0a619c4002600881905550600b60009054906101000a900473ffffffffffffffffffffffffffffffffffffffff1673ffffffffffffffffffffffffffffffffffffffff1663313ce5676040518163ffffffff167c010000000000000000000000000000000000000000000000000000000002815260040160206040518083038186803b1580156101d657600080fd5b505afa1580156101ea573d6000803e3d6000fd5b505050506040513d602081101561020057600080fd5b810190808051906020019092919050505060ff16600a0a6107d00260098190555050611c2d80620002326000396000f3fe6080604052600436106100ba576000357c0100000000000000000000000000000000000000000000000000000000900463ffffffff16806311722d0f146100bf5780631ed241951461016a5780634b9f5c981461019557806358e738ec146101ea5780637a766460146102755780639d87cb3d146102da578063a2ab2dee14610315578063afd820671461036c578063b6b55f2514610397578063cd2160f2146103ea578063d6b1dd3814610453578063eef4fd8d146104e6575b600080fd5b3480156100cb57600080fd5b50610150600480360360a08110156100e257600080fd5b81019080803515159060200190929190803515159060200190929190803573ffffffffffffffffffffffffffffffffffffffff16906020019092919080359060200190929190803573ffffffffffffffffffffffffffffffffffffffff16906020019092919050505061054f565b604051808215151515815260200191505060405180910390f35b34801561017657600080fd5b5061017f61098b565b6040518082815260200191505060405180910390f35b3480156101a157600080fd5b506101d0600480360360208110156101b857600080fd5b81019080803515159060200190929190505050610995565b604051808215151515815260200191505060405180910390f35b3480156101f657600080fd5b5061025b6004803603608081101561020d57600080fd5b81019080803515159060200190929190803515159060200190929190803573ffffffffffffffffffffffffffffffffffffffff16906020019092919080359060200190929190505050610db1565b604051808215151515815260200191505060405180910390f35b34801561028157600080fd5b506102c46004803603602081101561029857600080fd5b81019080803573ffffffffffffffffffffffffffffffffffffffff1690602001909291905050506112f9565b6040518082815260200191505060405180910390f35b3480156102e657600080fd5b50610313600480360360208110156102fd57600080fd5b8101908080359060200190929190505050611341565b005b34801561032157600080fd5b5061032a611501565b604051808273ffffffffffffffffffffffffffffffffffffffff1673ffffffffffffffffffffffffffffffffffffffff16815260200191505060405180910390f35b34801561037857600080fd5b5061038161152b565b6040518082815260200191505060405180910390f35b3480156103a357600080fd5b506103d0600480360360208110156103ba57600080fd5b8101908080359060200190929190505050611535565b604051808215151515815260200191505060405180910390f35b3480156103f657600080fd5b506104396004803603602081101561040d57600080fd5b81019080803573ffffffffffffffffffffffffffffffffffffffff169060200190929190505050611708565b604051808215151515815260200191505060405180910390f35b34801561045f57600080fd5b506104cc6004803603606081101561047657600080fd5b81019080803573ffffffffffffffffffffffffffffffffffffffff169060200190929190803573ffffffffffffffffffffffffffffffffffffffff1690602001909291908035906020019092919050505061175e565b604051808215151515815260200191505060405180910390f35b3480156104f257600080fd5b506105356004803603602081101561050957600080fd5b81019080803573ffffffffffffffffffffffffffffffffffffffff1690602001909291905050506118bf565b604051808215151515815260200191505060405180910390f35b60008086868686866040516020018086151515157f010000000000000000000000000000000000000000000000000000000000000002815260010185151515157f01000000000000000000000000000000000000000000000000000000000000000281526001018473ffffffffffffffffffffffffffffffffffffffff1673ffffffffffffffffffffffffffffffffffffffff166c010000000000000000000000000281526014018381526020018273ffffffffffffffffffffffffffffffffffffffff1673ffffffffffffffffffffffffffffffffffffffff166c0100000000000000000000000002815260140195505050505050604051602081830303815290604052805190602001209050600554811415156106d6576040517f08c379a000000000000000000000000000000000000000000000000000000000815260040180806020018281038252601c8152602001807f70726f706f73616c2068617368206973206e6f7420636f72726563740000000081525060200191505060405180910390fd5b8342101515156106e557600080fd5b6000600b60009054906101000a900473ffffffffffffffffffffffffffffffffffffffff1673ffffffffffffffffffffffffffffffffffffffff166318160ddd6040518163ffffffff167c010000000000000000000000000000000000000000000000000000000002815260040160206040518083038186803b15801561076b57600080fd5b505afa15801561077f573d6000803e3d6000fd5b505050506040513d602081101561079557600080fd5b8101908080519060200190929190505050600754111561094e578715610876578615610818576001600460008873ffffffffffffffffffffffffffffffffffffffff1673ffffffffffffffffffffffffffffffffffffffff16815260200190815260200160002060006101000a81548160ff021916908315150217905550610871565b6001600360008873ffffffffffffffffffffffffffffffffffffffff1673ffffffffffffffffffffffffffffffffffffffff16815260200190815260200160002060006101000a81548160ff0219169083151502179055505b610945565b86156108e2576000600460008873ffffffffffffffffffffffffffffffffffffffff1673ffffffffffffffffffffffffffffffffffffffff16815260200190815260200160002060006101000a81548160ff0219169083151502179055506108dd86611915565b610944565b6000600360008873ffffffffffffffffffffffffffffffffffffffff1673ffffffffffffffffffffffffffffffffffffffff16815260200190815260200160002060006101000a81548160ff02191690831515021790555061094386611915565b5b5b60019050610953565b600090505b600260006109619190611bbb565b6000600102600581905550600060078190555061097d84611915565b809250505095945050505050565b6000600654905090565b60008060010260055414151515610a14576040517f08c379a00000000000000000000000000000000000000000000000000000000081526004018080602001828103825260158152602001807f70726f706f73616c206973206e6f74207361766564000000000000000000000081525060200191505060405180910390fd5b610a2033600854611970565b1515610a94576040517f08c379a000000000000000000000000000000000000000000000000000000000815260040180806020018281038252601a8152602001807f766f74657220696e736675666669656e742062616c616e63657300000000000081525060200191505060405180910390fd5b610a9d336119df565b151515610b12576040517f08c379a000000000000000000000000000000000000000000000000000000000815260040180806020018281038252601c8152602001807f6d73672e73656e64657220616c7265616479207375626d69747465640000000081525060200191505060405180910390fd5b8115610b7657610b6b6000803373ffffffffffffffffffffffffffffffffffffffff1673ffffffffffffffffffffffffffffffffffffffff16815260200190815260200160002054600754611a9d90919063ffffffff16565b600781905550610bd0565b610bc96000803373ffffffffffffffffffffffffffffffffffffffff1673ffffffffffffffffffffffffffffffffffffffff16815260200190815260200160002054600754611abe90919063ffffffff16565b6007819055505b60023390806001815401808255809150509060018203906000526020600020016000909192909190916101000a81548173ffffffffffffffffffffffffffffffffffffffff021916908373ffffffffffffffffffffffffffffffffffffffff16021790555050610c4c600a600954611ae090919063ffffffff16565b600a54101515610d2f57610cbc610c6f600a600954611ae090919063ffffffff16565b6000803373ffffffffffffffffffffffffffffffffffffffff1673ffffffffffffffffffffffffffffffffffffffff16815260200190815260200160002054611a9d90919063ffffffff16565b6000803373ffffffffffffffffffffffffffffffffffffffff1673ffffffffffffffffffffffffffffffffffffffff16815260200190815260200160002081905550610d28610d17600a600954611ae090919063ffffffff16565b600a54611abe90919063ffffffff16565b600a819055505b7f591a89b27b3057021df052ec15caa0a817c1894bcb52243ed0c8cdaa83f322be3383600754604051808473ffffffffffffffffffffffffffffffffffffffff1673ffffffffffffffffffffffffffffffffffffffff16815260200183151515158152602001828152602001935050505060405180910390a160019050919050565b600080600102600554141515610e2f576040517f08c379a00000000000000000000000000000000000000000000000000000000081526004018080602001828103825260158152602001807f70726f706f73616c206973207375626d6974746564000000000000000000000081525060200191505060405180910390fd5b610e3b33600854611970565b1515610e4657600080fd5b610e5283600854611970565b1515610e5d57600080fd5b62093a8042018210151515610f00576040517f08c379a00000000000000000000000000000000000000000000000000000000081526004018080602001828103825260228152602001807f5f706572696f64203c20626c6f636b2e74696d657374616d70202b203720646181526020017f797300000000000000000000000000000000000000000000000000000000000081525060400191505060405180910390fd5b6212750042018211151515610fa3576040517f08c379a00000000000000000000000000000000000000000000000000000000081526004018080602001828103825260248152602001807f5f706572696f64203e3d20626c6f636b2e74696d657374616d70202b2031342081526020017f646179730000000000000000000000000000000000000000000000000000000081525060400191505060405180910390fd5b610fac33611b0a565b1515610fb757600080fd5b610fc083611b0a565b1515610fcb57600080fd5b61101e6009546000803373ffffffffffffffffffffffffffffffffffffffff1673ffffffffffffffffffffffffffffffffffffffff16815260200190815260200160002054611abe90919063ffffffff16565b6000803373ffffffffffffffffffffffffffffffffffffffff1673ffffffffffffffffffffffffffffffffffffffff16815260200190815260200160002081905550611077600954600a54611a9d90919063ffffffff16565b600a8190555084848484336040516020018086151515157f010000000000000000000000000000000000000000000000000000000000000002815260010185151515157f01000000000000000000000000000000000000000000000000000000000000000281526001018473ffffffffffffffffffffffffffffffffffffffff1673ffffffffffffffffffffffffffffffffffffffff166c010000000000000000000000000281526014018381526020018273ffffffffffffffffffffffffffffffffffffffff1673ffffffffffffffffffffffffffffffffffffffff166c01000000000000000000000000028152601401955050505050506040516020818303038152906040528051906020012060058190555061119533611b61565b61119e83611b61565b600b60009054906101000a900473ffffffffffffffffffffffffffffffffffffffff1673ffffffffffffffffffffffffffffffffffffffff166318160ddd6040518163ffffffff167c010000000000000000000000000000000000000000000000000000000002815260040160206040518083038186803b15801561122257600080fd5b505afa158015611236573d6000803e3d6000fd5b505050506040513d602081101561124c57600080fd5b8101908080519060200190929190505050600781905550816006819055507f1a5b3d3cd52e96e40d5642b9cbeeb870e16d4bd155ebfc0c820784cb9137caaf858585856040518085151515158152602001841515151581526020018373ffffffffffffffffffffffffffffffffffffffff1673ffffffffffffffffffffffffffffffffffffffff16815260200182815260200194505050505060405180910390a160019050949350505050565b60008060008373ffffffffffffffffffffffffffffffffffffffff1673ffffffffffffffffffffffffffffffffffffffff168152602001908152602001600020549050919050565b61134a336119df565b15151561135657600080fd5b61135f33611b0a565b151561136a57600080fd5b6113bb816000803373ffffffffffffffffffffffffffffffffffffffff1673ffffffffffffffffffffffffffffffffffffffff16815260200190815260200160002054611abe90919063ffffffff16565b6000803373ffffffffffffffffffffffffffffffffffffffff1673ffffffffffffffffffffffffffffffffffffffff16815260200190815260200160002081905550600b60009054906101000a900473ffffffffffffffffffffffffffffffffffffffff1673ffffffffffffffffffffffffffffffffffffffff1663a9059cbb33836040518363ffffffff167c0100000000000000000000000000000000000000000000000000000000028152600401808373ffffffffffffffffffffffffffffffffffffffff1673ffffffffffffffffffffffffffffffffffffffff16815260200182815260200192505050602060405180830381600087803b1580156114c257600080fd5b505af11580156114d6573d6000803e3d6000fd5b505050506040513d60208110156114ec57600080fd5b81019080805190602001909291905050505050565b6000600b60009054906101000a900473ffffffffffffffffffffffffffffffffffffffff16905090565b6000600754905090565b6000600b60009054906101000a900473ffffffffffffffffffffffffffffffffffffffff1673ffffffffffffffffffffffffffffffffffffffff166323b872dd3330856040518463ffffffff167c0100000000000000000000000000000000000000000000000000000000028152600401808473ffffffffffffffffffffffffffffffffffffffff1673ffffffffffffffffffffffffffffffffffffffff1681526020018373ffffffffffffffffffffffffffffffffffffffff1673ffffffffffffffffffffffffffffffffffffffff1681526020018281526020019350505050602060405180830381600087803b15801561163057600080fd5b505af1158015611644573d6000803e3d6000fd5b505050506040513d602081101561165a57600080fd5b8101908080519060200190929190505050506116bd826000803373ffffffffffffffffffffffffffffffffffffffff1673ffffffffffffffffffffffffffffffffffffffff16815260200190815260200160002054611a9d90919063ffffffff16565b6000803373ffffffffffffffffffffffffffffffffffffffff1673ffffffffffffffffffffffffffffffffffffffff1681526020019081526020016000208190555060019050919050565b6000600460008373ffffffffffffffffffffffffffffffffffffffff1673ffffffffffffffffffffffffffffffffffffffff16815260200190815260200160002060009054906101000a900460ff169050919050565b6000600b60009054906101000a900473ffffffffffffffffffffffffffffffffffffffff1673ffffffffffffffffffffffffffffffffffffffff163373ffffffffffffffffffffffffffffffffffffffff161415156117c057600090506118b8565b600b60009054906101000a900473ffffffffffffffffffffffffffffffffffffffff1673ffffffffffffffffffffffffffffffffffffffff168473ffffffffffffffffffffffffffffffffffffffff1614151561182057600090506118b8565b611871826000808673ffffffffffffffffffffffffffffffffffffffff1673ffffffffffffffffffffffffffffffffffffffff16815260200190815260200160002054611a9d90919063ffffffff16565b6000808573ffffffffffffffffffffffffffffffffffffffff1673ffffffffffffffffffffffffffffffffffffffff16815260200190815260200160002081905550600190505b9392505050565b6000600360008373ffffffffffffffffffffffffffffffffffffffff1673ffffffffffffffffffffffffffffffffffffffff16815260200190815260200160002060009054906101000a900460ff169050919050565b6000600160008373ffffffffffffffffffffffffffffffffffffffff1673ffffffffffffffffffffffffffffffffffffffff16815260200190815260200160002060006101000a81548160ff02191690831515021790555050565b6000806119c4836000808773ffffffffffffffffffffffffffffffffffffffff1673ffffffffffffffffffffffffffffffffffffffff16815260200190815260200160002054611abe90919063ffffffff16565b1015156119d457600190506119d9565b600090505b92915050565b60008060009050600060028054905014156119fd5780915050611a98565b60008090505b600160028054905003811015611a92578373ffffffffffffffffffffffffffffffffffffffff16600282815481101515611a3957fe5b9060005260206000200160009054906101000a900473ffffffffffffffffffffffffffffffffffffffff1673ffffffffffffffffffffffffffffffffffffffff161415611a8557600191505b8080600101915050611a03565b50809150505b919050565b6000808284019050838110151515611ab457600080fd5b8091505092915050565b6000828211151515611acf57600080fd5b600082840390508091505092915050565b60008082111515611af057600080fd5b60008284811515611afd57fe5b0490508091505092915050565b6000600160008373ffffffffffffffffffffffffffffffffffffffff1673ffffffffffffffffffffffffffffffffffffffff16815260200190815260200160002060009054906101000a900460ff16159050919050565b60018060008373ffffffffffffffffffffffffffffffffffffffff1673ffffffffffffffffffffffffffffffffffffffff16815260200190815260200160002060006101000a81548160ff02191690831515021790555050565b5080546000825590600052602060002090810190611bd99190611bdc565b50565b611bfe91905b80821115611bfa576000816000905550600101611be2565b5090565b9056fea165627a7a72305820ab9eb1462270770af533476335a5c0ce399f8a387c69af479cde82fb0fca87a00029",
  "source": "pragma solidity 0.5.0;\n\nimport \"./Token/IToken.sol\";\nimport \"./Token/ITokensRecipient.sol\";\nimport \"./Utils/SafeMath.sol\";\n\n\ncontract StakeManager is ITokensRecipient {\n    using SafeMath for uint256;\n\n    mapping(address => uint256) private stakes; \n    mapping(address => bool)    private locked;\n\n    address[] private voted;\n\n    mapping(address => bool) private lenderConsortium;\n    mapping(address => bool) private witnessConsortium;\n    \n    bytes32 private proposal; // only support single proposal style\n    uint256 private period;\n    uint256 private score;\n    uint256 private minStakeBalance;\n    uint256 private proposalCost;\n    uint256 private reserve;\n\n    IToken private gov;\n\n\n    event SubmittedProposal(bool addOrSub, bool wOrl, address who, uint256 period);\n    event Voted(address sender, bool vote, uint256 total);\n\n    constructor(address _gov) public {\n        gov = IToken(_gov);\n        minStakeBalance = 40000 * 10 ** uint256(gov.decimals());\n        proposalCost = 2000 * 10 ** uint256(gov.decimals());\n    }\n\n    function () external payable {\n        revert(); \n    }   \n\n    //ITokensRecipient callback\n    function onTokenReceived(address _token, address _sender, uint256 _amount) public returns (bool) {\n        if (msg.sender != address(gov)) {\n            return false;\n        }\n        if (_token != address(gov)) {\n            return false;\n        }\n        stakes[_sender] = stakes[_sender].add(_amount);\n        return true;\n    }\n\n    function deposit(uint256 _amount) public returns (bool) {\n        gov.transferFrom(msg.sender, address(this), _amount);\n        stakes[msg.sender] = stakes[msg.sender].add(_amount);\n        return true;\n    }\n\n    function transferOut(uint256 _amount) public {\n        // when proposal is open, cannot withdraw.\n        require(!isVoted(msg.sender));\n        // already resign \n        require(isFree(msg.sender));\n        stakes[msg.sender] = stakes[msg.sender].sub(_amount);\n        gov.transfer(msg.sender, _amount);\n    }\n\n    // add or sub members to witness / lender\n    function submitProposal(bool _addOrSub, bool _wOrl, address _who, uint256 _period) public returns (bool) {\n        require(proposal == 0x0, \"proposal is submitted\");\n        require(isValidStakes(msg.sender, minStakeBalance));\n        require(isValidStakes(_who, minStakeBalance));\n        require(_period >= block.timestamp + 7 days, \"_period < block.timestamp + 7 days\");\n        require(_period <= block.timestamp + 14 days, \"_period >= block.timestamp + 14 days\");\n        require(isFree(msg.sender));\n        require(isFree(_who));\n        stakes[msg.sender] = stakes[msg.sender].sub(proposalCost);\n        reserve = reserve.add(proposalCost);\n        proposal = keccak256(abi.encodePacked(_addOrSub, _wOrl, _who, _period, msg.sender));\n        doLock(msg.sender);\n        doLock(_who);\n        score = gov.totalSupply(); // init vote score min totalsuppy of tokens.\n        period = _period;\n        emit SubmittedProposal(_addOrSub, _wOrl, _who, _period);\n        return true;\n    }\n\n    function vote(bool _vote) public returns (bool) {\n        require(proposal != 0x0, \"proposal is not saved\");\n        require(isValidStakes(msg.sender, minStakeBalance), \"voter insfuffient balances\");\n        require(!isVoted(msg.sender), \"msg.sender already submitted\");\n        if (_vote) {\n            score = score.add(stakes[msg.sender]);\n        } else {\n            score = score.sub(stakes[msg.sender]);\n        }\n        voted.push(msg.sender);\n        if (reserve >= proposalCost.div(10)) {\n            stakes[msg.sender] = stakes[msg.sender].add(proposalCost.div(10)); // add reward 1/10 of proposal cost;\n            reserve = reserve.sub(proposalCost.div(10));\n        }\n        emit Voted(msg.sender, _vote, score);\n        return true;\n    }\n\n    function finalize(\n        bool _joinOrLeft, \n        bool _wOrl, \n        address _who, \n        uint256 _period, \n        address _submitter\n    ) public returns (bool) {\n        bytes32 hash = keccak256(abi.encodePacked(_joinOrLeft, _wOrl, _who, _period, _submitter));\n        require(hash == proposal, \"proposal hash is not correct\");\n        require(block.timestamp >= _period);\n        bool success;        \n        // vote success\n        if (score > gov.totalSupply()) { // agreed\n            if (_joinOrLeft) {\n                if (_wOrl) {\n                    witnessConsortium[_who] = true;\n                } else {\n                    lenderConsortium[_who] = true;                   \n                }\n            } else {\n                if (_wOrl) {\n                    witnessConsortium[_who] = false;\n                    doUnlock(_who);\n                } else {\n                    lenderConsortium[_who] = false;              \n                    doUnlock(_who);             \n                }\n            }\n            success = true;\n        } else {\n            success = false;\n        }\n        delete voted;\n        proposal = 0x0; // reset proposal\n        score = 0;\n        doUnlock(_submitter);\n        return success;\n    }\n\n    function isValidLenderConsortium(address _who) public view returns (bool) {\n        return lenderConsortium[_who];\n    }\n\n    function isValidWitnessConsortium(address _who) public view returns (bool) {\n        return witnessConsortium[_who];\n    }\n    \n    function getGov() public view returns (address) {\n        return address(gov);\n    }\n\n    function getStake(address _who) public view returns (uint256) {\n        return stakes[_who];\n    }\n\n    function getScore() public view returns (uint256) {\n        return score;\n    }\n\n    function getPeriod() public view returns (uint256) {\n        return period;\n    }\n\n    function isVoted(address _who) internal view returns (bool) {\n        bool result = false;\n        if (voted.length == 0) {\n            return result;\n        }\n        for (uint i = 0; i < voted.length - 1; i++) {\n            if (voted[i] == _who) {\n                result = true;\n            }\n        }\n        return result;\n    }\n\n    function isFree(address _who) internal view returns (bool) {\n        return !locked[_who];\n    }\n\n    function doLock(address _who) internal {\n        locked[_who] = true;\n    }\n\n    function doUnlock(address _who) internal {\n        locked[_who] = false;\n    }\n\n    function isValidStakes(address _who, uint256 _stake) internal view returns (bool) {\n        if (stakes[_who].sub(_stake) >= 0) {\n            return true;\n        }\n        return false;\n    }\n}",
  "sourcePath": "/Users/sengayusaku/repo/btc2eth1/contracts/StakeManager.sol",
  "compiler": {
    "name": "solc",
    "version": "0.5.0+commit.1d4f565a.Emscripten.clang"
  },
  "schemaVersion": "3.0.2",
  "updatedAt": "2019-03-20T05:45:45.402Z",
  "devdoc": {
    "methods": {}
  },
  "userdoc": {
    "methods": {}
  }
}